:10000000021C6A1227FD12117480FB0222D1D296C3
:10001000121EE5C296D297121EE5C297D2A6121EF4
:10002000E5C2A6D280121EE5C28022021DFBE92491
:1000300036F9E43AFA02265C02280602209B900078
:1000400043120165B4090AE92454F9E43AFA121F8B
:02005000552237
:100053000227EEE709F608DFFA8046E709F208DF30
:10006300FA803E88828C83E709F0A3DFFA8032E3CB
:1000730009F608DFFA8078E309F208DFFA8070886E
:10008300828C83E309F0A3DFFA806489828A83E0A8
:10009300A3F608DFFA805889828A83E0A3F208DF97
:1000A300FA804C80D280FA80C680D4806980F28046
:1000B30033801080A680EA809A80A880DA80E2806C
:1000C300CA803389828A83ECFAE493A3C8C582C8C1
:1000D300CCC583CCF0A3C8C582C8CCC583CCDFE92B
:1000E300DEE7800D89828A83E493A3F608DFF9ECC7
:1000F300FAA9F0EDFB2289828A83ECFAE0A3C8C552
:1001030082C8CCC583CCF0A3C8C582C8CCC583CC78
:10011300DFEADEE880DB89828A83E493A3F208DFE7
:10012300F980CC88F0EF60010E4E60C388F0ED24B7
:1001330002B4040050B9F582EB2402B4040050AFBA
:1001430023234582239000A673BB010689828A83F9
:10015300E0225002E722BBFE02E32289828A83E483
:100163009322BB010CE58229F582E5833AF583E00E
:10017300225006E92582F8E622BBFE06E92582F82D
:10018300E222E58229F582E5833AF583E49322BBF3
:10019300010FF8E58229F582E5833AF583E028F03B
:1001A300225009C58229F8E58226F622BBFE09C53D
:1001B3008229F8E22582F222F8EA2583F583E9937E
:1001C3002822BB010689828A83F0225002F722BBD0
:1001D300FE01F322F8BB010DE58229F582E5833A9E
:1001E300F583E8F0225006E92582C8F622BBFE0516
:1001F300E92582C8F222BC000BBE0029EF8DF084F2
:10020300FFADF022E4CCF875F008EF2FFFEE33FEDC
:10021300EC33FCEE9DEC984005FCEE9DFE0FD5F013
:10022300E9E4CEFD22EDF8F5F0EE8420D21CFEAD1C
:10023300F075F008EF2FFFED33FD4007985006D51A
:10024300F0F222C398FD0FD5F0EA22BB0110E5823C
:1002530029F582E5833AF583E0F5F0A3E02250091E
:10026300E92582F886F008E622BBFE0AE92582F832
:10027300E2F5F008E222E5832AF583E993F5F0A39A
:10028300E99322BB010DC58229C582C5833AC58383
:100293000203425011C58229F808E5F026F618F545
:1002A300F0E58236F622BBFE11C58229F808E22565
:1002B300F0F5F0F218E23582F222F8E58229F582B0
:1002C300E5832AF58374019325F0F5F0E49338224E
:1002D300F8BB0111E58229F582E5833AF583E8F05D
:1002E300E5F0A3F0225009E92582C8F608A6F0221A
:1002F300BBFE09E92582C8F2E5F008F222EB9FF57F
:10030300F0EA9E42F0E99D42F0EC6480C864809874
:1003130045F022EF4E6012EF60010EEDBB010B8939
:10032300828A83F0A3DFFCDEFA2289F05007F70903
:10033300DFFCA9F022BBFEFCF309DFFCA9F022C518
:10034300F0F8A3E028F0C5F0F8E5821582700215F5
:1003530083E038F02290006CEBF0A3EAF0A3E9F01D
:1003630078717C007D017BFF7A2879247E007F04ED
:1003730012012678757C007D017BFF7A2879287E1F
:10038300007F0312012690006CE0FBA3E0FAA3E0D8
:10039300F990000612024EFF900071E5F0F0A3EF12
:1003A300F090000212024EFF900073E5F0F0A3EF0D
:1003B300F090004D120165900075F090004E12010F
:1003C30065900076F0900049120165900077F0E4A3
:1003D30090006FF0A3F0900071E0FEA3E0FF4E6089
:1003E30022C3EF94ABEE940250047F048017D390A2
:1003F3000072E09455900071E094057F0540027F00
:100403000480027F05BF041E90006CE0FBA3E0FAAA
:10041300A3E0F9900006E4F5F01202D390006FE038
:10042300F0A3E04401F0900071E07002A3E06004E7
:100433007F05800B900075E07F05B402027F04BF47
:10044300041D90006CE0FBA3E0FAA3E0F990004DDB
:1004530074031201D790006FE0F0A3E04402F09020
:100463000075E06402705890000AE0FEA3E0FF907C
:10047300000EE0FCA3E0FDD39FEC9E4015ED9FFF33
:10048300EC9EFED3EF9424EE94007F0540027F049C
:10049300802290000EE0FEA3E0FFC390000BE09FDC
:1004A300FF90000AE09EFED3EF9424EE94007F05B4
:1004B30040027F04BF04047F0480067F0580027F1F
:1004C30005EF6404705D90006CE0FBA3E0FAA3E029
:1004D300F990000212024EFFAEF04E602BC3EF9470
:1004E300ABEE940250047F05801390000212024E7B
:1004F300D39455E5F094057F0440027F05BF0508BA
:1005030090005274031201D7900052120165B40394
:100513001290004D74031201D790006FE0F0A3E036
:100523004404F0900076E0FFB4020BA3E07E05B430
:1005330002027E0480027E05BE041D90006CE0FB77
:10054300A3E0FAA3E0F990004974031201D79000E5
:100553006FE0F0A3E04408F0900075E0FEB4020AF7
:10056300EF7F05B402027F0480027F05BF041D9064
:10057300006CE0FBA3E0FAA3E0F990004E740312D1
:1005830001D790006FE0F0A3E04410F0EEB4030D48
:10059300900077E07F05B402027F0480027F05BFED
:1005A300041D90006CE0FBA3E0FAA3E0F99000497E
:1005B30074031201D790006FE0F0A3E04420F090A1
:1005C300006FE0FEA3E0FF90006CE0FBA3E0FAA362
:1005D300E0F990005EEE8FF00202D3900069EBF039
:1005E300A3EAF0A3E9F0E4A3F0900069E0FBA3E041
:1005F300FAA3E0F990006012016564047003020835
:100603005B9000B77468F090005E12024E45F07084
:10061300030207DD9000B87402F0900069E0FBA3C9
:10062300E0FAA3E0F990000C1201659000B9F09094
:1006330000C1E0C3940240030207C890005E1202A7
:100643004EFD30E0057E00020742ED30E1057E01FC
:10065300020742900069E0FBA3E0FAA3E0F99000EF
:100663005E12024EFD30E2057E02020742ED30E3E8
:10067300057E03020742900069E0FBA3E0FAA3E0D2
:10068300F990005E12024EFD30E4057E040207423B
:10069300ED30E5057E05020742900069E0FBA3E02B
:1006A300FAA3E0F990005E12024EFD30E6057E06E5
:1006B300020742ED30E7057E07020742900069E03A
:1006C300FBA3E0FAA3E0F990005E12024EACF0EC5B
:1006D30030E0047E088068EC30E1047E098060909D
:1006E3000069E0FBA3E0FAA3E0F990005E12024E7A
:1006F300ACF0EC30E2047E0A8045EC30E3047E0B80
:10070300803D900069E0FBA3E0FAA3E0F990005E6E
:1007130012024EACF0EC30E4047E0C8022EC30E5A7
:10072300047E0D801A900069E0FBA3E0FAA3E0F9D0
:1007330090005E12024EE5F07E0F30E6027E0EEE72
:1007430070047E3F8078EEB401047E068070EEB4C0
:1007530002047E5B8068EEB403047E4F8060EEB4D7
:1007630004047E668058EEB405047E6D8050EEB4BA
:1007730006047E7D8048EEB407047E078040EEB415
:1007830008047E7F8038EEB409047E6F8030EEB4B7
:100793000A047E778028EEB40B047E7C8020EEB4BE
:1007A3000C047E398018EEB40D047E5E8010EEB426
:1007B3000E047E798008EE7E00B40F027E719000F5
:1007C300BAEEF08005E49000BAF09000C1E004F0C6
:1007D300E0C394044022E4F0801E9000B87401F05A
:1007E300900069E0FBA3E0FAA3E0F990000C12018A
:1007F300659000B9F0E4A3F09000B8E0FF9000B773
:10080300E02FFF9000B9E02FFFA3E02FA3F0A37424
:1008130016F07F06900069E0FBA3E0FAA3E0F990ED
:100823000025EF1201D77E00900069E0FBA3E0FAF8
:10083300A3E02426F9E43AA801FCAD037B017A0086
:1008430079B7120126900069E0FBA3E0FAA3E0F96F
:1008530090002374011201D72290006CEBF0A3EAFD
:10086300F0A3E9F02454F9E43AFA120E7390006C01
:10087300E0FBA3E0FAA3E0F99000541201651460D1
:100883003E14606D1470030209942403600302098B
:10089300C590004C120165B4040790005AE412019C
:1008A300D790004974031201D7900057E41201D77F
:1008B300900059E41201D790004574080209C290D0
:1008C300006CE0FBA3E0FAA3E0F990004C12016591
:1008D300B4040790005AE41201D79000497403123C
:1008E30001D7900057E41201D7900059740102090F
:1008F300C290006CE0FBA3E0FAA3E0F990005A1267
:100903000165C3940A4051900053120165B4022C4F
:1009130090004B120165B4020E900057E41201D708
:10092300900059E41201D790006CE0FBA3E0FAA316
:10093300E0F990004B74031201D7801C90006CE027
:10094300FBA3E0FAA3E0F990000412024EFF90002B
:1009530006E5F08FF01202D390006CE0FBA3E0FAFF
:10096300A3E0F9900059120165C39401405490002B
:100973004B1201656403704A9000531201656402CF
:10098300704090004974021201D790005A740A8093
:100993002E90006CE0FBA3E0FAA3E0F990004C1268
:1009A3000165B4040790005AE41201D7900049741A
:1009B300031201D7900057E41201D7900059E412B3
:1009C30001D790006CE0FBA3E0FAA3E0F9900049A3
:1009D300120165FF90004A120165FE6F6037EFB4A4
:1009E30002189000B0E0700A90005B12016590005D
:1009F300B1F09000B07401F08005E49000B0F09085
:100A0300006CE0FBA3E0FAA3E0F990004912016552
:100A130090004A805BEE6402704690006CE0FBA39A
:100A2300E0FAA3E0F990005B120165FF9000B1E0EA
:100A3300FEEFC39E400DEF9EC394007F0450027FE0
:100A430005801390005B1201652478C39EC3940054
:100A53007F0450027F05BF041A90004C7404801079
:100A630090006CE0FBA3E0FAA3E0F990004C74055E
:100A73001201D72290006CEBF0A3EAF0A3E9F0E4B3
:100A8300A3F078707C007D017BFF7A28792BFE7FB1
:100A93000B12012690006CE0FBA3E0FAA3E02417FD
:100AA300F9E43AFA78707C007D017E007F0B120135
:100AB300267E007F0B7D0090006CE0FBA3E0FAA391
:100AC300E02417F9E43AFA120316E4FF74702FF5E1
:100AD30082E43400F583E0FE90006FE02EF00FEF28
:100AE300B405E974702FF582E43400F583E0FF90D8
:100AF300006FE06F6003020C86900073E0FE9000CD
:100B030072E07C002400FFEC3EFE90006CE0FBA34F
:100B1300E0FAA3E0F9900046EE8FF01202D39000C2
:100B23004612024EFFAEF030E01390006CE0FBA3E0
:100B3300E0FAA3E0F99000447401020C1FEEC31322
:100B4300EF1330E01390006CE0FBA3E0FAA3E0F9AD
:100B53009000447402020C1F90006CE0FBA3E0FAC7
:100B6300A3E0F990004612024EFDACF0AE04780209
:100B7300CEC313CE13D8F930E008900044740302B7
:100B83000C1FEDAE047803CEC313CE13D8F930E0B7
:100B9300089000447404020C1F90004612024EFD9C
:100BA300ACF0ECC4F854F0C8EDC4540F4830E0077F
:100BB30090004474058065EDAE047805CEC313CE72
:100BC30013D8F930E0079000447406804F90004634
:100BD30012024EFDACF0AE047806CEC313CE13D88A
:100BE300F930E00790004474078031EDAE047807D4
:100BF300CEC313CE13D8F930E007900044740880B5
:100C03001B90004612024EE5F030E01390006CE0BA
:100C1300FBA3E0FAA3E0F990004474091201D79012
:100C2300006CE0FBA3E0FAA3E0F990004412016535
:100C3300603A900043120165B40A317E007F027D61
:100C430000E9245CF9E43AFA12031690006CE0FB25
:100C5300A3E0FAA3E0F9121CF690006CE0FBA3E01A
:100C6300FAA3E0F990004374091201D7900074E0ED
:100C7300FF90006CE0FBA3E0FAA3E0F9900042EFE1
:100C83001201D72290005412016514602E14602BB8
:100C9300147003020E3D24036003020E7290005A87
:100CA300120165C3940A4003020E4890004F1201DB
:100CB3006564026003020E72020E6190005A120113
:100CC30065C3940A500D90005212016564026003DB
:100CD300020E72900051120165702F9000B27406DB
:100CE300F090005174011201D7900006740575F05D
:100CF300551202D3900004740575F0551202D39077
:100D03000008740275F0AB020E6F90004F1201657C
:100D130064026003020E089000B2E024F9604614F6
:100D2300607E24026003020E1990000412024EFF3B
:100D3300900006E5F08FF01202D390000212024EEB
:100D4300FFAEF090000612024E6F7003E5F06E6086
:100D530003020E1990005374021201D79000B2746B
:100D630007F0020E1990005374021201D790000885
:100D730012024EFF900006E5F08FF01202D39000AE
:100D83000212024EFFAEF090000612024E6F700385
:100D9300E5F06E6003020E199000B27408F08076DD
:100DA30090005374021201D790000212024EFFAE5C
:100DB300F0BE0518BF5515900006740275F0AB120E
:100DC30002D3900008740275F0AB8047BE0218BFCF
:100DD300AB15900006740575F0551202D390000808
:100DE300740575F055802C90000612024E6F700347
:100DF300E5F06E702190000812024EFF900006E5A8
:100E0300F08FF0800E90000412024EFF900006E572
:100E1300F08FF01202D390000AE0FEA3E0FF9000EF
:100E23000EE06E7003A3E06F7F0460027F05EF6442
:100E330004703C9000537402801890005A120165AC
:100E4300C3940A4010900006E4F5F01202D3900018
:100E530051E40201D790004F120165B402119000D2
:100E63000412024EFF900006E5F08FF01202D32227
:100E730090006FEBF0A3EAF0A3E9F09000021201F7
:100E830065FF6404601890006FE0FBA3E0FAA3E041
:100E9300F990000112016564046003020FF4EFB4DA
:100EA300041B9000AEE0640B600BE49000AAF0908A
:100EB30000ACF0A3F09000AE740BF080199000AE7C
:100EC300E0640C600BE49000AAF09000ACF0A3F097
:100ED3009000AE740CF090006FE0FBA3E0FAA3E087
:100EE300F9900002120165B4042B9000ACE0FEA35C
:100EF300E0FF7C037D841201F9C3ED944EEC940270
:100F030050047402803E90006FE0FBA3E0FAA3E07C
:100F1300F97403802F9000ACE0FEA3E0FF7C037D17
:100F2300841201F9C3ED9458EC940290006FE0FB36
:100F3300500AA3E0FAA3E0F974018008A3E0FAA33E
:100F4300E0F974031201C59000AAE0701704F09051
:100F5300006FE0FBA3E0FAA3E0F99000071201653C
:100F63009000ABF090006FE0FBA3E0FAA3E0F990F0
:100F73000007120165FF9000ABE0FEEFC39E400D3A
:100F8300EF9EC394017F0450027F058013900007F6
:100F93001201652478C39EC394017F0450027F0528
:100FA300EF640470519000071201659000ABF0905C
:100FB30000ADE004F070069000ACE004F0C39000D4
:100FC300ADE094109000ACE0940E402AE41201C509
:100FD30090006FE0FBA3E0FAA3E0F9900002120196
:100FE30065B40405900002800390000174050201BA
:100FF300D7E49000AEF02290004412016514B409C6
:1010030000400302116D90101775F003A4C58325EA
:10101300F0C5837302115002105202107602109928
:1010230002111D02116D0210C40210320210ED9064
:101033000045120165640860379000457408120189
:10104300D790003874021201D7900054E480669060
:101053000045120165640260179000457402120195
:10106300D790003874021201D79000547401804560
:101073000211169000451201656403601790004544
:1010830074031201D790003874021201D7900054F0
:1010930074038021807D9000451201656404601F04
:1010A30090004574041201D790003874021201D7DE
:1010B30090005474021201D79000567405804A8040
:1010C300529000451201656407601D900045740746
:1010D3001201D790003874021201D790005574049E
:1010E3001201D79000568027802990004512016590
:1010F3006409601F90004574091201D79000387489
:10110300021201D790005674041201D7900055744F
:101113000580549000407402804D90005412016584
:10112300FF64016005EF6402701C900038740212C2
:1011330001D790004F12016590004FB4030474026D
:101143008025740380219000407402801A90003837
:1011530074021201D7900048120165900048B4034D
:10116300047402800274031201D7900044E4020164
:10117300D7900000E06006E4F0A3E004F0900001E3
:10118300E0C39408405BE4F0A3E004F09000CDE0FA
:10119300FBA3E0FAA3E0F91222229000CDE0FBA327
:1011A300E0FAA3E0F91225A29000CDE0FBA3E0FA58
:1011B300A3E0F912252A9000CDE0FBA3E0FAA3E017
:1011C3002426F9E43AFAC002C0019000CDA3E0FA64
:1011D300A3E0F9900025120165FDD001D002121B96
:1011E300D9900002E0C3940A4028E4F0A3E004F09D
:1011F300900005E004F09000CDE0FBA3E0FAA3E04B
:10120300F9121D799000CDE0FBA3E0FAA3E0F912F7
:101213001E74900003E0C394054014E4F0A3E004BB
:10122300F09000CDE0FBA3E0FAA3E0F91212E49002
:101233000004E0C394024010E4F09000CDE0FBA36F
:10124300E0FAA3E0F9121741900005E0C3941840B7
:1012530033E4F0A3E004F09000CDE0FBA3E0FAA3B5
:10126300E0F91223C19000CDE0FBA3E0FAA3E0F97B
:101273001224EA9000CDE0FBA3E0FAA3E0F9120503
:10128300DE43CF10900006E0C39402401EE4F0A3B7
:10129300E004F012270C9000CDE0FBA3E0FAA3E0FA
:1012A300F9900060EF1201D7121FC4900007E0C34A
:1012B3009402402CE4F09000CDE0FBA3E0FAA3E01D
:1012C300F912003E9000CDE0FBA3E0FAA3E0F9128F
:1012D30020329000CDE0FBA3E0FAA3E0F912277CD3
:1012E300229000381201656402703A9000361201B0
:1012F30065B4031890003674021201D790003AE4E3
:10130300F5F01202D3900039E41201D7900039129C
:101313000165700302143B90003674031201D790E9
:10132300003802142090003C1201656402703A9068
:101333000036120165B4031890003674021201D707
:1013430090003EE4F5F01202D390003DE41201D781
:1013530090003D120165700302143B900036740344
:101363001201D790003C02142090004012016564E2
:1013730002600302143B900041120165FF704B9021
:101383000036120165B4031890003674021201D7B7
:1013930090003AE4F5F01202D3900039E41201D739
:1013A300900039120165700302143B9000367403F8
:1013B3001201D790004174011201D790003AE4F56D
:1013C300F01202D3900039E4806BEF640170529005
:1013D30000361201656403702090003912016560C4
:1013E3001890003674021201D790003AE4F5F01217
:1013F30002D3900039E41201D790003612016564DC
:10140300027035900039120165602D900041E4129D
:1014130001D790003674031201D790004074038003
:1014230014900041E41201D790003674031201D7DF
:1014330090004074031201D72274681201C5900012
:101443000174021201D79000A9E01470030214E1A1
:101453001470030214EF1470030214FD14700302DA
:10146300150B24046003021522900096E0FF700F11
:1014730090000274071201D7900003747F804CEF31
:10148300C394045016EF14FF74017E00A80708806C
:1014930005C333CE33CED8F9FF80027F009000021C
:1014A300EF1201D7900096E0FFC394044017EF2496
:1014B300FCFF74017E00A807088005C333CE33CE3A
:1014C300D8F9FF80027F00900003EF1201D790004C
:1014D30096E004F0E0D3940A4053E4F0804F900088
:1014E30002E41201D7900003745C803E900002E492
:1014F3001201D7900003747C8030900002E4120143
:10150300D79000037458802290000274071201D709
:10151300900003747F1201D7E4900096F0800E9040
:101523000002E41201D7900003E41201D7900001F6
:10153300120165FF12014C2FFF9000021201652F6B
:10154300FF9000031201652F9000041201D7900051
:101553000574160201D790006CEBF0A3EAF0A3E93F
:10156300F0E4A3F078707C007D017BFF7A28793664
:10157300FE7F0512012690006CE0FBA3E0FAA3E0D6
:10158300F99000101201657003021670900010E4C8
:101593001201D7E92411F9E43AFA78707C007D014D
:1015A3007E007F051201267E007F057D0090006C82
:1015B300E0FBA3E0FAA3E02411F9E43AFA120316DC
:1015C300E4FF74702FF582E43400F583E0FE9000AD
:1015D3006FE02EF00FEFB404E974702FF582E4345A
:1015E30000F583E0FF90006FE06F600302167090D8
:1015F3000072E0FE900071E07C002400FFEC3E905E
:1016030000D0F0A3EFF090006CE0FBA3E0FAA3E0BE
:10161300F990005C12024EFF9000D0E065F0700379
:10162300A3E06F6048900043120165B409237E0074
:101633007F187D00E92444F9E43AFA120316900076
:101643006CE0FBA3E0FAA3E0F9900043740A1201F3
:10165300D79000D0E0FEA3E0FF90006CE0FBA3E096
:10166300FAA3E0F990005CEE8FF01202D32290000F
:101673007E7401F0A37400F0A37418F090008AE064
:10168300248BF582E43400F583EFF090008AE004C4
:10169300F0900089E024F96040146047240260035D
:1016A30002174090008BE064687028A3E0FFB40148
:1016B3000D90008A7402F09000897407F022EFB451
:1016C300680790008A7401F02290008AE064027037
:1016D3006CF022E490008AF0229000887407F0A353
:1016E30004F022900088E0FF90008AE0C39F404D01
:1016F30090007EE0FBA3E0FAA3E0F99000067401FA
:101703001201D77E0090007EE0FBA3E0FAA3E02461
:1017130007F9E43AA801FCAD037B017A00798B1247
:101723000126900088E0FF7E007D007B017A00792E
:101733008B1203169000897406F0E4A3F022900044
:1017430060120165640470030217F39000431201F1
:1017530065640960030217F3900054120165146075
:101763002314603714604B2403706D90005A1201E8
:1017730065C3940A90000E50047408800274071223
:1017830001D7801F90000E74071201D790000F74C9
:10179300051201D790000D7402805290000E74065A
:1017A3001201D790000F74051201D790000D740336
:1017B300803B90005A120165C3940A90000E5004B6
:1017C3007409800274071201D790000F7404120188
:1017D300D790000D7403801590000E74071201D783
:1017E30090000F74051201D790000D74031201D7F6
:1017F300224300CD0100084100AA004100AB004292
:1018030000AC00004100AE004200AF06004100B151
:10181300004100B2064100B3004200B400004100A1
:10182300B6004A00B70000000000000000000041BD
:1018330000C1004200C900004100CB064100CC00BA
:1018430041009600500097000000000000000000D7
:10185300000000000000004100A7004100A8004371
:1018630000C60100084100C2004100C3004100C49A
:10187300004100C50041008106410082004500830C
:1018830000000000004100890641008A004B008BE4
:10189300000000000000000000000000900064E071
:1018A300C41313540330E07B90005274021201D727
:1018B30090000212024EFFAEF0BE021EBFAB1B90A1
:1018C3000006740575F0551202D390000612024EFD
:1018D300FD900008E5F08DF08046BE051EBF551B48
:1018E300900006740275F0AB1202D3900006120248
:1018F3004EFF900008E5F08FF08025900002120261
:101903004EFFAEF090000612024E6F7003E5F06ECC
:10191300703390000812024EFF900006E5F08FF03E
:101923000202D3900052120165B402119000021218
:10193300024EFF900006E5F08FF01202D3900052A2
:1019430074031201D72290007B7401F0A37400F09A
:10195300A37418F0900082E0FE2483F582E434003F
:10196300F583EFF0900081E024F960240470707433
:10197300832EF582E43400F583E0B4680C90008391
:101983007468F09000817407F0E4900082F0804F57
:10199300EEC3940440499000817406F0E4A3F090F0
:1019A300007BE0FBA3E0FAA3E0F974011201C59008
:1019B300007BE0FBA3E0FAA3E02401F9E43AA801E9
:1019C300FCAD037B017A0079837E007F051201263B
:1019D3007E007F057D007B017A00798312031690D8
:1019E3000082E004F0E0C394054002E4F02290009A
:1019F3005412016514601714601414607224036098
:101A030003021A9490005274031201D7807B900052
:101A13004F120165FF9000501201656F6031900015
:101A230050EF1201D790004F120165B402089000E5
:101A33005A740A1201D790005174011201D7900011
:101A43000412024EFF900006E5F08FF00202D390DD
:101A5300004F120165B40210900053120165B402E5
:101A630007900052740280269000527403801F90E6
:101A7300005274031201D7900056120165B4051188
:101A8300900055120165B4050890004F74031201CC
:101A9300D72290005412016514602A146027146041
:101AA3006F24036003021B3690005A120165C3942E
:101AB3000A405690004D74031201D79000537403EB
:101AC3001201D780449000531201656402600990AB
:101AD3000052120165B4020F90005774011201D72E
:101AE30090004D7402801F90005A120165C3940A3E
:101AF3004017900057E41201D7900053740312016A
:101B0300D790004D74031201D790004E74038020C8
:101B130090005A120165C3940A401890004D740353
:101B23001201D790005374031201D790004E740230
:101B33001201D72290006CEBF0A3EAF0A3E9F0E4E2
:101B4300A3F0A3F090006CE0FBA3E0FAA3E0F9900C
:101B530000161201657034900070E004F070069076
:101B6300006FE004F090006FE0FEA3E0FFE4FCFDF3
:101B73007B607AEAF9F8D3120300500A90006F747D
:101B8300EAF0A37460F043CF1080B990006CE0FBDF
:101B9300A3E0FAA3E0F9900042120165FF700690FA
:101BA30000A904F022EFD3945040079000A97402D7
:101BB300F02290006FE0FEA3E0FFE4FCFD7B607A7F
:101BC300EAF9F8C312030070079000A97403F02226
:101BD300E49000A9F022900069EBF0A3EAF0A3E9F6
:101BE300F09000C6E0FBA3E0FAA3E0F99000231213
:101BF3000165605A9000241201656037900024E467
:101C03001201D7900069E0FBA3E0FAA3E0F990008A
:101C1300C4E0F582758300120165F59FE49000C569
:101C2300F09000C4E004F0E0C39D403AE4F090007B
:101C3300C6800D9000C5E004F0E0C394C84027A31C
:101C4300E0FBA3E0FAA3E0F9900023E48015E4901D
:101C530000C4F0A3F0A3E0FBA3E0FAA3E0F9900033
:101C63002474011201D722787FE4F6D8FD75810729
:101C7300021CB1020003E493A3F8E493A34003F628
:101C83008001F208DFF48029E493A3F85407240CBD
:101C9300C8C333C4540F4420C8834004F45680019E
:101CA30046F6DFE4800B0102040810204080901701
:101CB300F4E47E019360BCA3FF543F30E509541F55
:101CC300FEE493A360010ECF54C025E060A840B8A2
:101CD300E493A3FAE493A3F8E493A3C8C582C8CA20
:101CE300C583CAF0A3C8C582C8CAC583CADFE9DEF3
:101CF300E780BE900054E41201D7900048740312A9
:101D030001D790004F74031201D790004974031256
:101D130001D790004D74031201D790004E74031243
:101D230001D790004B74031201D790005074031233
:101D330001D7900051E41201D790005774011201AA
:101D4300D790005874011201D7900059E41201D7BB
:101D530090005A740A1201D790005574051201D7E6
:101D630090005674051201D7900023E41201D79016
:101D7300000CE40201D7900069EBF0A3EAF0A3E9B9
:101D8300F0900069E0FBA3E0FAA3E0F99000601291
:101D9300016564046061122769900069E0FBA3E0B8
:101DA300FAA3E0F990004312016564097049120F28
:101DB300FA900069E0FBA3E0FAA3E0F912085C9053
:101DC3000069E0FBA3E0FAA3E0F9120C8790006935
:101DD300E0FBA3E0FAA3E0F91219F1900069E0FB3C
:101DE300A3E0FAA3E0F9121A95900069E0FBA3E0DF
:101DF300FAA3E0F912035822C0E0C0F0C083C08206
:101E0300C0D075D000C000C001C002C003C004C070
:101E130005C006C007C2CF9000C3E004F0E0FFD3C3
:101E230094014011EF30E00D9000C2E013F03085D3
:101E330004E04480F09000C3E0C394114018E4F040
:101E430043C60243A908C2CA75CBFC75CABE90003B
:101E5300C2E0FF121949D007D006D005D004D00341
:101E6300D002D001D000D0D0D082D083D0F0D0E047
:101E730032900069EBF0A3EAF0A3E9F0900069E087
:101E8300FBA3E0FAA3E0F99000601201656404602B
:101E930050121559900069E0FBA3E0FAA3E0F99012
:101EA3000043120165B40A39E9240CF9E43AFA1241
:101EB300245A900069E0FBA3E0FAA3E02448F9E484
:101EC3003AFA12227A900069E0FBA3E0FAA3E0F960
:101ED3001226A7900069E0FBA3E0FAA3E0F9121829
:101EE3009F2243CF10E4FFFEE490006CF0A3F09038
:101EF300006DE004F0700690006CE004F090006C5C
:101F0300E0B403EBA3E0B4E8E60FBF00010EEF6417
:101F1300C84E70D443CF109000A9E0FF122755E4B8
:101F2300FEFFE490006CF0A3F090006DE004F0700D
:101F33000690006CE004F090006CE0B403EBA3E0C7
:101F4300B4E8E60FBF00010EEF64C84E70D443CF70
:101F53001022900004120165B4011A900006740166
:101F6300120192900006120165C3940A400E90007C
:101F730006740A8004900006E41201D7900003124D
:101F83000165B4011A9000057401120192900005D5
:101F9300120165C39401400E900005740180049002
:101FA3000005E41201D7900007740112019290001A
:101FB30007120165C394784007900007E41201D724
:101FC30022900069EBF0A3EAF0A3E9F0900060121D
:101FD30001656404705843CF109000A8E014602F8B
:101FE30004704B9000A8E004F0900069E0FBA3E0CC
:101FF300FAA3E0F990004074021201D7E4FF12271C
:1020030055900069E0FBA3E0FAA3E0F9021B3790C7
:102013000069E0FBA3E0FAA3E0F990004012016538
:10202300B4030B12000E122682E49000A8F0229053
:1020330000431201656409705E900054120165FF4C
:102043009000B3E06F6007EFF0E4A3F0A3F0EF14A8
:1020530024FD500D24047029E49000B4F0A3F08013
:1020630020900056120165B40517900055120165C2
:10207300B4050E9000B5E004F070069000B4E004DF
:10208300F0C39000B5E094209000B4E0941C4007A6
:10209300900054E41201D722C0E0C0F0C083C08294
:1020A300C0D075D000C000C001C002C003C004C0CE
:1020B30005C006C007E59D30E11E539DFD9000C697
:1020C300E0FBA3E0FAA3E0F990002474011201D726
:1020D30090002274011201D7E59D30E008539DFE64
:1020E300AF9F121671D007D006D005D004D003D00D
:1020F30002D001D000D0D0D082D083D0F0D0E03253
:102103009000CBE06407703E90000612024E45F04B
:10211300701E90000212024E45F070199000C9E043
:10212300701304F0900002E475F0241202D38005CA
:10213300E49000C9F090000612024EFF90000AE5F9
:10214300F08FF00202D390000AE4F5F01202D3906C
:10215300000212024E45F070069000CB7407F02285
:1021630012014C605AE41201C59000011201D7908C
:10217300000A12024EFFAEF090000212024EFDACB6
:10218300F0C39FEC9E5010ED5407FF1221C3900043
:1021930002E475F001802290000A12024EFFD3ED93
:1021A3009FEC95F0401690000212024E5407FF1266
:1021B30021C390000274FFF5F002028612280F2259
:1021C300EFB4080050589021D0F82828730221E872
:1021D3000221EE0221F40221FD02220302220C025B
:1021E3002215022219D2A5C2A4800AD2A5D2A480A4
:1021F30004C2A5D2A4C2A3C2A222C2A5D2A48004AF
:10220300C2A5C2A4D2A3C2A222C2A5C2A4D2A3D2EF
:10221300A222C2A58002D2A5C2A4C2A3D2A22290A6
:10222300003AE475F00112028690003EE475F00175
:1022330012028690003A12024EC39496E5F094007F
:10224300401290003AE475F0961202D3900039746C
:10225300011201D790003E12024EC39420E5F09480
:1022630003401390003E740375F0201202D39000D4
:102273003D74011201D722900064E0C31330E004DF
:102283007402800274031201C5900064E0FCEC1335
:1022930013543F90000130E004740280027403126F
:1022A30001D7EC131313541F90000530E00474029C
:1022B300800274031201D7900064E0C4540F9000AD
:1022C3000630E0047402800274031201D722C0E0D6
:1022D300C0F0C083C082C0D075D000C000C001C0B0
:1022E30002C003C004C005C006C007758CF8758A18
:1022F3006C9000007401F09000C6E0FBA3E0FAA329
:10230300E0F912002ED007D006D005D004D003D0B8
:1023130002D001D000D0D0D082D083D0F0D0E03230
:1023230090000E120165FDB4060BE49000B6F09028
:102333000014E0802AED6408600A90000E12016523
:102343006409701F9000B6E004F0E0C394044002F7
:10235300E4F09000B6E0C39402900014E0500D4402
:1023630004F022E49000B6F0900014E054FBF02255
:1023730090003674031201D790003874031201D70A
:1023830090003C74031201D790004074031201D7EC
:10239300900037E41201D790003AE4F5F01202D32B
:1023A300900039E41201D790003EE4F5F01202D315
:1023B30090003DE41201D7900041E40201D7900060
:1023C30069EBF0A3EAF0A3E9F0900069E0FBA3E076
:1023D300FAA3E0F99000601201656404602D1227EE
:1023E300B2900069E0FBA3E0FAA3E0F91227C190E1
:1023F3000069E0FBA3E0FAA3E0F91227D09000699B
:10240300E0FBA3E0FAA3E0F91227DF22900069EBD7
:10241300F0A3EAF0A3E9F07E007F0C7D0090006951
:10242300E0FBA3E0FAA3E0F9120316900069E0FBD6
:10243300A3E0FAA3E0F9900008740275F0AB12026E
:10244300D3900004740575F0551202D39000027402
:102453000575F0DC0202D3900064E0FEA3E0FF9078
:10246300000130E0047402800274031201D7EEC34A
:1024730013EF1390000330E0047404800274051218
:1024830001D7900064E0FEA3E07802CEC313CE131D
:10249300D8F990000230E004740680027407120138
:1024A300D72290006EEBF0A3EAF0A3E9F0E4FFEF8C
:1024B300C39D503290006EE0FBA3E0FAA3E0F98FD6
:1024C30082758300120165F59F9000C6E0FBA3E0CF
:1024D300FAA3E0F990002212016560ED900022E476
:1024E3001201D70F80C922900069EBF0A3EAF0A391
:1024F300E9F0900069E0FBA3E0FAA3E0F990006043
:102503001201656404601F122323900069E0FBA39A
:10251300E0FAA3E0F9122729900069E0FBA3E0FAAF
:10252300A3E0F912273F22900069EBF0A3EAF0A39E
:10253300E9F0900069E0FBA3E0FAA3E0F990006002
:102543001201656404601F122103900069E0FBA37C
:10255300E0FAA3E0F9122163900069E0FBA3E0FA3B
:10256300A3E0F91225D5229000CDE0FBA3E0FAA366
:10257300E0F91223739000CDE0FBA3E0FAA3E0F9A6
:10258300121CF69000CDE0FBA3E0FAA3E0F91228B9
:10259300189000CDE0FBA3E0FAA3E0F902240F902A
:1025A3000069EBF0A3EAF0A3E9F090005212016591
:1025B300B402109000CCE004F0E0D394024012E4A3
:1025C300F08000900069E0FBA3E0FAA3E0F9122693
:1025D300CC22900054120165FF64016004EFB40241
:1025E3002390004D120165B4021A90000212024EAC
:1025F300FFAEF0D394ABEE94024009900004EE8F4B
:10260300F01202D3229000CDE0FBA3E0FAA3E0F99D
:1026130090003874021201D790004374091201D755
:102623007E007F087D007B017A0079000203164358
:102633008E05438901758CF8758A6CC28CD2A9D238
:102643008C75CBFC75CABEC2CAD2ADD2CAD2BD4349
:10265300FEC143FF8243CF102212014C6402701566
:1026630090000104120192900001120165D39401BC
:102673005003C29522900001E41201D7C29522D2E1
:10268300A2121EE5C2A2D2A3121EE5C2A3D2A412B5
:102693001EE5C2A4D2A5121EE5C2A5121EE5121E96
:1026A300E5021EE5900064E030E01490000612029B
:1026B3004E45F07013900006740575F05580069032
:1026C3000006E4F5F01202D3229000017401120116
:1026D30092900001120165C39404400D90000174AF
:1026E300041201D774011201C522759A9F759B606C
:1026F3007591E175921075A1FC75A203E4F5C77598
:10270300C60243A90843B908222094129000A7E007
:1027130004F0E0D39402400B1227A17F0422E4903B
:1027230000A7F07F052290000D120165900014B4FC
:102733000205E04401F022E054FEF02290000F1263
:102743000165900014B40405E04402F022E054FD56
:10275300F022EF70107B017A00799712143C7D060A
:102763007C0012282122900016120165600A900055
:1027730016E41201D7120A7722900042120165C3B0
:1027830094504007900054E41201D722438FC07540
:102793009D50759E8275950643A901D2AF22C2A6AC
:1027A300C280C297C296C2A5C2A4C2A3C2A22290EB
:1027B3000048120165B40203D28022C28022900035
:1027C30049120165B40203D29622C2962290004DAB
:1027D300120165B40203D2A622C2A62290004E12B1
:1027E3000165B40203D29722C2972253A9F775C693
:1027F30000D2CA75CBFC75CABE3212256A122608EE
:102803000200381226ED12263202278FC2A5C2A477
:10281300C2A3C2A22290005CE4F5F00202D3022418
:10282300A500000000000000000000000000000000
:0828330000000000000000009D
:00000001FF
