:100000000229721235AC121A6A80FB023017209452
:100010001290016DE004F0E0D39401400B1234FF24
:100020007F0422E490016DF07F0522022AF9E92481
:100030003FF9E43AFA0234620235B5022DF4900039
:100040004C120921B4090AE9245DF9E43AFA122BA9
:02005000E322A9
:1000530002359D90013CEBF0A3EAF0A3E9F0E4A3A1
:10006300F0A3F090013CE0FBA3E0FAA3E0F99000D9
:1000730069120921640470030204D1900018120963
:100083002124F36014146018240E7023900187E078
:10009300F09001407464F08016E4900187F0800FC3
:1000A300E4900187F090004B120921900140F090F9
:1000B3000187E06003020288A37468F090013CE0CA
:1000C300FBA3E0FAA3E0F9900067120A3EFFAEF04B
:1000D3004E70030202479001897402F090001412DB
:1000E300092190018AF0900193E0C3940240030236
:1000F3000232EF30E0057F000201AC90013CE0FBEF
:10010300A3E0FAA3E0F9900067120A3EFF30E1058D
:100113007F010201ACEF30E2057F020201AC9000E7
:1001230067120A3EFF30E3047F03807DEF30E4046F
:100133007F048075900067120A3EFF30E5047F0557
:100143008067EF30E6047F06805F900067120A3E07
:10015300AEF030E7047F078050EE30E0047F088084
:1001630048900067120A3EAEF0EE30E1047F09804A
:1001730038EE30E2047F0A8030900067120A3EAE08
:10018300F0EE30E3047F0B8020EE30E4047F0C803C
:1001930018900067120A3EAEF0EE30E5047F0D8042
:1001A30008EE7F0F30E6027F0EEF70047F3F80780A
:1001B300EFB401047F068070EFB402047F5B8068B4
:1001C300EFB403047F4F8060EFB404047F6680586C
:1001D300EFB405047F6D8050EFB406047F7D804843
:1001E300EFB407047F078040EFB408047F7F8038B3
:1001F300EFB409047F6F8030EFB40A047F7780285F
:10020300EFB40B047F7C8020EFB40C047F3980189B
:10021300EFB40D047F5E8010EFB40E047F79800885
:10022300EF7F00B40F027F7190018BEFF08005E444
:1002330090018BF0900193E004F0E0C3940440221A
:10024300E4F0801E9001897401F090013CE0FBA36F
:10025300E0FAA3E0F990001412092190018AF0E476
:10026300A3F0900189E0FF900188E02FFF90018ABD
:10027300E02FFFA3E02FA3F0A37416F090013F74C7
:1002830006F00204889001887458F0A304F0A37464
:1002930007F0A3740AF0900192E090018CF0A3742C
:1002A30020F0900140E0FFD39463400E90018E74E0
:1002B30040F0A3F0E4A3F002046EEF75F00A84FFAC
:1002C30070057F3F020377BF01057F060203779026
:1002D3000140E075F00A84FFBF02057F5B020377EC
:1002E300BF03057F4F020377900140E075F00A8456
:1002F300FFBF04047F66807CBF05047F6D8075901B
:100303000140E075F00A84FFBF06047F7D8065BF6E
:1003130007047F07805E900140E075F00A84FFBF09
:1003230008047F7F804EBF09047F6F8047900140A0
:10033300E075F00A84FFBF0A047F778037BF0B04A0
:100343007F7C8030900140E075F00A84FFBF0C048D
:100353007F398020BF0D047F5E8019900140E075D6
:10036300F00A84FFBF0E047F798009BF0F047F71F9
:1003730080027F009000E6E0FE7D0030E0027D8099
:10038300ED4F90018EF0900140E075F00A84AFF0DC
:10039300EF70057F3F020450BF01057F0602045042
:1003A300900140E075F00A84AFF0BF02057F5B0265
:1003B3000450BF03057F4F020450900140E075F0E5
:1003C3000A84AFF0BF04057F66020450BF05047FB3
:1003D3006D807A900140E075F00A84AFF0BF0604A7
:1003E3007F7D8069BF07047F078062900140E075CD
:1003F300F00A84AFF0BF08047F7F8051BF09047FF8
:100403006F804A900140E075F00A84AFF0BF0A04A0
:100413007F778039BF0B047F7C8032900140E07589
:10042300F00A84AFF0BF0C047F398021BF0D047F35
:100433005E801A900140E075F00A84AFF0BF0E04AD
:100443007F798009BF0F047F7180027F00EE7E00F9
:1004530030E1027E80EE4F90018FF09000E6E07F66
:100463000030E2027F80900190EFF07B017A017906
:10047300887D09123334900191EFF0A3E004F090EA
:10048300013F740AF090013FE0FF90013CE0FBA3C1
:10049300E0FAA3E0F990002EEF1209B57E00900177
:1004A3003CE0FBA3E0FAA3E0242FF9E43AA801FC23
:1004B300AD037B017A0179881208E290013CE0FBED
:1004C300A3E0FAA3E0F990002C74011209B522907D
:1004D300013FEBF0A3EAF0A3E9F078447C017D014E
:1004E3007BFF7A3579D97E007F081208E2784C7C4D
:1004F300017D017BFF7A3579E17E007F031208E2FB
:1005030090013FE0FBA3E0FAA3E0F990000E120A8A
:100513003EFF900144E5F0F0A3EFF0900004120ACF
:100523003EFF900146E5F0F0A3EFF090000A120AB7
:100533003EFF900148E5F0F0A3EFF0900002120AAD
:100543003EFF90014AE5F0F0A3EFF0900056120948
:100553002190014CF090005712092190014DF09029
:10056300005212092190014EF0E4900142F0A3F0F1
:10057300900144E0FEA3E0FF4E6022C3EF94ABEE94
:10058300940250047F048017D3900145E094559062
:100593000144E094057F0540027F0480027F05BF8C
:1005A300041E90013FE0FBA3E0FAA3E0F990000EE4
:1005B300E4F5F0120AC3900142E0F0A3E04401F035
:1005C300900146E0FEA3E0FF4E600EEF7003EE6481
:1005D300047F0560027F0480027F05BF041E900133
:1005E3003FE0FBA3E0FAA3E0F9900004E4F5F01286
:1005F3000AC3900142E0F0A3E04402F0900144E01A
:10060300FEA3E0FF4E600EA3E07002A3E07D056051
:10061300027D0480027D05BD041E90013FE0FBA323
:10062300E0FAA3E0F9900004E4F5F0120AC39001A4
:1006330042E0F0A3E04404F0EF4E60047F0580192C
:10064300900146E07002A3E060047F05800B9001F7
:100653004CE07F05B402027F04BF041D90013FE01C
:10066300FBA3E0FAA3E0F990005674031209B590D6
:100673000142E0F0A3E04408F090014CE064027012
:10068300589000DCE0FEA3E0FF9000E0E0FCA3E074
:10069300FDD39FEC9E4015ED9FFFEC9EFED3EF94A0
:1006A3000AEE94007F0540027F0480229000E0E080
:1006B300FEA3E0FFC39000DDE09FFF9000DCE09E1F
:1006C300FED3EF940AEE94007F0540027F04BF043B
:1006D300047F0480067F0580027F05EF6404705D5C
:1006E30090013FE0FBA3E0FAA3E0F990000A120AAD
:1006F3003EFFAEF04E602BC3EF94ABEE940250047A
:100703007F05801390000A120A3ED39455E5F094B6
:10071300057F0440027F05BF050890005B74031248
:1007230009B590005B120921B403129000567403BB
:100733001209B5900142E0F0A3E04410F090014C9F
:10074300E0640270569000D4E0FEA3E0FFA3E0FC57
:10075300A3E0FDD39FEC9E4015ED9FFFEC9EFED3DF
:10076300EF940AEE94007F0540027F0480229000FC
:10077300D6E0FEA3E0FFC39000D5E09FFF9000D436
:10078300E09EFED3EF940AEE94007F0540027F04BF
:10079300BF04047F0480067F0580027F05BF041D1C
:1007A30090013FE0FBA3E0FAA3E0F9900056740345
:1007B3001209B5900142E0F0A3E04420F090014C0F
:1007C300E0B4030D90014EE07F05B402027F048084
:1007D300027F05BF041D90013FE0FBA3E0FAA3E005
:1007E300F990005274031209B5900142E0F0A3E0BE
:1007F3004440F0900142E0FEA3E0FF90013FE0FBA4
:10080300A3E0FAA3E0F9900067EE8FF0020AC3E7D2
:1008130009F608DFFA8046E709F208DFFA803E8826
:10082300828C83E709F0A3DFFA8032E309F608DF5D
:10083300FA8078E309F208DFFA807088828C83E318
:1008430009F0A3DFFA806489828A83E0A3F608DFD4
:10085300FA805889828A83E0A3F208DFFA804C8009
:10086300D280FA80C680D4806980F2803380108081
:10087300A680EA809A80A880DA80E280CA803389E1
:10088300828A83ECFAE493A3C8C582C8CCC583CC1F
:10089300F0A3C8C582C8CCC583CCDFE9DEE7800DF1
:1008A30089828A83E493A3F608DFF9ECFAA9F0EDD1
:1008B300FB2289828A83ECFAE0A3C8C582C8CCC52F
:1008C30083CCF0A3C8C582C8CCC583CCDFEADEE8FD
:1008D30080DB89828A83E493A3F208DFF980CC88E2
:1008E300F0EF60010E4E60C388F0ED2402B4040003
:1008F30050B9F582EB2402B4040050AF23234582A0
:100903002390086273BB010689828A83E022500226
:10091300E722BBFE02E32289828A83E49322BB019E
:100923000CE58229F582E5833AF583E0225006E956
:100933002582F8E622BBFE06E92582F8E222E5825B
:1009430029F582E5833AF583E49322BB0109898281
:100953008A83F8E028F022500327F722BBFE05F82C
:10096300E328F3228A838982F8E4932822BB010FC8
:10097300F8E58229F582E5833AF583E028F02250F1
:1009830009C58229F8E58226F622BBFE09C582291C
:10099300F8E22582F222F8EA2583F583E9932822F7
:1009A300BB010689828A83F0225002F722BBFE0133
:1009B300F322F8BB010DE58229F582E5833AF5833D
:1009C300E8F0225006E92582C8F622BBFE05E92598
:1009D30082C8F222EF8DF0A4A8F0CF8CF0A428CE29
:1009E3008DF0A42EFE22BC000BBE0029EF8DF084F7
:1009F300FFADF022E4CCF875F008EF2FFFEE33FEE5
:100A0300EC33FCEE9DEC984005FCEE9DFE0FD5F01B
:100A1300E9E4CEFD22EDF8F5F0EE8420D21CFEAD24
:100A2300F075F008EF2FFFED33FD4007985006D522
:100A3300F0F222C398FD0FD5F0EA22BB0110E58244
:100A430029F582E5833AF583E0F5F0A3E022500926
:100A5300E92582F886F008E622BBFE0AE92582F83A
:100A6300E2F5F008E222E5832AF583E993F5F0A3A2
:100A7300E99322BB010DC58229C582C5833AC5838B
:100A8300020B325011C58229F808E5F026F618F555
:100A9300F0E58236F622BBFE11C58229F808E2256D
:100AA300F0F5F0F218E23582F222F8E58229F582B8
:100AB300E5832AF58374019325F0F5F0E493382256
:100AC300F8BB0111E58229F582E5833AF583E8F065
:100AD300E5F0A3F0225009E92582C8F608A6F02222
:100AE300BBFE09E92582C8F2E5F008F222EB9FF587
:100AF300F0EA9E42F0E99D42F0EC6480C86480987D
:100B030045F022EF4E6012EF60010EEDBB010B8941
:100B1300828A83F0A3DFFCDEFA2289F05007F7090B
:100B2300DFFCA9F022BBFEFCF309DFFCA9F022C520
:100B3300F0F8A3E028F0C5F0F8E5821582700215FD
:100B430083E038F02290013FEBF0A3EAF0A3E9F051
:100B5300245DF9E43AFA12176990013FE0FBA3E040
:100B6300FAA3E0F990005D12092114603E14606D50
:100B7300147003020CF824036003020D299000553E
:100B8300120921B40407900063E41209B5900052DE
:100B930074031209B5900060E41209B5900062E491
:100BA3001209B590004E7408020D2690013FE0FB38
:100BB300A3E0FAA3E0F9900055120921B4040790C9
:100BC3000063E41209B590005274031209B5900052
:100BD30060E41209B59000627401020D2690013F92
:100BE300E0FBA3E0FAA3E0F9900063120921C394A8
:100BF3000A405190005C120921B4022A9000541259
:100C03000921B4020E900060E41209B5900062E479
:100C13001209B590013FE0FBA3E0FAA3E0F99000CD
:100C2300547403020CBC90013FE0FBA3E0FAA3E081
:100C3300F990000C120A3EFF90000EE5F08FF012BF
:100C43000AC3807890017DE06408707090013FE0F2
:100C5300FBA3E0FAA3E0F9900054120921640270A7
:100C63005B900180E0FF90017FE0FEC39F400DEEAB
:100C73009FC3940A7F0450027F058015EE2478FFFA
:100C8300900180E0FEC3EF9EC3940A7F0450027F6D
:100C930005BF052890006074011209B590005474D3
:100CA300031209B5900063740A1209B590006274C7
:100CB300011209B590005C74021209B590013FE07E
:100CC300FBA3E0FAA3E0F9900062120921C39401A7
:100CD30040549000541209216403704A90005C123E
:100CE30009216402704090005274021209B5900009
:100CF30063740A802E90013FE0FBA3E0FAA3E0F9BE
:100D0300900055120921B40407900063E41209B559
:100D130090005274031209B5900060E41209B59073
:100D23000062E41209B590013FE0FBA3E0FAA3E0FF
:100D3300F9900052120921FF900053120921FE6F0E
:100D43006037EFB4021890017EE0700A90006412DD
:100D53000921900181F090017E7401F08005E490F7
:100D6300017EF090013FE0FBA3E0FAA3E0F99000DD
:100D730052120921900053805BEE64027046900189
:100D83003FE0FBA3E0FAA3E0F9900064120921FF1E
:100D9300900181E0FEEFC39E400DEF9EC394007F60
:100DA3000450027F0580139000641209212478C344
:100DB3009EC394007F0450027F05BF041A90005520
:100DC3007404801090013FE0FBA3E0FAA3E0F990E4
:100DD300005574051209B52290005D1209211460B3
:100DE3003D14603A147003020FAF24036003020F33
:100DF300EF900063120921C3940A401290000EE49D
:100E0300F5F0120AC3900004E4F5F0020FCB900052
:100E13005812092164026003020FEF020FDE9000F3
:100E230063740A1209B590005A120921702F9001B8
:100E3300827406F090005A74011209B590000E7482
:100E43000475F000120AC390000C740475F00012CC
:100E53000AC3900010740275F0AB020FEC900058B7
:100E630012092164026003020F5B900182E024F9FE
:100E7300604614607E24026003020F6C90000C1223
:100E83000A3EFF90000EE5F08FF0120AC390000AAD
:100E9300120A3EFFAEF090000E120A3E6F7003E599
:100EA300F06E6003020F6C90005C74021209B5903F
:100EB30001827407F0020F6C90005C74021209B592
:100EC300900010120A3EFF90000EE5F08FF0120A18
:100ED300C390000A120A3EFFAEF090000E120A3EC3
:100EE3006F7003E5F06E6003020F6C90018274086B
:100EF300F0807690005C74021209B590000A120A21
:100F03003EFFAEF0BE0518BF551590000E74027576
:100F1300F0AB120AC3900010740275F0AB8047BEA9
:100F23000218BFAB1590000E740575F055120AC375
:100F3300900010740575F055802C90000E120A3E37
:100F43006F7003E5F06E7021900010120A3EFF905F
:100F5300000EE5F08FF0800E90000C120A3EFF9019
:100F6300000EE5F08FF0120AC3900004E4F5F012CE
:100F73000AC39000DCE0FEA3E0FF9000E0E06E70A7
:100F830003A3E06F60047F0580169000D4E0FEA306
:100F9300E0FFA3E06E7003A3E06F7F0460027F05B0
:100FA300EF6404704790005C740280239000631226
:100FB3000921C3940A401B90000EE4F5F0120AC302
:100FC300900004740475F000120AC390005AE402FE
:100FD30009B5900058120921B4021190000C120AAD
:100FE3003EFF90000EE5F08FF0120AC322900142FB
:100FF300EBF0A3EAF0A3E9F0E4A3F078467C017DEB
:10100300017BFF7A3579E4FE7F0B1208E2900142FF
:10101300E0FBA3E0FAA3E02420F9E43AFA78467C63
:10102300017D017E007F0B1208E27E007F0B7D00B5
:10103300900142E0FBA3E0FAA3E02420F9E43AFAAA
:10104300120B06E4FF74462FF582E43401F583E0C6
:10105300FE900145E02EF00FEFB405E974462FF53D
:1010630082E43401F583E0FF900145E06F60030201
:1010730011F7900149E0FE900148E07C002400FF55
:10108300EC3EFE900142E0FBA3E0FAA3E0F99000FE
:101093004FEE8FF0120AC390004F120A3EFFAEF0DC
:1010A30030E013900142E0FBA3E0FAA3E0F99000E3
:1010B3004D7401021198EEC313EF1330E013900146
:1010C30042E0FBA3E0FAA3E0F990004D74020211A1
:1010D30098900142E0FBA3E0FAA3E0F990004F12DD
:1010E3000A3EFDACF0AE047802CEC313CE13D8F99A
:1010F30030E00890004D7403021198EDAE047803BC
:10110300CEC313CE13D8F930E00890004D74040217
:10111300119890004F120A3EFDACF0ECC4F854F065
:10112300C8EDC4540F4830E00790004D7405806546
:10113300EDAE047805CEC313CE13D8F930E0079093
:10114300004D7406804F90004F120A3EFDACF0AE86
:10115300047806CEC313CE13D8F930E00790004DC0
:1011630074078031EDAE047807CEC313CE13D8F9DC
:1011730030E00790004D7408801B90004F120A3E28
:10118300E5F030E013900142E0FBA3E0FAA3E0F9BD
:1011930090004D74091209B5900142E0FBA3E0FAF7
:1011A300A3E0F990004D120921603290004C12091E
:1011B30021B40A297E007F027D00E92465F9E43A1F
:1011C300FA120B0690014212284F900142E0FBA352
:1011D300E0FAA3E0F990004C74091209B590014AB2
:1011E300E0FF900142E0FBA3E0FAA3E0F990004B9B
:1011F300EF1209B522900141EBF0A3EAF0A3E9F065
:10120300900141E0FBA3E0FAA3E0F974581209A3AB
:10121300900141E0FBA3E0FAA3E0F99000017459C7
:101223001209B590000274071209B5900003740AFD
:101233001209B5900159E09000041209B590000518
:1012430074201209B590016FE0FF7003021326901A
:101253000141E0FBA3E0FAA3E0F9900006747912E0
:1012630009B5EF70057F3F02131590016FE0FFB4DE
:1012730001077E067F06021315EFB402057F5B02AA
:10128300131590016FE0FFB403077E4F7F4F0213E6
:1012930015EFB404047F66807990016FE0FFB40515
:1012A300067E6D7F6D806BEFB406047F7D80639057
:1012B300016FE0FFB407067E077F078055EFB40890
:1012C300047F7F804D90016FE0FFB409067E6F7F3E
:1012D3006F803FEFB40A047F77803790016FE0FFA0
:1012E300B40B067E7C7F7C8029EFB40C047F3980AD
:1012F3002190016FE0FFB40D067E5E7F5E8013EFE9
:10130300B40E047F79800B90016FE07F00B40F026D
:101313007F71900007EF1209B5900008E41209B538
:101323000213D1900158E0FF7022900141E0FBA32A
:10133300E0FAA3E0F990000674FF1209B5900007E4
:1013430074FF1209B590000874808071EFC3940490
:10135300503BEF7F00B401027F80900141E0FBA38B
:10136300E0FAA3E0F9900006EF1209B5900158E006
:10137300FF7E00B402027E80900007EE1209B5EFF3
:101383007F00B403027F80900008EF803090015803
:10139300E024FCFF7401A807088002C333D8FCFFD4
:1013A300900141E0FBA3E0FAA3E0F9900006EF12FD
:1013B30009B5900007EF1209B5900008E41209B5CA
:1013C300900158E004F0E0D3940A4002E4F0900165
:1013D30041E0FBA3E0FAA3E0F97D09123334900165
:1013E30041E0FBA3E0FAA3E0F9900009EF1209B58D
:1013F300900159E004F022E4900145F0120908FF3E
:10140300900146E4F0A3EFF0E0F8E4F0E890014641
:10141300F0900001120921FF900147E02FF09001A5
:1014230046E03400F0900145E025E02402F582E433
:101433003400F583E0FEA3E0FFC3900147E09F90F3
:101443000146E09E50037F0022900145E004F060D6
:101453001EE025E02402F582E43400F583E0FEA3D8
:10146300E0FFC3900147E09F900146E09E50DA9071
:101473000145E0FBC3946440030215C7E0FA25E08D
:101483002400F582E43400F583E0FEA3E0FFC3907B
:101493000147E09FF0900146E09EF0E0FEA3E0FFED
:1014A3007C007D0A1209D7900146EEF0A3EFF0907D
:1014B3000146E0FEA3E0FFEA25E02400F582E434E0
:1014C30000F583E0FCA3E0FDEB25E02402F582E4D4
:1014D3003400F583E0FAA3E0C39DFDEA9CFC120906
:1014E300E9900146EEF0A3EFF0900145E024FFFF01
:1014F300E434FFFE7C007D0A1209D7900147E02FF8
:10150300F0900146E03EF0E0FEA3E0FF900000E033
:10151300FCA3E0FDC39FEC9E501CC3900147E09DDC
:10152300FF900146E09CFED3EF9405EE94007F0507
:1015330040027F048022900146E0FEA3E0FFC390B7
:101543000001E09FFF900000E09EFED3EF9405EEC4
:1015530094007F0540027F04BF040F900146E0FF23
:10156300A3E0900000CFF0A3EFF0900000E0FEA313
:10157300E0FF900146EEF0A3EFF07C007D0A120934
:10158300E9D3ED9404EC94007F0540027F04BF048B
:101593000E900147E0240AF0900146E03400F0D3B6
:1015A300900147E094E7900146E0940340077403F9
:1015B300F0A374E7F0900146E0FEA3E0FF7C007D1A
:1015C3000A0209E97F63224301BB0100D24101788A
:1015D300004101790042017A000041017C0042018F
:1015E3007D060041017F00410180004101810041EE
:1015F300018206410183004201840000410186000B
:10160300410187004A01880000000000000000003B
:101613000041019200410193004701940000000042
:101623000000004201B700004101B9064101BA00C0
:1016330041015700410158004101590050015A002E
:101643000000000000000000000000000000004354
:10165300016A0100EA41016D0041016E0060C800AA
:101663000203FE042004440468048C04B004D5047B
:10167300FB05200546056D059405BB05E2060A0634
:10168300310659068106A906D106F907210749073C
:1016930071079907C007E8080F0836085C08830834
:1016A300A908CF08F40919093E0962098609A9099D
:1016B300CC09EF0A110A320A530A730A930AB30ACE
:1016C300D20AF00B0E0B2B0B480B640B800B9B0BFE
:1016D300B50BCF0BE90C020C1A0C320C490C610C44
:1016E300770C8D0CA20CB70CCB0CDF0CF20D060D96
:1016F300180D2A0D3C0D4D0D5E0D6E0D7E0D8E0DDC
:101703009D0DAC0DBB0DC90DD60DE40DF10DFE0EF7
:101713000A0E160E220E2E0E390E440E4E0E590EC2
:10172300630E6D0E760E800E894301B40100D24123
:1017330001B0004101B1004101B2004101B30041D8
:10174300019B0641019C0045019D000000000041F2
:1017530001A3064101A4004B01A500000000000005
:10176300000000000000900142EBF0A3EAF0A3E9BF
:10177300F0900002120921FF64046018900142E016
:10178300FBA3E0FAA3E0F9900001120921640460CD
:10179300030218EAEFB4041B90017CE0640B600BB6
:1017A300E4900178F090017AF0A3F090017C740B3F
:1017B300F0801990017CE0640C600BE4900178F0F8
:1017C30090017AF0A3F090017C740CF0900142E058
:1017D300FBA3E0FAA3E0F9900002120921B4042B61
:1017E30090017AE0FEA3E0FF7C037D841209E9C344
:1017F300ED944EEC940250047402803E900142E05A
:10180300FBA3E0FAA3E0F97403802F90017AE0FED2
:10181300A3E0FF7C037D841209E9C3ED9458EC94A3
:1018230002900142E0FB500AA3E0FAA3E0F974013D
:101833008008A3E0FAA3E0F974031209A3900178E6
:10184300E0701704F0900142E0FBA3E0FAA3E0F993
:10185300900007120921900179F0900142E0FBA367
:10186300E0FAA3E0F9900007120921FF900179E063
:10187300FEEFC39E400DEF9EC394017F0450027F91
:101883000580139000071209212478C39EC3940195
:101893007F0450027F05EF64047051900007120922
:1018A30021900179F090017BE004F0700690017AB9
:1018B300E004F0C390017BE0941090017AE0940E71
:1018C300402AE41209A3900142E0FBA3E0FAA3E05B
:1018D300F9900002120921B40405900002800390DC
:1018E300000174050209B5E490017CF02290004DDB
:1018F30012092114B409004003021A6390190D75EB
:10190300F003A4C58325F0C58373021A4602194860
:1019130002196C02198F021A13021A630219BA020E
:1019230019280219E390004E1209216408603790C8
:10193300004E74081209B590004174021209B59063
:10194300005DE4806690004E1209216402601790E6
:10195300004E74021209B590004174021209B59049
:10196300005D74018045021A0C90004E1209216437
:1019730003601790004E74031209B590004174027E
:101983001209B590005D74038021807D90004E1292
:1019930009216404601F90004E74041209B590007D
:1019A3004174021209B590005D74021209B59000EA
:1019B3005F7405804A805290004E120921640760CB
:1019C3001D90004E74071209B5900041740212096C
:1019D300B590005E74041209B590005F80278029DA
:1019E30090004E1209216409601F90004E74091281
:1019F30009B590004174021209B590005F74041296
:101A030009B590005E740580549000497402804DBE
:101A130090005D120921FF64016005EF6402701CF0
:101A230090004174021209B59000581209219000E8
:101A330058B4030474028025740380219000497410
:101A430002801A90004174021209B59000511209E4
:101A530021900051B403047402800274031209B587
:101A630090004DE40209B59000CAE06006E4F0A3DB
:101A7300E004F09000CBE0C39408405BE4F0A3E003
:101A830004F09001BBE0FBA3E0FAA3E0F9122F12EC
:101A93009001BBE0FBA3E0FAA3E0F912327B9001D3
:101AA300BBE0FBA3E0FAA3E0F91231569001BBE0DF
:101AB300FBA3E0FAA3E0242FF9E43AFAC002C00141
:101AC3009001BBA3E0FAA3E0F990002E120921FDD7
:101AD300D001D0021228E19000CCE0C3940A402246
:101AE300E4F0A3E004F09001BBE0FBA3E0FAA3E081
:101AF300F91229FE9001BBE0FBA3E0FAA3E0F9127F
:101B03002B729000CDE0C394054018E4F0A3E004E9
:101B1300F0A3E004F09001BBE0FBA3E0FAA3E0F93B
:101B2300121BD89000CEE0C394024010E4F0900161
:101B3300BBE0FBA3E0FAA3E0F91224509000CFE04E
:101B4300C394054033E4F0A3E004F09001BBE0FB51
:101B5300A3E0FAA3E0F91232BB9001BBE0FBA3E0E0
:101B6300FAA3E0F912323B9001BBE0FBA3E0FAA336
:101B7300E0F912005643CF109000D0E0C394024026
:101B83001EE4F0A3E004F012000E9001BBE0FBA3FF
:101B9300E0FAA3E0F9900069EF1209B5122A8090E8
:101BA30000D1E0C39402402CE4F09001BBE0FBA31E
:101BB300E0FAA3E0F912003E9001BBE0FBA3E0FAD8
:101BC300A3E0F9122CC09001BBE0FBA3E0FAA3E071
:101BD300F912355A229000411209216402703A9099
:101BE300003F120921B4031890003F74021209B593
:101BF300900043E4F5F0120AC3900042E41209B5E1
:101C03009000421209217003021D2F90003F7403BC
:101C13001209B5900041021D149000451209216478
:101C230002703A90003F120921B4031890003F74E8
:101C3300021209B5900047E4F5F0120AC39000467A
:101C4300E41209B59000461209217003021D2F907A
:101C5300003F74031209B5900045021D149000491A
:101C630012092164026003021D2F90004A12092108
:101C7300FF704B90003F120921B4031890003F748A
:101C8300021209B5900043E4F5F0120AC390004232
:101C9300E41209B59000421209217003021D2F902E
:101CA300003F74031209B590004A74011209B590FC
:101CB3000043E4F5F0120AC3900042E4806BEF6442
:101CC30001705290003F120921640370209000427A
:101CD300120921601890003F74021209B590004365
:101CE300E4F5F0120AC3900042E41209B590003FF4
:101CF30012092164027035900042120921602D906F
:101D0300004AE41209B590003F74031209B590002C
:101D1300497403801490004AE41209B590003F749B
:101D2300031209B590004974031209B522900142C8
:101D3300EBF0A3EAF0A3E9F0900142E0FBA3E0FAA1
:101D4300A3E0F9900022120921900170F090002382
:101D5300120921900171F09000241209219001725F
:101D6300F0900025120921900173F0E92426F9E48B
:101D73003AFAA3EBF0A3EAF0A3E9F0900170E024B0
:101D830022FFE433FE900142A3E0FAA3E0F98F823D
:101D93008E83120921900177F0E92420F9E43AFABD
:101DA300900170E02402FD123334900177E06F60FC
:101DB30003021E51900173E024EF6072046003027A
:101DC3001E517B017A0179701233A5900174E0FBF7
:101DD300A3E0FAA3E0F9122382900142E0FBA3E01F
:101DE300FAA3E0F990004DEF1209B590004D1209E6
:101DF30021605B900142E0FBA3E0FAA3E0F99000CD
:101E03004C120921640A7046FE7F02FDE92465F93C
:101E1300E43AFA120B0690014212284F900142E075
:101E2300FBA3E0FAA3E0F990004C7409801D900134
:101E330074E0FBA3E0FAA3E0F91213FA900142E085
:101E4300FBA3E0FAA3E0F990004BEF1209B5900170
:101E530070E02403FFE433FE7D00900142E0FBA326
:101E6300E0FAA3E02420F9E43AFA020B06900154C5
:101E73007401F0A37400F0A374EAF09001A4E024C9
:101E8300A5F582E43401F583EFF09001A4E004F0BA
:101E93009001A3E024F9607B147003021F4724021E
:101EA3006003021FA19001A5E0FF64687028A3E00E
:101EB300FEB4010F900154E0FBA3E0FAA3E0F97430
:101EC3000D802DEEB46802803B9001A4E0640260B3
:101ED30003021FA1F022EF645870329001A6E0FFC5
:101EE300B4591D900154E0FBA3E0FAA3E0F9740E8A
:101EF3001209A39001A47402F09001A37407F022C5
:101F0300EFB458079001A47401F0228000E490011B
:101F1300A4F022900154E0FBA3E0FAA3E0F9120934
:101F230008FFB40D0A9001A27407F0A304F022EF96
:101F3300B40E0F9001A7E024039001A2F0A374084C
:101F4300F02280519001A2E0FF9001A4E0C39F40E2
:101F53004D900154E0FBA3E0FAA3E0F9900007746D
:101F6300011209B57E00900154E0FBA3E0FAA3E05F
:101F73002408F9E43AA801FCAD037B017A0179A5B1
:101F83001208E29001A2E0FF7E007D007B017A014E
:101F930079A5120B069001A37406F0E4A3F0227B4B
:101FA300017A01795A74681209A39000017402122C
:101FB30009B590016FE014700302204D1470030201
:101FC300205B147003022069147003022077240439
:101FD300600302208E900157E0FF700F900002749F
:101FE300071209B5900003747F804CEFC39404502B
:101FF30016EF14FF74017E00A807088005C333CED3
:1020030033CED8F9FF80027F00900002EF1209B5AA
:10201300900157E0FFC394044017EF24FCFF7401C1
:102023007E00A807088005C333CE33CED8F9FF80DE
:10203300027F00900003EF1209B5900157E004F00E
:10204300E0D3940A4053E4F0804F900002E4120975
:10205300B5900003745C803E900002E41209B590D1
:102063000003747C8030900002E41209B5900003F1
:102073007458802290000274071209B5900003740B
:102083007F1209B5E4900157F0800E900002E4122C
:1020930009B5900003E41209B5900001120921FF6C
:1020A3001209082FFF9000021209212FFF9000034D
:1020B3001209212F9000041209B59000057416022D
:1020C30009B590013FEBF0A3EAF0A3E9F0E4A3F034
:1020D30078437C017D017BFF7A3579EFFE7F051222
:1020E30008E290013FE0FBA3E0FAA3E0F9900019B6
:1020F30012092170030221DC900019E41209B5E9E9
:10210300241AF9E43AFA78437C017D017E007F05C5
:102113001208E27E007F057D0090013FE0FBA3E013
:10212300FAA3E0241AF9E43AFA120B06E4FF744323
:102133002FF582E43401F583E0FE900142E02EF0B6
:102143000FEFB404E974432FF582E43401F583E01F
:10215300FF900142E06F60030221DC900145E0FE45
:10216300900144E07C002400FFEC3E9001BEF0A30C
:10217300EFF090013FE0FBA3E0FAA3E0F9900065E4
:10218300120A3EFF9001BEE065F07003A3E06F60AA
:102193004890004C120921B409237E007F187D006A
:1021A300E9244DF9E43AFA120B0690013FE0FBA350
:1021B300E0FAA3E0F990004C740A1209B59001BE4D
:1021C300E0FEA3E0FF90013FE0FBA3E0FAA3E0F908
:1021D300900065EE8FF0120AC32290005D12092170
:1021E30014602A14602714606F240360030222AF73
:1021F300900063120921C3940A4056900056740359
:102203001209B590005C74031209B5804490005C18
:102213001209216402600990005B120921B4020FC4
:1022230090006074011209B59000567402801F90EB
:102233000063120921C3940A4017900060E4120955
:10224300B590005C74031209B5900056740312092B
:10225300B590005774038051900063120921C39411
:102263000A404990005674031209B590005C740348
:102273001209B59000DCE0FEA3E0FF9000E0E06E01
:102283007003A3E06F60047F0580169000D4E0FE26
:10229300A3E0FFA3E06E7003A3E06F7F0460027FFF
:1022A30005BF040890005774021209B522EF1460A9
:1022B3004014607924026003022381121FA290015B
:1022C3006AE0FBA3E0FAA3E0F99000167406120992
:1022D300B590016AE0FBA3E0FAA3E02417F9E43A1E
:1022E300A801FCAD037B017A01795A7E007F068049
:1022F300777B017A01795A1211F890016AE0FBA306
:10230300E0FAA3E0F9900016740A1209B590016A85
:10231300E0FBA3E0FAA3E02417F9E43AA801FCAD3B
:10232300037B017A01795A7E007F0A803B121FA248
:102333007A0179601211F890016AE0FBA3E0FAA335
:10234300E0F990001674101209B590016AE0FBA33E
:10235300E0FAA3E02417F9E43AA801FCAD037B01FA
:102363007A01795A7E007F101208E290016AE0FB3D
:10237300A3E0FAA3E0F990001474011209B52290C6
:102383000145EBF0A3EAF0A3E9F0E4FFA3F0FE902C
:102393000145E0FBA3E0FAA3E0F98E827583001206
:1023A30009212FFF0EEEB403E6900145E0FBA3E005
:1023B300FAA3E0F98E827583001209216F6003028C
:1023C300244A1209087F00FE9000011209212FFF01
:1023D300E43EFEEF64A57003EE645A706A90000257
:1023E300120921FFB401047F088057EFB402047F70
:1023F30006804F900002120921FFB403047F01807D
:1024030041EFB404047F048039900002120921FFD4
:10241300B405047F05802BEFB406047F038023906B
:102423000002120921FFB407047F028015EFB408EC
:10243300047F09800D9000021209217F00B4090274
:102443007F07900148EFF0900148E0FF2290006978
:102453001209216404700302250290004C12092121
:102463006409600302250290005D120921146023B0
:1024730014603714604B2403706D900063120921BC
:10248300C3940A900016500474088002740712095A
:10249300B5801F90001674071209B59000177405D4
:1024A3001209B5900015740280529000167406123A
:1024B30009B590001774051209B5900015740380CF
:1024C3003B900063120921C3940A900016500474D0
:1024D30009800274071209B590001774041209B534
:1024E3009000157403801590001674071209B590B7
:1024F300001774051209B590001574031209B5226B
:102503009001B9E06407707C90000E120A3E45F01A
:10251300701E90000A120A3E45F070199001B7E050
:10252300701304F090000AE475F024120AC38005C6
:10253300E49001B7F090000E120A3EFF900012E5FE
:10254300F08FF0120AC3900004120A3E45F0701E89
:10255300900002120A3E45F070199001B8E0701322
:1025630004F0900002E475F024120AC38005E4909D
:1025730001B8F0900004120A3EFF900006E5F08FC8
:10258300F0020AC3900012E4F5F0120AC3900006A9
:10259300E4F5F0120AC390000A120A3E45F07010E7
:1025A300900002120A3E45F070069001B97407F0DC
:1025B300229001517401F0A37400F0A374EAF09027
:1025C300019CE0FE249DF582E43401F583EFF09055
:1025D300019BE024F96024047073749D2EF582E45A
:1025E3003401F583E0B4680C90019D7468F09001A8
:1025F3009B7407F0E490019CF08052EEC394044076
:102603004C90019B7406F0E4A3F0900151E0FBA30E
:10261300E0FAA3E0F990000174011209B5900151A9
:10262300E0FBA3E0FAA3E02402F9E43AA801FCAD3D
:10263300037B017A01799D7E007F051208E27E000B
:102643007F057D007B017A01799D120B0690019C29
:10265300E004F0E0C394054002E4F022900137E087
:10266300C41313540330E07B90005B74021209B56A
:1026730090000A120A3EFFAEF0BE021EBFAB1B90D3
:10268300000E740575F055120AC390000E120A3E2F
:10269300FD900010E5F08DF08046BE051EBF551B72
:1026A30090000E740275F0AB120AC390000E120A6A
:1026B3003EFF900010E5F08FF0802590000A120A8B
:1026C3003EFFAEF090000E120A3E6F7003E5F06E0F
:1026D3007033900010120A3EFF90000EE5F08FF069
:1026E300020AC390005B120921B4021190000A127E
:1026F3000A3EFF90000EE5F08FF0120AC390005BD4
:1027030074031209B52290005D1209211460171495
:102713006014146072240360030227AC90005B749E
:10272300031209B5807B900058120921FF900059CC
:102733001209216F6031900059EF1209B5900058CA
:10274300120921B40208900063740A1209B59000BB
:102753005A74011209B590000C120A3EFF90000E44
:10276300E5F08FF0020AC3900058120921B4021059
:1027730090005C120921B4020790005B740280266A
:1027830090005B7403801F90005B74031209B59083
:10279300005F120921B4051190005E120921B405EE
:1027A3000890005874031209B52290013FEBF0A37F
:1027B300EAF0A3E9F0E4A3F0A3F090013FE0FBA368
:1027C300E0FAA3E0F990001F12092170349001434D
:1027D300E004F07006900142E004F0900142E0FE54
:1027E300A3E0FFE4FCFD7B607AEAF9F8C3120AF088
:1027F300500A90014274EAF0A37460F043CF108052
:10280300B990013FE0FBA3E0FAA3E0F990004B127B
:102813000921FF700690016F04F022EFD39450401A
:102823000790016F7402F022900142E0FEA3E0FFE3
:10283300E4FCFD7B607AEAF9F8C3120AF0700790B2
:10284300016F7403F022E490016FF022E0FBA3E038
:10285300FAA3E0F990005DE41209B5900051740306
:102863001209B590005874031209B590005274030D
:102873001209B590005674031209B59000577403FA
:102883001209B590005474031209B59000597403EA
:102893001209B590005AE41209B590006074011250
:1028A30009B590006174011209B5900062E4120940
:1028B300B5900063740A1209B590005E740512099D
:1028C300B590005F74051209B5900018E41209B5BC
:1028D30090002CE41209B5900014E40209B59001AC
:1028E3003CEBF0A3EAF0A3E9F09001B4E0FBA3E032
:1028F300FAA3E0F990002C120921605A90002D12DE
:102903000921603790002DE41209B590013CE0FBEA
:10291300A3E0FAA3E0F99001B2E0F5827583001217
:102923000921F59FE49001B3F09001B2E004F0E0D7
:10293300C39D403AE4F09001B4800D9001B3E004EC
:10294300F0E0C394C84027A3E0FBA3E0FAA3E0F9B7
:1029530090002CE48015E49001B2F0A3F0A3E0FB17
:10296300A3E0FAA3E0F990002D74011209B52278CF
:102973007FE4F6D8FD7581070229B9020003E493C9
:10298300A3F8E493A34003F68001F208DFF480295F
:10299300E493A3F85407240CC8C333C4540F44204E
:1029A300C8834004F456800146F6DFE4800B01023D
:1029B3000408102040809015CAE47E019360BCA3F4
:1029C300FF543F30E509541FFEE493A360010ECF8B
:1029D30054C025E060A840B8E493A3FAE493A3F8B5
:1029E300E493A3C8C582C8CAC583CAF0A3C8C58275
:1029F300C8CAC583CADFE9DEE780BE90013CEBF0BD
:102A0300A3EAF0A3E9F090013CE0FBA3E0FAA3E022
:102A1300F9900069120921640460611230B99001D0
:102A23003CE0FBA3E0FAA3E0F990004C1209216417
:102A33000970491218F090013CE0FBA3E0FAA3E00F
:102A4300F9120B4890013CE0FBA3E0FAA3E0F91272
:102A53000DDB90013CE0FBA3E0FAA3E0F9122709A8
:102A630090013CE0FBA3E0FAA3E0F91221DD900121
:102A73003CE0FBA3E0FAA3E0F91204D22290013C6C
:102A8300EBF0A3EAF0A3E9F09000691209216404D2
:102A9300706343CF1090016EE014602514604324EB
:102AA30002705290016EE004F090013CE0FBA3E061
:102AB300FAA3E0F990004974021209B57F020222D9
:102AC300B090013CE0FBA3E0FAA3E0F990004912C7
:102AD3000921B403201235441232FB90016EE00445
:102AE300F02290013CE0FBA3E0FAA3E0F91227AD4A
:102AF300E490016EF022C0E0C0F0C083C082C0D079
:102B030075D000C000C001C002C003C004C005C02E
:102B130006C007C2CF9001B1E004F0E0FFD39401F7
:102B23004011EF30E00D9001B0E013F0308504E088
:102B33004480F09001B1E0C394114018E4F043C61F
:102B43000243A908C2CA75CBFC75CABE9001B0E0A6
:102B5300FF1225B4D007D006D005D004D003D0028D
:102B6300D001D000D0D0D082D083D0F0D0E032904A
:102B7300013CEBF0A3EAF0A3E9F090013CE0FBA3F6
:102B8300E0FAA3E0F990006912092164046050128D
:102B930020C590013CE0FBA3E0FAA3E0F990004CD0
:102BA300120921B40A39E92414F9E43AFA1231F08A
:102BB30090013CE0FBA3E0FAA3E02451F9E43AFAE4
:102BC300122F6A90013CE0FBA3E0FAA3E0F9123173
:102BD300A490013CE0FBA3E0FAA3E0F912265F22F4
:102BE300900004120921B4011A900006740112091D
:102BF30070900006120921C3940A400E90000674D7
:102C03000A8004900006E41209B59000031209211A
:102C1300B4011A900005740112097090000512099D
:102C230021C39401400E90000574018004900005B7
:102C3300E41209B59000077401120970900007129D
:102C43000921C394784007900007E41209B522E4F0
:102C5300FFFEE490013FF0A3F0900140E004F07028
:102C63000690013FE004F090013FE0B403EBA3E0E2
:102C7300B4E8E643CF100FBF00010EEF64644E705B
:102C8300D1E4FF1222B0E4FEFFE490013FF0A3F091
:102C9300900140E004F0700690013FE004F09001E1
:102CA3003FE0B403EBA3E0B4E8E643CF100FBF006B
:102CB300010EEF64644E70D17F010222B090004C8C
:102CC3001209216409705E90005D120921FF9001D1
:102CD30083E06F6007EFF0E4A3F0A3F0EF1424FDAB
:102CE300500D24047029E4900184F0A3F080209017
:102CF300005F120921B4051790005E120921B40583
:102D03000E900185E004F07006900184E004F0C3A6
:102D1300900185E09420900184E0941C400790008A
:102D23005DE41209B522900008120921605E90004B
:102D330008E41209B5900009E41209B590001212D3
:102D43000A3EFFAEF090000A120A3EFDACF0C39FAC
:102D5300EC9E5010ED5407FF122E5490000AE475B8
:102D6300F0018022900012120A3EFFD3ED9FEC95F2
:102D7300F0401690000A120A3E5407FF122E549098
:102D8300000A74FFF5F0020A761235BE22900001A4
:102D9300120921605B900001E41209B5E41209A352
:102DA300900006120A3EFFAEF0900002120A3EFDAA
:102DB300ACF0C39FEC9E5010ED5407FF122EB3905E
:102DC3000002E475F0018022900006120A3EFFD350
:102DD300ED9FEC95F04016900002120A3E5407FF57
:102DE300122EB390000274FFF5F0020A761235C773
:102DF30022C0E0C0F0C083C082C0D075D000C00044
:102E0300C001C002C003C004C005C006C007E59DE1
:102E130030E116539DFD9001B4E0FBA3E0FAA3E07B
:102E2300F990002D74011209B5E59D30E008539D1A
:102E3300FEAF9F121E70D007D006D005D004D0037A
:102E4300D002D001D000D0D0D082D083D0F0D0E057
:102E530032EFB408005058902E61F8282873022EE0
:102E630079022E7F022E85022E8E022E94022E9D33
:102E7300022EA6022EAAD2A5C2A4800AD2A5D2A44B
:102E83008004C2A5D2A4C2A3C2A222C2A5D2A48096
:102E930004C2A5C2A4D2A3C2A222C2A5C2A4D2A321
:102EA300D2A222C2A58002D2A5C2A4C2A3D2A222C8
:102EB300EFB408005058902EC0F8282873022ED87B
:102EC300022EDE022EE4022EED022EF3022EFC026F
:102ED3002F05022F09D281C282800AD281D2828039
:102EE30004C281D282C283C28422C281D28280047C
:102EF300C281C282D283C28422C281C282D283D2DD
:102F03008422C2818002D281C282C283D28422906F
:102F13000043E475F001120A76900047E475F0016E
:102F2300120A76900043120A3EC39496E5F0940089
:102F33004012900043E475F096120AC39000427465
:102F4300011209B5900047120A3EC39420E5F0949C
:102F5300034013900047740375F020120AC39000D6
:102F63004674011209B522900137E0C31330E0041F
:102F73007402800274031209A3900137E0FCEC137E
:102F830013543F90000130E0047402800274031272
:102F930009B5EC131313541F90000530E0047402B9
:102FA300800274031209B5900137E0C4540F9000F6
:102FB3000630E0047402800274031209B522900102
:102FC3003CEBF0A3EAF0A3E9F07E007F147D0090D0
:102FD300013CE0FBA3E0FAA3E0F9120B0690013CED
:102FE300E0FBA3E0FAA3E0F9900010740275F0ABE4
:102FF300120AC390000C740575F055120AC39000B1
:103003000A740575F0DC120AC3900002740575F0AA
:10301300DC020AC3C0E0C0F0C083C082C0D075D058
:1030230000C000C001C002C003C004C005C006C088
:1030330007758CF8758A909000CA7401F09001B4FA
:10304300E0FBA3E0FAA3E0F912002ED007D006D0EC
:1030530005D004D003D002D001D000D0D0D082D08C
:1030630083D0F0D0E032900016120921FDB4060B94
:10307300E4900186F09000E6E0802AED6408600A9F
:103083009000161209216409701F900186E004F074
:10309300E0C394044002E4F0900186E0C3940290FC
:1030A30000E6E0500D4404F022E4900186F0900025
:1030B300E6E054FBF02290013FEBF0A3EAF0A3E932
:1030C300F090013FE0FBA3E0FAA3E0F990001F12A8
:1030D3000921603090001FE41209B590001812090D
:1030E3002124F2601104701C90013FE0FBA3E0FA7D
:1030F300A3E0F9020FF090013FE0FBA3E0FAA3E0A5
:10310300F9121D302290003F74031209B59000415B
:1031130074031209B590004574031209B590004970
:1031230074031209B5900040E41209B5900043E41A
:10313300F5F0120AC3900042E41209B5900047E487
:10314300F5F0120AC3900046E41209B590004AE470
:103153000209B590013CEBF0A3EAF0A3E9F090017A
:103163003CE0FBA3E0FAA3E0F990006912092164B3
:1031730004602D12250390013CE0FBA3E0FAA3E0D9
:10318300F9122D2990013CE0FBA3E0FAA3E0F91228
:103193002D9090013CE0FBA3E0FAA3E0F91233DBAE
:1031A30022900137E0FCEC30E01490000E120A3E4E
:1031B30045F0701390000E740475F00080069000C3
:1031C3000EE4F5F0120AC3ECC413540730E0149074
:1031D3000004120A3E45F07013900004740475F065
:1031E300008006900004E4F5F0120AC32290013730
:1031F300E0FEA3E0FF90000130E00474028002745B
:10320300031209B5EEC313EF1390000330E0047407
:1032130004800274051209B5900137E0FEA3E0783B
:1032230002CEC313CE13D8F990000230E004740623
:10323300800274071209B52290013CEBF0A3EAF077
:10324300A3E9F090013CE0FBA3E0FAA3E0F99000CE
:10325300691209216404601F12306990013CE0FB8C
:10326300A3E0FAA3E0F912351890013CE0FBA3E0D8
:10327300FAA3E0F912352E2290013CEBF0A3EAF019
:10328300A3E9F090005B120921B402109001BAE0A7
:1032930004F0E0D394024012E4F0800090013CE09B
:1032A300FBA3E0FAA3E0F912348890013CE0FBA30E
:1032B300E0FAA3E0F90234CB90013CEBF0A3EAF08F
:1032C300A3E9F090013CE0FBA3E0FAA3E0F990004E
:1032D300691209216404601F12357F90013CE0FBF1
:1032E300A3E0FAA3E0F912358E90013CE0FBA3E0E2
:1032F300FAA3E0F91234E622D2A2122C52C2A2D2CD
:10330300A3122C52C2A3D2A4122C52C2A4D2A5122D
:103313002C52C2A5D284122C52C284D283122C52B4
:10332300C283D282122C52C282D281122C52C28107
:1033330022E4FFAE051DEE60307E80EED3940040A4
:103343001FEF30E70725E06407FF8004EF25E0FF68
:103353001209085E6004EF6407FFEEC313FE80DB0F
:10336300740129F9E43AFA80CA229001BBE0FBA375
:10337300E0FAA3E0F91231089001BBE0FBA3E0FA05
:10338300A3E0F91228579001BBE0FBA3E0FAA3E006
:10339300F91235D09001BBE0FBA3E0FAA3E0F902F8
:1033A3002FC19001947458F0A304F0A37404F0A304
:1033B300740AF0900002120921900198F090000322
:1033C300120921900199F07B017A0179947D06120B
:1033D300333490019AEFF02290005D120921FF64CB
:1033E300016004EFB40223900056120921B4021ABB
:1033F30090000A120A3EFFAEF0D394ABEE94024063
:103403000990000CEE8FF0120AC3229001BBE0FB7F
:10341300A3E0FAA3E0F990004174021209B5900009
:103423004C74091209B57E007F087D007B017A0088
:1034330079CA020B06438E05438901758CF8758A98
:1034430090C28CD2A9D28C75CBFC75CABEC2CAD22B
:10345300ADD2CAD2BD43FEC143FF8243CF10221275
:1034630009086402701590000104120970900001AC
:10347300120921D394015003C29522900001E41252
:1034830009B5C295229000097401120970900009D0
:10349300120921C39404401090000974041209B561
:1034A30090000874011209B522759A1F759B607507
:1034B30091E075921075A1FC75A203E4F5C775C67A
:1034C3000243A90843B90822740112094E120908DC
:1034D300C39404400D74041209A3900001740112F3
:1034E30009B5229000561209216402600990005721
:1034F300120921B40203D2A622C2A622C2A6C28006
:10350300C2A7C296C2A5C2A4C2A3C2A2C281C282DA
:10351300C283C284229000151209219000E6B402EE
:1035230005E04401F022E054FEF022900017120956
:10353300219000E6B40405E04402F022E054FDF0DB
:1035430022D296122C52C296D2A6122C52C2A6D2C4
:1035530080122C52C2802290004B120921C3945036
:10356300400790005DE41209B522438FC0759D505A
:10357300759E8275950643A901D2AF229000511220
:103583000921B40203D28022C28022900052120980
:1035930021B40203D29622C2962253A9F775C6001C
:1035A300D2CA75CBFC75CABE3212336D12340E0209
:1035B30000381234AC12343802356DC2A5C2A4C22D
:1035C300A3C2A222C281C282C283C28422900065A6
:1035D300E4F5F0020AC30000000000000000000050
:1035E30000000000000000000000000000000000D8
:0135F30000D7
:00000001FF
