:1000000002289C123557121A6480FB022F4020945C
:1000100012900180E004F0E0D39402400B1234AA65
:100020007F0422E4900180F07F05220229AAE924BE
:100030003FF9E43AFA02340D023560022C4A90008E
:100040004C120921B4090AE9245DF9E43AFA122BA9
:02005000042288
:1000530002354890013CEBF0A3EAF0A3E9F0E4A3F6
:10006300F0A3F090013CE0FBA3E0FAA3E0F99000D9
:1000730069120921640470030204D1900018120963
:100083002124F36014146018240E7023900184E07B
:10009300F09001407464F08016E4900184F0800FC6
:1000A300E4900184F090004B120921900140F090FC
:1000B3000184E06003020288A37468F090013CE0CD
:1000C300FBA3E0FAA3E0F9900067120A3EFFAEF04B
:1000D3004E70030202479001867402F090001412DE
:1000E3000921900187F0900190E0C394024003023C
:1000F3000232EF30E0057F000201AC90013CE0FBEF
:10010300A3E0FAA3E0F9900067120A3EFF30E1058D
:100113007F010201ACEF30E2057F020201AC9000E7
:1001230067120A3EFF30E3047F03807DEF30E4046F
:100133007F048075900067120A3EFF30E5047F0557
:100143008067EF30E6047F06805F900067120A3E07
:10015300AEF030E7047F078050EE30E0047F088084
:1001630048900067120A3EAEF0EE30E1047F09804A
:1001730038EE30E2047F0A8030900067120A3EAE08
:10018300F0EE30E3047F0B8020EE30E4047F0C803C
:1001930018900067120A3EAEF0EE30E5047F0D8042
:1001A30008EE7F0F30E6027F0EEF70047F3F80780A
:1001B300EFB401047F068070EFB402047F5B8068B4
:1001C300EFB403047F4F8060EFB404047F6680586C
:1001D300EFB405047F6D8050EFB406047F7D804843
:1001E300EFB407047F078040EFB408047F7F8038B3
:1001F300EFB409047F6F8030EFB40A047F7780285F
:10020300EFB40B047F7C8020EFB40C047F3980189B
:10021300EFB40D047F5E8010EFB40E047F79800885
:10022300EF7F00B40F027F71900188EFF08005E447
:10023300900188F0900190E004F0E0C39404402220
:10024300E4F0801E9001867401F090013CE0FBA372
:10025300E0FAA3E0F9900014120921900187F0E479
:10026300A3F0900186E0FF900185E02FFF900187C6
:10027300E02FFFA3E02FA3F0A37416F090013F74C7
:1002830006F00204889001857458F0A304F0A37467
:1002930007F0A3740AF090018FE0900189F0A37432
:1002A30020F0900140E0FFD39463400E90018B74E3
:1002B30040F0A3F0E4A3F002046EEF75F00A84FFAC
:1002C30070057F3F020377BF01057F060203779026
:1002D3000140E075F00A84FFBF02057F5B020377EC
:1002E300BF03057F4F020377900140E075F00A8456
:1002F300FFBF04047F66807CBF05047F6D8075901B
:100303000140E075F00A84FFBF06047F7D8065BF6E
:1003130007047F07805E900140E075F00A84FFBF09
:1003230008047F7F804EBF09047F6F8047900140A0
:10033300E075F00A84FFBF0A047F778037BF0B04A0
:100343007F7C8030900140E075F00A84FFBF0C048D
:100353007F398020BF0D047F5E8019900140E075D6
:10036300F00A84FFBF0E047F798009BF0F047F71F9
:1003730080027F009000E6E0FE7D0030E0027D8099
:10038300ED4F90018BF0900140E075F00A84AFF0DF
:10039300EF70057F3F020450BF01057F0602045042
:1003A300900140E075F00A84AFF0BF02057F5B0265
:1003B3000450BF03057F4F020450900140E075F0E5
:1003C3000A84AFF0BF04057F66020450BF05047FB3
:1003D3006D807A900140E075F00A84AFF0BF0604A7
:1003E3007F7D8069BF07047F078062900140E075CD
:1003F300F00A84AFF0BF08047F7F8051BF09047FF8
:100403006F804A900140E075F00A84AFF0BF0A04A0
:100413007F778039BF0B047F7C8032900140E07589
:10042300F00A84AFF0BF0C047F398021BF0D047F35
:100433005E801A900140E075F00A84AFF0BF0E04AD
:100443007F798009BF0F047F7180027F00EE7E00F9
:1004530030E1027E80EE4F90018CF09000E6E07F69
:100463000030E2027F8090018DEFF07B017A017909
:10047300857D091232DF90018EEFF0A3E004F09046
:10048300013F740AF090013FE0FF90013CE0FBA3C1
:10049300E0FAA3E0F990002EEF1209B57E00900177
:1004A3003CE0FBA3E0FAA3E0242FF9E43AA801FC23
:1004B300AD037B017A0179851208E290013CE0FBF0
:1004C300A3E0FAA3E0F990002C74011209B522907D
:1004D300013FEBF0A3EAF0A3E9F078447C017D014E
:1004E3007BFF7A3579877E007F081208E2784C7C9F
:1004F300017D017BFF7A35798F7E007F031208E24D
:1005030090013FE0FBA3E0FAA3E0F990000E120A8A
:100513003EFF900144E5F0F0A3EFF0900004120ACF
:100523003EFF900146E5F0F0A3EFF090000A120AB7
:100533003EFF900148E5F0F0A3EFF0900002120AAD
:100543003EFF90014AE5F0F0A3EFF0900056120948
:100553002190014CF090005712092190014DF09029
:10056300005212092190014EF0E4900142F0A3F0F1
:10057300900144E0FEA3E0FF4E6022C3EF94ABEE94
:10058300940250047F048017D3900145E094559062
:100593000144E094057F0540027F0480027F05BF8C
:1005A300041E90013FE0FBA3E0FAA3E0F990000EE4
:1005B300E4F5F0120AC3900142E0F0A3E04401F035
:1005C300900146E0FEA3E0FF4E600EEF7003EE6481
:1005D300047F0560027F0480027F05BF041E900133
:1005E3003FE0FBA3E0FAA3E0F9900004E4F5F01286
:1005F3000AC3900142E0F0A3E04402F0900144E01A
:10060300FEA3E0FF4E600EA3E07002A3E07D056051
:10061300027D0480027D05BD041E90013FE0FBA323
:10062300E0FAA3E0F9900004E4F5F0120AC39001A4
:1006330042E0F0A3E04404F0EF4E60047F0580192C
:10064300900146E07002A3E060047F05800B9001F7
:100653004CE07F05B402027F04BF041D90013FE01C
:10066300FBA3E0FAA3E0F990005674031209B590D6
:100673000142E0F0A3E04408F090014CE064027012
:10068300589000DCE0FEA3E0FF9000E0E0FCA3E074
:10069300FDD39FEC9E4015ED9FFFEC9EFED3EF94A0
:1006A3000AEE94007F0540027F0480229000E0E080
:1006B300FEA3E0FFC39000DDE09FFF9000DCE09E1F
:1006C300FED3EF940AEE94007F0540027F04BF043B
:1006D300047F0480067F0580027F05EF6404705D5C
:1006E30090013FE0FBA3E0FAA3E0F990000A120AAD
:1006F3003EFFAEF04E602BC3EF94ABEE940250047A
:100703007F05801390000A120A3ED39455E5F094B6
:10071300057F0440027F05BF050890005B74031248
:1007230009B590005B120921B403129000567403BB
:100733001209B5900142E0F0A3E04410F090014C9F
:10074300E0640270569000D4E0FEA3E0FFA3E0FC57
:10075300A3E0FDD39FEC9E4015ED9FFFEC9EFED3DF
:10076300EF940AEE94007F0540027F0480229000FC
:10077300D6E0FEA3E0FFC39000D5E09FFF9000D436
:10078300E09EFED3EF940AEE94007F0540027F04BF
:10079300BF04047F0480067F0580027F05BF041D1C
:1007A30090013FE0FBA3E0FAA3E0F9900056740345
:1007B3001209B5900142E0F0A3E04420F090014C0F
:1007C300E0B4030D90014EE07F05B402027F048084
:1007D300027F05BF041D90013FE0FBA3E0FAA3E005
:1007E300F990005274031209B5900142E0F0A3E0BE
:1007F3004440F0900142E0FEA3E0FF90013FE0FBA4
:10080300A3E0FAA3E0F9900067EE8FF0020AC3E7D2
:1008130009F608DFFA8046E709F208DFFA803E8826
:10082300828C83E709F0A3DFFA8032E309F608DF5D
:10083300FA8078E309F208DFFA807088828C83E318
:1008430009F0A3DFFA806489828A83E0A3F608DFD4
:10085300FA805889828A83E0A3F208DFFA804C8009
:10086300D280FA80C680D4806980F2803380108081
:10087300A680EA809A80A880DA80E280CA803389E1
:10088300828A83ECFAE493A3C8C582C8CCC583CC1F
:10089300F0A3C8C582C8CCC583CCDFE9DEE7800DF1
:1008A30089828A83E493A3F608DFF9ECFAA9F0EDD1
:1008B300FB2289828A83ECFAE0A3C8C582C8CCC52F
:1008C30083CCF0A3C8C582C8CCC583CCDFEADEE8FD
:1008D30080DB89828A83E493A3F208DFF980CC88E2
:1008E300F0EF60010E4E60C388F0ED2402B4040003
:1008F30050B9F582EB2402B4040050AF23234582A0
:100903002390086273BB010689828A83E022500226
:10091300E722BBFE02E32289828A83E49322BB019E
:100923000CE58229F582E5833AF583E0225006E956
:100933002582F8E622BBFE06E92582F8E222E5825B
:1009430029F582E5833AF583E49322BB0109898281
:100953008A83F8E028F022500327F722BBFE05F82C
:10096300E328F3228A838982F8E4932822BB010FC8
:10097300F8E58229F582E5833AF583E028F02250F1
:1009830009C58229F8E58226F622BBFE09C582291C
:10099300F8E22582F222F8EA2583F583E9932822F7
:1009A300BB010689828A83F0225002F722BBFE0133
:1009B300F322F8BB010DE58229F582E5833AF5833D
:1009C300E8F0225006E92582C8F622BBFE05E92598
:1009D30082C8F222EF8DF0A4A8F0CF8CF0A428CE29
:1009E3008DF0A42EFE22BC000BBE0029EF8DF084F7
:1009F300FFADF022E4CCF875F008EF2FFFEE33FEE5
:100A0300EC33FCEE9DEC984005FCEE9DFE0FD5F01B
:100A1300E9E4CEFD22EDF8F5F0EE8420D21CFEAD24
:100A2300F075F008EF2FFFED33FD4007985006D522
:100A3300F0F222C398FD0FD5F0EA22BB0110E58244
:100A430029F582E5833AF583E0F5F0A3E022500926
:100A5300E92582F886F008E622BBFE0AE92582F83A
:100A6300E2F5F008E222E5832AF583E993F5F0A3A2
:100A7300E99322BB010DC58229C582C5833AC5838B
:100A8300020B325011C58229F808E5F026F618F555
:100A9300F0E58236F622BBFE11C58229F808E2256D
:100AA300F0F5F0F218E23582F222F8E58229F582B8
:100AB300E5832AF58374019325F0F5F0E493382256
:100AC300F8BB0111E58229F582E5833AF583E8F065
:100AD300E5F0A3F0225009E92582C8F608A6F02222
:100AE300BBFE09E92582C8F2E5F008F222EB9FF587
:100AF300F0EA9E42F0E99D42F0EC6480C86480987D
:100B030045F022EF4E6012EF60010EEDBB010B8941
:100B1300828A83F0A3DFFCDEFA2289F05007F7090B
:100B2300DFFCA9F022BBFEFCF309DFFCA9F022C520
:100B3300F0F8A3E028F0C5F0F8E5821582700215FD
:100B430083E038F02290013FEBF0A3EAF0A3E9F051
:100B5300245DF9E43AFA12176390013FE0FBA3E046
:100B6300FAA3E0F990005D12092114603E14606D50
:100B7300147003020CF824036003020D299000553E
:100B8300120921B40407900063E41209B5900052DE
:100B930074031209B5900060E41209B5900062E491
:100BA3001209B590004E7408020D2690013FE0FB38
:100BB300A3E0FAA3E0F9900055120921B4040790C9
:100BC3000063E41209B590005274031209B5900052
:100BD30060E41209B59000627401020D2690013F92
:100BE300E0FBA3E0FAA3E0F9900063120921C394A8
:100BF3000A405190005C120921B4022A9000541259
:100C03000921B4020E900060E41209B5900062E479
:100C13001209B590013FE0FBA3E0FAA3E0F99000CD
:100C2300547403020CBC90013FE0FBA3E0FAA3E081
:100C3300F990000C120A3EFF90000EE5F08FF012BF
:100C43000AC38078900164E06408707090013FE00B
:100C5300FBA3E0FAA3E0F9900054120921640270A7
:100C63005B900167E0FF900166E0FEC39F400DEEDD
:100C73009FC3940A7F0450027F058015EE2478FFFA
:100C8300900167E0FEC3EF9EC3940A7F0450027F86
:100C930005BF052890006074011209B590005474D3
:100CA300031209B5900063740A1209B590006274C7
:100CB300011209B590005C74021209B590013FE07E
:100CC300FBA3E0FAA3E0F9900062120921C39401A7
:100CD30040549000541209216403704A90005C123E
:100CE30009216402704090005274021209B5900009
:100CF30063740A802E90013FE0FBA3E0FAA3E0F9BE
:100D0300900055120921B40407900063E41209B559
:100D130090005274031209B5900060E41209B59073
:100D23000062E41209B590013FE0FBA3E0FAA3E0FF
:100D3300F9900052120921FF900053120921FE6F0E
:100D43006037EFB40218900165E0700A90006412F6
:100D53000921900168F09001657401F08005E49029
:100D63000165F090013FE0FBA3E0FAA3E0F99000F6
:100D730052120921900053805BEE64027046900189
:100D83003FE0FBA3E0FAA3E0F9900064120921FF1E
:100D9300900168E0FEEFC39E400DEF9EC394007F79
:100DA3000450027F0580139000641209212478C344
:100DB3009EC394007F0450027F05BF041A90005520
:100DC3007404801090013FE0FBA3E0FAA3E0F990E4
:100DD300005574051209B52290005D1209211460B3
:100DE3003D14603A147003020FAF24036003020F33
:100DF300EF900063120921C3940A401290000EE49D
:100E0300F5F0120AC3900004E4F5F0020FCB900052
:100E13005812092164026003020FEF020FDE9000F3
:100E230063740A1209B590005A120921702F9001B8
:100E3300697406F090005A74011209B590000E749B
:100E43000475F000120AC390000C740475F00012CC
:100E53000AC3900010740275F0AB020FEC900058B7
:100E630012092164026003020F5B900169E024F917
:100E7300604614607E24026003020F6C90000C1223
:100E83000A3EFF90000EE5F08FF0120AC390000AAD
:100E9300120A3EFFAEF090000E120A3E6F7003E599
:100EA300F06E6003020F6C90005C74021209B5903F
:100EB30001697407F0020F6C90005C74021209B5AB
:100EC300900010120A3EFF90000EE5F08FF0120A18
:100ED300C390000A120A3EFFAEF090000E120A3EC3
:100EE3006F7003E5F06E6003020F6C900169740884
:100EF300F0807690005C74021209B590000A120A21
:100F03003EFFAEF0BE0518BF551590000E74027576
:100F1300F0AB120AC3900010740275F0AB8047BEA9
:100F23000218BFAB1590000E740575F055120AC375
:100F3300900010740575F055802C90000E120A3E37
:100F43006F7003E5F06E7021900010120A3EFF905F
:100F5300000EE5F08FF0800E90000C120A3EFF9019
:100F6300000EE5F08FF0120AC3900004E4F5F012CE
:100F73000AC39000DCE0FEA3E0FF9000E0E06E70A7
:100F830003A3E06F60047F0580169000D4E0FEA306
:100F9300E0FFA3E06E7003A3E06F7F0460027F05B0
:100FA300EF6404704790005C740280239000631226
:100FB3000921C3940A401B90000EE4F5F0120AC302
:100FC300900004740475F000120AC390005AE402FE
:100FD30009B5900058120921B4021190000C120AAD
:100FE3003EFF90000EE5F08FF0120AC322900142FB
:100FF300EBF0A3EAF0A3E9F0E4A3F078467C017DEB
:10100300017BFF7A357992FE7F0B1208E290014251
:10101300E0FBA3E0FAA3E02420F9E43AFA78467C63
:10102300017D017E007F0B1208E27E007F0B7D00B5
:10103300900142E0FBA3E0FAA3E02420F9E43AFAAA
:10104300120B06E4FF74462FF582E43401F583E0C6
:10105300FE900145E02EF00FEFB405E974462FF53D
:1010630082E43401F583E0FF900145E06F60030201
:1010730011F7900149E0FE900148E07C002400FF55
:10108300EC3EFE900142E0FBA3E0FAA3E0F99000FE
:101093004FEE8FF0120AC390004F120A3EFFAEF0DC
:1010A30030E013900142E0FBA3E0FAA3E0F99000E3
:1010B3004D7401021198EEC313EF1330E013900146
:1010C30042E0FBA3E0FAA3E0F990004D74020211A1
:1010D30098900142E0FBA3E0FAA3E0F990004F12DD
:1010E3000A3EFDACF0AE047802CEC313CE13D8F99A
:1010F30030E00890004D7403021198EDAE047803BC
:10110300CEC313CE13D8F930E00890004D74040217
:10111300119890004F120A3EFDACF0ECC4F854F065
:10112300C8EDC4540F4830E00790004D7405806546
:10113300EDAE047805CEC313CE13D8F930E0079093
:10114300004D7406804F90004F120A3EFDACF0AE86
:10115300047806CEC313CE13D8F930E00790004DC0
:1011630074078031EDAE047807CEC313CE13D8F9DC
:1011730030E00790004D7408801B90004F120A3E28
:10118300E5F030E013900142E0FBA3E0FAA3E0F9BD
:1011930090004D74091209B5900142E0FBA3E0FAF7
:1011A300A3E0F990004D120921603290004C12091E
:1011B30021B40A297E007F027D00E92465F9E43A1F
:1011C300FA120B06900142122779900142E0FBA329
:1011D300E0FAA3E0F990004C74091209B590014AB2
:1011E300E0FF900142E0FBA3E0FAA3E0F990004B9B
:1011F300EF1209B522900141EBF0A3EAF0A3E9F065
:10120300900141E0FBA3E0FAA3E0F974581209A3AB
:10121300900141E0FBA3E0FAA3E0F99000017459C7
:101223001209B590000274071209B5900003740AFD
:101233001209B590016FE09000041209B590000502
:1012430074201209B5900182E0FF70030213269007
:101253000141E0FBA3E0FAA3E0F9900006747912E0
:1012630009B5EF70057F3F021315900182E0FFB4CB
:1012730001077E067F06021315EFB402057F5B02AA
:101283001315900182E0FFB403077E4F7F4F0213D3
:1012930015EFB404047F668079900182E0FFB40502
:1012A300067E6D7F6D806BEFB406047F7D80639057
:1012B3000182E0FFB407067E077F078055EFB4087D
:1012C300047F7F804D900182E0FFB409067E6F7F2B
:1012D3006F803FEFB40A047F778037900182E0FF8D
:1012E300B40B067E7C7F7C8029EFB40C047F3980AD
:1012F30021900182E0FFB40D067E5E7F5E8013EFD6
:10130300B40E047F79800B900182E07F00B40F025A
:101313007F71900007EF1209B5900008E41209B538
:101323000213D190016EE0FF7022900141E0FBA314
:10133300E0FAA3E0F990000674FF1209B5900007E4
:1013430074FF1209B590000874808071EFC3940490
:10135300503BEF7F00B401027F80900141E0FBA38B
:10136300E0FAA3E0F9900006EF1209B590016EE0F0
:10137300FF7E00B402027E80900007EE1209B5EFF3
:101383007F00B403027F80900008EF803090016EED
:10139300E024FCFF7401A807088002C333D8FCFFD4
:1013A300900141E0FBA3E0FAA3E0F9900006EF12FD
:1013B30009B5900007EF1209B5900008E41209B5CA
:1013C30090016EE004F0E0D3940A4002E4F090014F
:1013D30041E0FBA3E0FAA3E0F97D091232DF9001BB
:1013E30041E0FBA3E0FAA3E0F9900009EF1209B58D
:1013F30090016FE004F022E4900145F0120908FF28
:10140300900146E4F0A3EFF0E0F8E4F0E890014641
:10141300F0900001120921FF900147E02FF09001A5
:1014230046E03400F0900145E025E02402F582E433
:101433003400F583E0FEA3E0FFC3900147E09F90F3
:101443000146E09E50037F0022900145E004F060D6
:101453001EE025E02402F582E43400F583E0FEA3D8
:10146300E0FFC3900147E09F900146E09E50DA9071
:101473000145E0FBC3946440030215C7E0FA25E08D
:101483002400F582E43400F583E0FEA3E0FFC3907B
:101493000147E09FF0900146E09EF0E0FEA3E0FFED
:1014A3007C007D0A1209D7900146EEF0A3EFF0907D
:1014B3000146E0FEA3E0FFEA25E02400F582E434E0
:1014C30000F583E0FCA3E0FDEB25E02402F582E4D4
:1014D3003400F583E0FAA3E0C39DFDEA9CFC120906
:1014E300E9900146EEF0A3EFF0900145E024FFFF01
:1014F300E434FFFE7C007D0A1209D7900147E02FF8
:10150300F0900146E03EF0E0FEA3E0FF900000E033
:10151300FCA3E0FDC39FEC9E501CC3900147E09DDC
:10152300FF900146E09CFED3EF9405EE94007F0507
:1015330040027F048022900146E0FEA3E0FFC390B7
:101543000001E09FFF900000E09EFED3EF9405EEC4
:1015530094007F0540027F04BF040F900146E0FF23
:10156300A3E0900000CFF0A3EFF0900000E0FEA313
:10157300E0FF900146EEF0A3EFF07C007D0A120934
:10158300E9D3ED9404EC94007F0540027F04BF048B
:101593000E900147E0240AF0900146E03400F0D3B6
:1015A300900147E094E7900146E0940340077403F9
:1015B300F0A374E7F0900146E0FEA3E0FF7C007D1A
:1015C3000A0209E97F63224301B80100D241015FA6
:1015D30000410160004201610000410163004201DA
:1015E3006406004101660041016700410168004152
:1015F30001690641016A0042016B00004101830059
:10160300410184004A018500000000000000000041
:101613000041018F0041019000470191000000004B
:101623000000004201B400004101B6064101B700C9
:1016330041016D0041016E0041016F0050017000D6
:101643000000000000000000000000000000004156
:101653000180004101810060C8000203FE042004F0
:10166300440468048C04B004D504FB052005460536
:101673006D059405BB05E2060A0631065906810687
:10168300A906D106F9072107490771079907C0077A
:10169300E8080F0836085C088308A908CF08F4098E
:1016A30019093E0962098609A909CC09EF0A110A39
:1016B300320A530A730A930AB30AD20AF00B0E0BC7
:1016C3002B0B480B640B800B9B0BB50BCF0BE90C5F
:1016D300020C1A0C320C490C610C770C8D0CA20C09
:1016E300B70CCB0CDF0CF20D060D180D2A0D3C0DBB
:1016F3004D0D5E0D6E0D7E0D8E0D9D0DAC0DBB0D56
:10170300C90DD60DE40DF10DFE0E0A0E160E220EB6
:101713002E0E390E440E4E0E590E630E6D0E760EBE
:10172300800E894301B10100D24101AD004101AEF8
:10173300004101AF004101B0004101980641019908
:101743000045019A00000000004101A0064101A1EB
:10175300004B01A200000000000000000000000098
:10176300900142EBF0A3EAF0A3E9F0900002120922
:1017730021FF64046018900142E0FBA3E0FAA3E0B8
:10178300F9900001120921640460030218E4EFB424
:10179300041B900163E0640B600BE490015FF09025
:1017A3000161F0A3F0900163740BF0801990016361
:1017B300E0640C600BE490015FF0900161F0A3F032
:1017C300900163740CF0900142E0FBA3E0FAA3E004
:1017D300F9900002120921B4042B900161E0FEA3E9
:1017E300E0FF7C037D841209E9C3ED944EEC94027F
:1017F30050047402803E900142E0FBA3E0FAA3E0B0
:10180300F97403802F900161E0FEA3E0FF7C037D68
:10181300841209E9C3ED9458EC9402900142E0FB71
:10182300500AA3E0FAA3E0F974018008A3E0FAA345
:10183300E0F974031209A390015FE0701704F090BC
:101843000142E0FBA3E0FAA3E0F9900007120921AB
:10185300900160F0900142E0FBA3E0FAA3E0F9906D
:101863000007120921FF900160E0FEEFC39E400DC7
:10187300EF9EC394017F0450027F058013900007FD
:101883001209212478C39EC394017F0450027F056B
:10189300EF64047051900007120921900160F090E9
:1018A3000162E004F07006900161E004F0C390016E
:1018B30062E09410900161E0940E402AE41209A3BF
:1018C300900142E0FBA3E0FAA3E0F99000021209C1
:1018D30021B40405900002800390000174050209FD
:1018E300B5E4900163F02290004D12092114B4096C
:1018F300004003021A5D90190775F003A4C5832500
:10190300F0C58373021A400219420219660219894B
:10191300021A0D021A5D0219B40219220219DD908E
:10192300004E1209216408603790004E74081209B2
:10193300B590004174021209B590005DE480669091
:10194300004E1209216402601790004E74021209BE
:10195300B590004174021209B590005D7401804591
:10196300021A0690004E1209216403601790004E7C
:1019730074031209B590004174021209B590005D19
:1019830074038021807D90004E1209216404601F3E
:1019930090004E74041209B590004174021209B507
:1019A30090005D74021209B590005F7405804A804F
:1019B3005290004E1209216407601D90004E740777
:1019C3001209B590004174021209B590005E7404C7
:1019D3001209B590005F8027802990004E120921DB
:1019E3006409601F90004E74091209B59000417498
:1019F300021209B590005F74041209B590005E7479
:101A03000580549000497402804D90005D120921B5
:101A1300FF64016005EF6402701C900041740212C0
:101A230009B5900058120921900058B403047402B8
:101A33008025740380219000497402801A9000412C
:101A430074021209B5900051120921900051B40398
:101A5300047402800274031209B590004DE4020974
:101A6300B59000CAE06006E4F0A3E004F09000CB78
:101A7300E0C39408405BE4F0A3E004F09001B8E015
:101A8300FBA3E0FAA3E0F9122E3B9001B8E0FBA31D
:101A9300E0FAA3E0F91231E99001B8E0FBA3E0FA20
:101AA300A3E0F912307F9001B8E0FBA3E0FAA3E0D2
:101AB300242FF9E43AFAC002C0019001B8A3E0FA76
:101AC300A3E0F990002E120921FDD001D0021228C3
:101AD3000B9000CCE0C3940A4028E4F0A3E004F0A8
:101AE3009000CFE004F09001B8E0FBA3E0FAA3E09C
:101AF300F91229289001B8E0FBA3E0FAA3E0F91258
:101B03002A239000CDE0C394054014E4F0A3E0043D
:101B1300F09001B8E0FBA3E0FAA3E0F9121BD49024
:101B230000CEE0C394024010E4F09001B8E0FBA3C0
:101B3300E0FAA3E0F912237A9000CFE0C3941840AF
:101B430033E4F0A3E004F09001B8E0FBA3E0FAA3D0
:101B5300E0F91232299001B8E0FBA3E0FAA3E0F91F
:101B63001231A99001B8E0FBA3E0FAA3E0F9120057
:101B73005643CF109000D0E0C39402401EE4F0A37C
:101B8300E004F012000E9001B8E0FBA3E0FAA3E03A
:101B9300F9900069EF1209B5122B739000D1E0C3DD
:101BA3009402402CE4F09001B8E0FBA3E0FAA3E038
:101BB300F912003E9001B8E0FBA3E0FAA3E0F912AA
:101BC3002BE19001B8E0FBA3E0FAA3E0F91235059D
:101BD300229000411209216402703A90003F1209D9
:101BE30021B4031890003F74021209B5900043E436
:101BF300F5F0120AC3900042E41209B590004212B4
:101C030009217003021D2B90003F74031209B59044
:101C13000041021D109000451209216402703A90A0
:101C2300003F120921B4031890003F74021209B552
:101C3300900047E4F5F0120AC3900046E41209B598
:101C43009000461209217003021D2B90003F74037C
:101C53001209B5900045021D109000491209216434
:101C6300026003021D2B90004A120921FF704B9062
:101C7300003F120921B4031890003F74021209B502
:101C8300900043E4F5F0120AC3900042E41209B550
:101C93009000421209217003021D2B90003F740330
:101CA3001209B590004A74011209B5900043E4F596
:101CB300F0120AC3900042E4806BEF64017052900B
:101CC300003F120921640370209000421209216031
:101CD3001890003F74021209B5900043E4F5F01226
:101CE3000AC3900042E41209B590003F120921642F
:101CF300027035900042120921602D90004AE412CF
:101D030009B590003F74031209B59000497403802C
:101D13001490004AE41209B590003F74031209B508
:101D230090004974031209B522900142EBF0A3EA33
:101D3300F0A3E9F0900142E0FBA3E0FAA3E0F990FD
:101D43000022120921900157F090002312092190DB
:101D53000158F0900024120921900159F0900025B8
:101D630012092190015AF0E92426F9E43AFAA3EB87
:101D7300F0A3EAF0A3E9F0900157E02422FFE43353
:101D8300FE900142A3E0FAA3E0F98F828E83120949
:101D93002190015EF0E92420F9E43AFA900157E03A
:101DA3002402FD1232DF90015EE06F6003021E4DDC
:101DB30090015AE024EF6072046003021E4D7B0120
:101DC3007A01795712335090015BE0FBA3E0FAA349
:101DD300E0F91222AC900142E0FBA3E0FAA3E0F9A0
:101DE30090004DEF1209B590004D120921605B90F0
:101DF3000142E0FBA3E0FAA3E0F990004C120921B1
:101E0300640A7046FE7F02FDE92465F9E43AFA129A
:101E13000B06900142122779900142E0FBA3E0FAFE
:101E2300A3E0F990004C7409801D90015BE0FBA3D3
:101E3300E0FAA3E0F91213FA900142E0FBA3E0FAFF
:101E4300A3E0F990004BEF1209B5900157E024038A
:101E5300FFE433FE7D00900142E0FBA3E0FAA3E040
:101E63002420F9E43AFA020B069001547401F0A31A
:101E73007400F0A374EAF09001A1E024A2F582E4D7
:101E83003401F583EFF09001A1E004F09001A0E0AC
:101E930024F9607B147003021F4324026003021FB2
:101EA3009D9001A2E0FF64687028A3E0FEB4010FD7
:101EB300900154E0FBA3E0FAA3E0F9740D802DEE4A
:101EC300B46802803B9001A1E064026003021F9D9D
:101ED300F022EF645870329001A3E0FFB4591D90D3
:101EE3000154E0FBA3E0FAA3E0F9740E1209A390F6
:101EF30001A17402F09001A07407F022EFB4580717
:101F03009001A17401F0228000E49001A1F02290DD
:101F13000154E0FBA3E0FAA3E0F9120908FFB40DB2
:101F23000A90019F7407F0A304F022EFB40E0F9000
:101F330001A4E0240390019FF0A37408F0228051D0
:101F430090019FE0FF9001A1E0C39F404D90015499
:101F5300E0FBA3E0FAA3E0F990000774011209B5CE
:101F63007E00900154E0FBA3E0FAA3E02408F9E427
:101F73003AA801FCAD037B017A0179A21208E29031
:101F8300019FE0FF7E007D007B017A0179A2120BA5
:101F9300069001A07406F0E4A3F0227B017A017994
:101FA3007074681209A390000174021209B59001BC
:101FB30082E0147003022049147003022057147046
:101FC30003022065147003022073240460030220BB
:101FD3008A90016DE0FF700F90000274071209B53B
:101FE300900003747F804CEFC394045016EF14FFEA
:101FF30074017E00A807088005C333CE33CED8F919
:10200300FF80027F00900002EF1209B590016DE09E
:10201300FFC394044017EF24FCFF74017E00A8075C
:10202300088005C333CE33CED8F9FF80027F0090FA
:102033000003EF1209B590016DE004F0E0D3940AB8
:102043004053E4F0804F900002E41209B59000037E
:10205300745C803E900002E41209B5900003747C26
:102063008030900002E41209B59000037458802276
:1020730090000274071209B5900003747F1209B52A
:10208300E490016DF0800E900002E41209B5900017
:1020930003E41209B5900001120921FF1209082F68
:1020A300FF9000021209212FFF9000031209212F34
:1020B3009000041209B590000574160209B5900149
:1020C3003FEBF0A3EAF0A3E9F0E4A3F078437C014B
:1020D3007D017BFF7A35799DFE7F051208E2900131
:1020E3003FE0FBA3E0FAA3E0F99000191209217085
:1020F300030221D8900019E41209B5E9241AF9E47E
:102103003AFA78437C017D017E007F051208E27E66
:10211300007F057D0090013FE0FBA3E0FAA3E024EC
:102123001AF9E43AFA120B06E4FF74432FF582E43A
:102133003401F583E0FE900142E02EF00FEFB4048A
:10214300E974432FF582E43401F583E0FF90014203
:10215300E06F60030221D8900145E0FE900144E066
:102163007C002400FFEC3E9001BBF0A3EFF0900154
:102173003FE0FBA3E0FAA3E0F9900065120A3EFFFB
:102183009001BBE065F07003A3E06F604890004CE2
:10219300120921B409237E007F187D00E9244DF93B
:1021A300E43AFA120B0690013FE0FBA3E0FAA3E046
:1021B300F990004C740A1209B59001BBE0FEA3E04C
:1021C300FF90013FE0FBA3E0FAA3E0F9900065EE86
:1021D3008FF0120AC32290005D12092114602A14A1
:1021E300602714606F240360030222AB9000631224
:1021F3000921C3940A405690005674031209B590FE
:10220300005C74031209B5804490005C12092164D8
:1022130002600990005B120921B4020F9000607400
:10222300011209B59000567402801F9000631209D1
:1022330021C3940A4017900060E41209B590005C32
:1022430074031209B590005674031209B590005730
:1022530074038051900063120921C3940A4049908A
:10226300005674031209B590005C74031209B5900B
:1022730000DCE0FEA3E0FF9000E0E06E7003A3E06B
:102283006F60047F0580169000D4E0FEA3E0FFA3F7
:10229300E06E7003A3E06F7F0460027F05BF040854
:1022A30090005774021209B522900145EBF0A3EA9E
:1022B300F0A3E9F0E4FFA3F0FE900145E0FBA3E007
:1022C300FAA3E0F98E827583001209212FFF0EEE27
:1022D300B403E6900145E0FBA3E0FAA3E0F98E82A4
:1022E3007583001209216F60030223741209087FAA
:1022F30000FE9000011209212FFFE43EFEEF64A5CA
:102303007003EE645A706A900002120921FFB4014F
:10231300047F088057EFB402047F06804F900002C9
:10232300120921FFB403047F018041EFB404047F49
:10233300048039900002120921FFB405047F05804F
:102343002BEFB406047F038023900002120921FFC0
:10235300B407047F028015EFB408047F09800D9051
:1023630000021209217F00B409027F07900148EFA0
:10237300F0900148E0FF2290006912092164047083
:102383000302242C90004C120921640960030224E7
:102393002C90005D12092114602314603714604BE4
:1023A3002403706D900063120921C3940A900016F0
:1023B30050047408800274071209B5801F90001638
:1023C30074071209B590001774051209B59000152A
:1023D3007402805290001674061209B590001774A7
:1023E300051209B59000157403803B900063120930
:1023F30021C3940A900016500474098002740712D2
:1024030009B590001774041209B590001574038080
:102413001590001674071209B59000177405120978
:10242300B590001574031209B5229001B6E0640754
:10243300707C90000E120A3E45F0701E90000A1246
:102443000A3E45F070199001B4E0701304F0900057
:102453000AE475F024120AC38005E49001B4F090F5
:10246300000E120A3EFF900012E5F08FF0120AC32D
:10247300900004120A3E45F0701E900002120A3EBC
:1024830045F070199001B5E0701304F0900002E478
:1024930075F024120AC38005E49001B5F09000049E
:1024A300120A3EFF900006E5F08FF0020AC3900087
:1024B30012E4F5F0120AC3900006E4F5F0120AC321
:1024C30090000A120A3E45F07010900002120A3E74
:1024D30045F070069001B67407F022900151740123
:1024E300F0A37400F0A374EAF0900199E0FE249A3B
:1024F300F582E43401F583EFF0900198E024F9606C
:1025030024047073749A2EF582E43401F583E0B4E5
:10251300680C90019A7468F09001987407F0E49045
:102523000199F08052EEC39404404C9001987406D4
:10253300F0E4A3F0900151E0FBA3E0FAA3E0F990EB
:10254300000174011209B5900151E0FBA3E0FAA365
:10255300E02402F9E43AA801FCAD037B017A017996
:102563009A7E007F051208E27E007F057D007B01D5
:102573007A01799A120B06900199E004F0E0C39472
:10258300054002E4F022900137E0C41313540330F2
:10259300E07B90005B74021209B590000A120A3EB8
:1025A300FFAEF0BE021EBFAB1B90000E740575F0AC
:1025B30055120AC390000E120A3EFD900010E5F07A
:1025C3008DF08046BE051EBF551B90000E7402752C
:1025D300F0AB120AC390000E120A3EFF900010E502
:1025E300F08FF0802590000A120A3EFFAEF09000B3
:1025F3000E120A3E6F7003E5F06E703390001012F6
:102603000A3EFF90000EE5F08FF0020AC390005BD4
:10261300120921B4021190000A120A3EFF90000E23
:10262300E5F08FF0120AC390005B74031209B52220
:1026330090005D1209211460171460141460722451
:102643000360030226D690005B74031209B5807BF6
:10265300900058120921FF9000591209216F60312F
:10266300900059EF1209B5900058120921B40208DD
:10267300900063740A1209B590005A74011209B5E7
:1026830090000C120A3EFF90000EE5F08FF0020A54
:10269300C3900058120921B4021090005C12092162
:1026A300B4020790005B7402802690005B74038081
:1026B3001F90005B74031209B590005F120921B4E7
:1026C300051190005E120921B405089000587403A7
:1026D3001209B52290013FEBF0A3EAF0A3E9F0E47D
:1026E300A3F0A3F090013FE0FBA3E0FAA3E0F9908D
:1026F300001F1209217034900143E004F07006902A
:102703000142E004F0900142E0FEA3E0FFE4FCFD9F
:102713007B607AEAF9F8C3120AF0500A9001427416
:10272300EAF0A37460F043CF1080B990013FE0FB5F
:10273300A3E0FAA3E0F990004B120921FF70069081
:10274300018204F022EFD394504007900182740277
:10275300F022900142E0FEA3E0FFE4FCFD7B607AFF
:10276300EAF9F8C3120AF070079001827403F022A9
:10277300E4900182F022E0FBA3E0FAA3E0F99000E9
:102783005DE41209B590005174031209B590005825
:1027930074031209B590005274031209B5900056E0
:1027A30074031209B590005774031209B5900054CD
:1027B30074031209B590005974031209B590005AB5
:1027C300E41209B590006074011209B590006174B8
:1027D300011209B5900062E41209B5900063740A0E
:1027E3001209B590005E74051209B590005F740577
:1027F3001209B5900018E41209B590002CE41209EF
:10280300B5900014E40209B590013CEBF0A3EAF0A3
:10281300A3E9F09001B1E0FBA3E0FAA3E0F9900093
:102823002C120921605A90002D1209216037900063
:102833002DE41209B590013CE0FBA3E0FAA3E0F913
:102843009001AFE0F582758300120921F59FE490B2
:1028530001B0F09001AFE004F0E0C39D403AE4F032
:102863009001B1800D9001B0E004F0E0C394C84042
:1028730027A3E0FBA3E0FAA3E0F990002CE4801582
:10288300E49001AFF0A3F0A3E0FBA3E0FAA3E0F927
:1028930090002D74011209B522787FE4F6D8FD75F6
:1028A30081070228E3020003E493A3F8E493A3401F
:1028B30003F68001F208DFF48029E493A3F85407B8
:1028C300240CC8C333C4540F4420C8834004F456B3
:1028D300800146F6DFE4800B0102040810204080EB
:1028E3009015CAE47E019360BCA3FF543F30E50911
:1028F300541FFEE493A360010ECF54C025E060A8EB
:1029030040B8E493A3FAE493A3F8E493A3C8C5827D
:10291300C8CAC583CAF0A3C8C582C8CAC583CADFEB
:10292300E9DEE780BE90013CEBF0A3EAF0A3E9F017
:1029330090013CE0FBA3E0FAA3E0F99000691209DF
:102943002164046061122FE290013CE0FBA3E0FAF2
:10295300A3E0F990004C120921640970491218EAA6
:1029630090013CE0FBA3E0FAA3E0F9120B489001CD
:102973003CE0FBA3E0FAA3E0F9120DDB90013CE09D
:10298300FBA3E0FAA3E0F912263390013CE0FBA39A
:10299300E0FAA3E0F91221D990013CE0FBA3E0FAAD
:1029A300A3E0F91204D222C0E0C0F0C083C082C009
:1029B300D075D000C000C001C002C003C004C00570
:1029C300C006C007C2CF9001AEE004F0E0FFD3948D
:1029D300014011EF30E00D9001ADE013F0308504BC
:1029E300E04480F09001AEE0C394114018E4F0435A
:1029F300C60243A908C2CA75CBFC75CABE9001AD15
:102A0300E0FF1224DED007D006D005D004D003D0D7
:102A130002D001D000D0D0D082D083D0F0D0E03229
:102A230090013CEBF0A3EAF0A3E9F090013CE0FB5A
:102A3300A3E0FAA3E0F9900069120921640460504D
:102A43001220C190013CE0FBA3E0FAA3E0F990005F
:102A53004C120921B40A39E92414F9E43AFA12317F
:102A63001990013CE0FBA3E0FAA3E02451F9E43A16
:102A7300FA122E9390013CE0FBA3E0FAA3E0F912D3
:102A830030CD90013CE0FBA3E0FAA3E0F9122589E5
:102A93002243CF10E4FFFEE490013FF0A3F0900146
:102AA30040E004F0700690013FE004F090013FE045
:102AB300B403EBA3E0B4E8E60FBF00010EEF64C874
:102AC3004E70D443CF10900182E0FF123269E4FECE
:102AD300FFE490013FF0A3F0900140E004F07006A2
:102AE30090013FE004F090013FE0B403EBA3E0B4B6
:102AF300E8E60FBF00010EEF64C84E70D443CF1059
:102B030022900004120921B4011A900006740112E4
:102B13000970900006120921C3940A400E90000622
:102B2300740A8004900006E41209B59000031209A8
:102B330021B4011A90000574011209709000051266
:102B43000921C39401400E90000574018004900094
:102B530005E41209B590000774011209709000078B
:102B6300120921C394784007900007E41209B522A3
:102B730090013CEBF0A3EAF0A3E9F090006912099D
:102B8300216404705843CF10900181E014602F0436
:102B9300704B900181E004F090013CE0FBA3E0FA6C
:102BA300A3E0F990004974021209B57F0212326959
:102BB30090013CE0FBA3E0FAA3E0F90226D79001E1
:102BC3003CE0FBA3E0FAA3E0F9900049120921B429
:102BD300030B1234EF1232A6E4900181F02290002D
:102BE3004C1209216409705E90005D120921FF9067
:102BF300016AE06F6007EFF0E4A3F0A3F0EF1424A1
:102C0300FD500D24047029E490016BF0A3F08020A3
:102C130090005F120921B4051790005E120921B4D8
:102C2300050E90016CE004F0700690016BE004F077
:102C3300C390016CE0942090016BE0941C400790DA
:102C4300005DE41209B522C0E0C0F0C083C082C0B9
:102C5300D075D000C000C001C002C003C004C005CD
:102C6300C006C007E59D30E11E539DFD9001B1E014
:102C7300FBA3E0FAA3E0F990002D74011209B590CB
:102C8300002B74011209B5E59D30E008539DFEAF9A
:102C93009F121E6CD007D006D005D004D003D002FB
:102CA300D001D000D0D0D082D083D0F0D0E0329009
:102CB3000008120921605E900008E41209B5900033
:102CC30009E41209B5900012120A3EFFAEF090001B
:102CD3000A120A3EFDACF0C39FEC9E5010ED540760
:102CE300FF122D7D90000AE475F0018022900012FE
:102CF300120A3EFFD3ED9FEC95F0401690000A12A6
:102D03000A3E5407FF122D7D90000A74FFF5F0026E
:102D13000A7612356922900001120921605B900046
:102D230001E41209B5E41209A3900006120A3EFF5A
:102D3300AEF0900002120A3EFDACF0C39FEC9E5031
:102D430010ED5407FF122DDC900002E475F00180B2
:102D530022900006120A3EFFD3ED9FEC95F0401639
:102D6300900002120A3E5407FF122DDC90000274F9
:102D7300FFF5F0020A7612357222EFB408005058BC
:102D8300902D8AF8282873022DA2022DA8022DAEB9
:102D9300022DB7022DBD022DC6022DCF022DD3D297
:102DA300A5C2A4800AD2A5D2A48004C2A5D2A4C27B
:102DB300A3C2A222C2A5D2A48004C2A5C2A4D2A344
:102DC300C2A222C2A5C2A4D2A3D2A222C2A58002B9
:102DD300D2A5C2A4C2A3D2A222EFB4080050589035
:102DE3002DE9F8282873022E01022E07022E0D0268
:102DF3002E16022E1C022E25022E2E022E32D281D8
:102E0300C282800AD281D2828004C281D282C283EA
:102E1300C28422C281D2828004C281C282D283C28E
:102E23008422C281C282D283D28422C2818002D20E
:102E330081C282C283D28422900043E475F00112DE
:102E43000A76900047E475F001120A769000431267
:102E53000A3EC39496E5F094004012900043E47553
:102E6300F096120AC390004274011209B59000470C
:102E7300120A3EC39420E5F0940340139000477474
:102E83000375F020120AC390004674011209B5229B
:102E9300900137E0C31330E004740280027403121C
:102EA30009A3900137E0FCEC1313543F9000013069
:102EB300E0047402800274031209B5EC1313135473
:102EC3001F90000530E0047402800274031209B5F8
:102ED300900137E0C4540F90000630E00474028080
:102EE3000274031209B52290013CEBF0A3EAF0A3AC
:102EF300E9F07E007F147D0090013CE0FBA3E0FA43
:102F0300A3E0F9120B0690013CE0FBA3E0FAA3E077
:102F1300F9900010740275F0AB120AC390000C74A0
:102F23000575F055120AC390000A740575F0DC129A
:102F33000AC3900002740575F0DC020AC3C0E0C046
:102F4300F0C083C082C0D075D000C000C001C002F1
:102F5300C003C004C005C006C007758CF8758A8617
:102F63009000CA7401F09001B1E0FBA3E0FAA3E082
:102F7300F912002ED007D006D005D004D003D0021A
:102F8300D001D000D0D0D082D083D0F0D0E0329026
:102F93000016120921FDB4060BE4900183F09000A2
:102FA300E6E0802AED6408600A90001612092164A5
:102FB30009701F900183E004F0E0C394044002E42D
:102FC300F0900183E0C394029000E6E0500D4404C6
:102FD300F022E4900183F09000E6E054FBF02290AD
:102FE300013FEBF0A3EAF0A3E9F090013FE0FBA37C
:102FF300E0FAA3E0F990001F120921603090001F4E
:10300300E41209B590001812092124F2601104702A
:103013001C90013FE0FBA3E0FAA3E0F9020FF0905C
:10302300013FE0FBA3E0FAA3E0F9121D2C2290007C
:103033003F74031209B590004174031209B590005F
:103043004574031209B590004974031209B5900041
:1030530040E41209B5900043E4F5F0120AC390006E
:1030630042E41209B5900047E4F5F0120AC3900058
:1030730046E41209B590004AE40209B590013CEB1D
:10308300F0A3EAF0A3E9F090013CE0FBA3E0FAA38C
:10309300E0F99000691209216404602D12242D9037
:1030A300013CE0FBA3E0FAA3E0F9122CB290013C4F
:1030B300E0FBA3E0FAA3E0F9122D1990013CE0FB39
:1030C300A3E0FAA3E0F912338622900137E0FCEC87
:1030D30030E01490000E120A3E45F0701390000E7B
:1030E300740475F000800690000EE4F5F0120AC334
:1030F300ECC413540730E014900004120A3E45F068
:103103007013900004740475F0008006900004E4CA
:10311300F5F0120AC322900137E0FEA3E0FF90000E
:103123000130E0047402800274031209B5EEC31384
:10313300EF1390000330E004740480027405120955
:10314300B5900137E0FEA3E07802CEC313CE13D8C7
:10315300F990000230E0047406800274071209B586
:1031630022900141EBF0A3EAF0A3E9F0E4FFEFC3FF
:103173009D5032900141E0FBA3E0FAA3E0F98F8276
:10318300758300120921F59F9001B1E0FBA3E0FADA
:10319300A3E0F990002B12092160ED90002BE412BB
:1031A30009B50F80C92290013CEBF0A3EAF0A3E933
:1031B300F090013CE0FBA3E0FAA3E0F99000691270
:1031C30009216404601F122F9290013CE0FBA3E0ED
:1031D300FAA3E0F91234C390013CE0FBA3E0FAA3A5
:1031E300E0F91234D92290013CEBF0A3EAF0A3E911
:1031F300F090005B120921B402109001B7E004F0D3
:10320300E0D394024012E4F0800090013CE0FBA381
:10321300E0FAA3E0F912343390013CE0FBA3E0FAB7
:10322300A3E0F902347690013CEBF0A3EAF0A3E9C2
:10323300F090013CE0FBA3E0FAA3E0F990006912EF
:1032430009216404601F12352A90013CE0FBA3E0CE
:10325300FAA3E0F912353990013CE0FBA3E0FAA3AD
:10326300E0F912349122EF14600E14601E240270F0
:1032730031121F9E7D0680257B017A017970121120
:10328300F87B017A0179707D0A8012121F9E7A0100
:1032930079761211F87B017A0179707D107C001226
:1032A300358422D2A2122A94C2A2D2A3122A94C291
:1032B300A3D2A4122A94C2A4D2A5122A94C2A5D23C
:1032C30084122A94C284D283122A94C283D2821291
:1032D3002A94C282D281122A94C28122E4FFAE05CB
:1032E3001DEE60307E80EED39400401FEF30E70781
:1032F30025E06407FF8004EF25E0FF1209085E6004
:1033030004EF6407FFEEC313FE80DB740129F9E4C5
:103313003AFA80CA229001B8E0FBA3E0FAA3E0F9ED
:103323001230319001B8E0FBA3E0FAA3E0F91227D1
:10333300819001B8E0FBA3E0FAA3E0F912357B909A
:1033430001B8E0FBA3E0FAA3E0F9022EEA900191B1
:103353007458F0A304F0A37404F0A3740AF090006B
:1033630002120921900195F09000031209219001A6
:1033730096F07B017A0179917D061232DF900197F5
:10338300EFF02290005D120921FF64016004EFB4A5
:103393000223900056120921B4021A90000A120A5D
:1033A3003EFFAEF0D394ABEE9402400990000CEED6
:1033B3008FF0120AC3229001B8E0FBA3E0FAA3E066
:1033C300F990004174021209B590004C7409120976
:1033D300B57E007F087D007B017A0079CA020B0667
:1033E300438E05438901758CF8758A86C28CD2A9F0
:1033F300D28C75CBFC75CABEC2CAD2ADD2CAD2BDFD
:1034030043FEC143FF8243CF1022120908640270B6
:103413001590000104120970900001120921D39440
:10342300015003C29522900001E41209B5C295220E
:103433009000097401120970900009120921C394C4
:1034430004401090000974041209B5900008740137
:103453001209B522759A1F759B607591E0759210DC
:1034630075A1FC75A203E4F5C775C60243A9084319
:10347300B90822740112094E120908C39404400DBD
:1034830074041209A390000174011209B52290007B
:103493005612092164026009900057120921B402EF
:1034A30003D2A622C2A622C2A6C280C2A7C296C2C5
:1034B300A5C2A4C2A3C2A2C281C282C283C2842201
:1034C3009000151209219000E6B40205E04401F0D2
:1034D30022E054FEF0229000171209219000E6B476
:1034E3000405E04402F022E054FDF022D296122AB1
:1034F30094C296D2A6122A94C2A6D280122A94C249
:10350300802290004B120921C39450400790005D24
:10351300E41209B522438FC0759D50759E8275953F
:103523000643A901D2AF22900051120921B402032C
:10353300D28022C28022900052120921B40203D207
:103543009622C2962253A9F775C600D2CA75CBFC40
:1035530075CABE321233181233B902003812345707
:103563001233E3023518C2A5C2A4C2A3C2A222C267
:1035730081C282C283C28422900065E4F5F0020A0C
:10358300C3023164000000000000000000000000DE
:0F35930000000000000000000000000000000029
:00000001FF
