:10000000021CDA12286D1211DC80FB022341D29609
:10001000121F55C296D297121F55C297D2A6121F11
:1000200055C2A6D280121F55C28022021E6BE9243F
:1000300036F9E43AFA0226CC02287602210B900027
:1000400043120165B4090AE92454F9E43AFA121F8B
:02005000C522C7
:1000530002285EE709F608DFFA8046E709F208DFBF
:10006300FA803E88828C83E709F0A3DFFA8032E3CB
:1000730009F608DFFA8078E309F208DFFA8070886E
:10008300828C83E309F0A3DFFA806489828A83E0A8
:10009300A3F608DFFA805889828A83E0A3F208DF97
:1000A300FA804C80D280FA80C680D4806980F28046
:1000B30033801080A680EA809A80A880DA80E2806C
:1000C300CA803389828A83ECFAE493A3C8C582C8C1
:1000D300CCC583CCF0A3C8C582C8CCC583CCDFE92B
:1000E300DEE7800D89828A83E493A3F608DFF9ECC7
:1000F300FAA9F0EDFB2289828A83ECFAE0A3C8C552
:1001030082C8CCC583CCF0A3C8C582C8CCC583CC78
:10011300DFEADEE880DB89828A83E493A3F208DFE7
:10012300F980CC88F0EF60010E4E60C388F0ED24B7
:1001330002B4040050B9F582EB2402B4040050AFBA
:1001430023234582239000A673BB010689828A83F9
:10015300E0225002E722BBFE02E32289828A83E483
:100163009322BB010CE58229F582E5833AF583E00E
:10017300225006E92582F8E622BBFE06E92582F82D
:10018300E222E58229F582E5833AF583E49322BBF3
:10019300010FF8E58229F582E5833AF583E028F03B
:1001A300225009C58229F8E58226F622BBFE09C53D
:1001B3008229F8E22582F222F8EA2583F583E9937E
:1001C3002822BB010689828A83F0225002F722BBD0
:1001D300FE01F322F8BB010DE58229F582E5833A9E
:1001E300F583E8F0225006E92582C8F622BBFE0516
:1001F300E92582C8F222BC000BBE0029EF8DF084F2
:10020300FFADF022E4CCF875F008EF2FFFEE33FEDC
:10021300EC33FCEE9DEC984005FCEE9DFE0FD5F013
:10022300E9E4CEFD22EDF8F5F0EE8420D21CFEAD1C
:10023300F075F008EF2FFFED33FD4007985006D51A
:10024300F0F222C398FD0FD5F0EA22BB0110E5823C
:1002530029F582E5833AF583E0F5F0A3E02250091E
:10026300E92582F886F008E622BBFE0AE92582F832
:10027300E2F5F008E222E5832AF583E993F5F0A39A
:10028300E99322BB010DC58229C582C5833AC58383
:100293000203425011C58229F808E5F026F618F545
:1002A300F0E58236F622BBFE11C58229F808E22565
:1002B300F0F5F0F218E23582F222F8E58229F582B0
:1002C300E5832AF58374019325F0F5F0E49338224E
:1002D300F8BB0111E58229F582E5833AF583E8F05D
:1002E300E5F0A3F0225009E92582C8F608A6F0221A
:1002F300BBFE09E92582C8F2E5F008F222EB9FF57F
:10030300F0EA9E42F0E99D42F0EC6480C864809874
:1003130045F022EF4E6012EF60010EEDBB010B8939
:10032300828A83F0A3DFFCDEFA2289F05007F70903
:10033300DFFCA9F022BBFEFCF309DFFCA9F022C518
:10034300F0F8A3E028F0C5F0F8E5821582700215F5
:1003530083E038F02290006CEBF0A3EAF0A3E9F01D
:100363002454F9E43AFA120EDB90006CE0FBA3E0AC
:10037300FAA3E0F990005412016514603E14606D15
:100383001470030205082403600302053990004C2E
:10039300120165B4040790005AE41201D790004992
:1003A30074031201D7900057E41201D7900059E467
:1003B3001201D7900045740802053690006CE0FBEB
:1003C300A3E0FAA3E0F990004C120165B40407908E
:1003D300005AE41201D790004974031201D7900028
:1003E30057E41201D7900059740102053690006C4E
:1003F300E0FBA3E0FAA3E0F990005A120165C3946D
:100403000A4051900053120165B4022A90004B1226
:100413000165B4020E900057E41201D7900059E42D
:100423001201D790006CE0FBA3E0FAA3E0F990007F
:100433004B74030204CC90006CE0FBA3E0FAA3E04E
:10044300F990000412024EFF900006E5F08FF012BF
:1004530002D380789000AFE06408707090006CE085
:10046300FBA3E0FAA3E0F990004B1201656402706C
:100473005B9000B2E0FF9000B1E0FEC39F400DEE41
:100483009FC3940A7F0450027F058015EE2478FFF2
:100493009000B2E0FEC3EF9EC3940A7F0450027F34
:1004A30005BF052890005774011201D790004B74C3
:1004B300031201D790005A740A1201D7900059749D
:1004C300011201D790005374021201D790006CE01F
:1004D300FBA3E0FAA3E0F9900059120165C394016C
:1004E300405490004B1201656403704A900053120C
:1004F30001656402704090004974021201D79000B4
:100503005A740A802E90006CE0FBA3E0FAA3E0F992
:1005130090004C120165B4040790005AE41201D70D
:1005230090004974031201D7900057E41201D79049
:100533000059E41201D790006CE0FBA3E0FAA3E0BA
:10054300F9900049120165FF90004A120165FE6FA0
:100553006037EFB402189000B0E0700A90005B12AD
:1005630001659000B3F09000B07401F08005E49051
:1005730000B0F090006CE0FBA3E0FAA3E0F9900078
:100583004912016590004A805BEE64027046900058
:100593006CE0FBA3E0FAA3E0F990005B120165FFB6
:1005A3009000B3E0FEEFC39E400DEF9EC394007F27
:1005B3000450027F05801390005B1201652478C309
:1005C3009EC394007F0450027F05BF041A90004C21
:1005D3007404801090006CE0FBA3E0FAA3E0F990B0
:1005E300004C74051201D72290006CEBF0A3EAF0E3
:1005F300A3E9F078717C007D017BFF7A2879947EF2
:10060300007F0412012678757C007D017BFF7A2828
:1006130079987E007F0312012690006CE0FBA3E033
:10062300FAA3E0F990000612024EFF900071E5F084
:10063300F0A3EFF090000212024EFF900073E5F07A
:10064300F0A3EFF090004D120165900075F090005B
:100653004E120165900076F09000491201659000FA
:1006630077F0E490006FF0A3F0900071E0FEA3E058
:10067300FF4E6022C3EF94ABEE940250047F0480DC
:1006830017D3900072E09455900071E094057F05B4
:1006930040027F0480027F05BF041E90006CE0FBD4
:1006A300A3E0FAA3E0F9900006E4F5F01202D39078
:1006B300006FE0F0A3E04401F0900071E07002A34A
:1006C300E060047F05800B900075E07F05B40202B3
:1006D3007F04BF041D90006CE0FBA3E0FAA3E0F9E4
:1006E30090004D74031201D790006FE0F0A3E04433
:1006F30002F0900075E06402705890000AE0FEA3D7
:10070300E0FF90000EE0FCA3E0FDD39FEC9E4015BC
:10071300ED9FFFEC9EFED3EF9424EE94007F054003
:10072300027F04802290000EE0FEA3E0FFC390004E
:100733000BE09FFF90000AE09EFED3EF9424EE941B
:10074300007F0540027F04BF04047F0480067F0509
:1007530080027F05EF6404705D90006CE0FBA3E012
:10076300FAA3E0F990000212024EFFAEF04E602BA6
:10077300C3EF94ABEE940250047F05801390000204
:1007830012024ED39455E5F094057F0440027F0591
:10079300BF050890005274031201D7900052120152
:1007A30065B4031290004D74031201D790006FE0FB
:1007B300F0A3E04404F0900076E0FFB4020BA3E062
:1007C3007E05B402027E0480027E05BE041D9000F5
:1007D3006CE0FBA3E0FAA3E0F99000497403120173
:1007E300D790006FE0F0A3E04408F0900075E0FEBE
:1007F300B4020AEF7F05B402027F0480027F05BFC3
:10080300041D90006CE0FBA3E0FAA3E0F990004E16
:1008130074031201D790006FE0F0A3E04410F0EEF0
:10082300B4030D900077E07F05B402027F048002D9
:100833007F05BF041D90006CE0FBA3E0FAA3E0F981
:1008430090004974031201D790006FE0F0A3E044D5
:1008530020F090006FE0FEA3E0FF90006CE0FBA3AC
:10086300E0FAA3E0F990005EEE8FF00202D390006D
:1008730069EBF0A3EAF0A3E9F0E4A3F0900069E0E8
:10088300FBA3E0FAA3E0F990006012016564047031
:1008930003020AEE9000B97468F090005E12024EF3
:1008A30045F07003020A709000BA7402F090006978
:1008B300E0FBA3E0FAA3E0F990000C1201659000BD
:1008C300BBF09000C3E0C394024003020A5B9000B4
:1008D3005E12024EFD30E0057E000209D5ED30E1E7
:1008E300057E010209D5900069E0FBA3E0FAA3E0CD
:1008F300F990005E12024EFD30E2057E020209D538
:10090300ED30E3057E030209D5900069E0FBA3E027
:10091300FAA3E0F990005E12024EFD30E4057E0476
:100923000209D5ED30E5057E050209D5900069E0A1
:10093300FBA3E0FAA3E0F990005E12024EFD30E65D
:10094300057E060209D5ED30E7057E070209D5903D
:100953000069E0FBA3E0FAA3E0F990005E12024E07
:10096300ACF0EC30E0047E088068EC30E1047E09F2
:100973008060900069E0FBA3E0FAA3E0F990005ED9
:1009830012024EACF0EC30E2047E0A8045EC30E318
:10099300047E0B803D900069E0FBA3E0FAA3E0F93D
:1009A30090005E12024EACF0EC30E4047E0C802228
:1009B300EC30E5047E0D801A900069E0FBA3E0FAB9
:1009C300A3E0F990005E12024EE5F07E0F30E602DE
:1009D3007E0EEE70047E3F8078EEB401047E0680C6
:1009E30070EEB402047E5B8068EEB403047E4F8035
:1009F30060EEB404047E668058EEB405047E6D8018
:100A030050EEB406047E7D8048EEB407047E078072
:100A130040EEB408047E7F8038EEB409047E6F8014
:100A230030EEB40A047E778028EEB40B047E7C801B
:100A330020EEB40C047E398018EEB40D047E5E8083
:100A430010EEB40E047E798008EE7E00B40F027EB1
:100A5300719000BCEEF08005E49000BCF09000C300
:100A6300E004F0E0C394044022E4F0801E9000BA56
:100A73007401F0900069E0FBA3E0FAA3E0F99000B1
:100A83000C1201659000BBF0E4A3F09000BAE0FF04
:100A93009000B9E02FFF9000BBE02FFFA3E02FA34E
:100AA300F0A37416F07F06900069E0FBA3E0FAA3BD
:100AB300E0F9900025EF1201D77E00900069E0FB7A
:100AC300A3E0FAA3E02426F9E43AA801FCAD037BF2
:100AD300017A0079B9120126900069E0FBA3E0FADC
:100AE300A3E0F990002374011201D72290006CEB6C
:100AF300F0A3EAF0A3E9F0E4A3F078707C007D01B1
:100B03007BFF7A28799BFE7F0B12012690006CE015
:100B1300FBA3E0FAA3E02417F9E43AFA78707C0027
:100B23007D017E007F0B1201267E007F0B7D0090EE
:100B3300006CE0FBA3E0FAA3E02417F9E43AFA120D
:100B43000316E4FF74702FF582E43400F583E0FEAE
:100B530090006FE02EF00FEFB405E974702FF5826B
:100B6300E43400F583E0FF90006FE06F6003020C54
:100B7300FE900073E0FE900072E07C002400FFEC26
:100B83003EFE90006CE0FBA3E0FAA3E0F990004680
:100B9300EE8FF01202D390004612024EFFAEF030F9
:100BA300E01390006CE0FBA3E0FAA3E0F9900044AB
:100BB3007401020C97EEC313EF1330E01390006C33
:100BC300E0FBA3E0FAA3E0F99000447402020C975F
:100BD30090006CE0FBA3E0FAA3E0F9900046120258
:100BE3004EFDACF0AE047802CEC313CE13D8F93069
:100BF300E0089000447403020C97EDAE047803CE32
:100C0300C313CE13D8F930E0089000447404020CE7
:100C13009790004612024EFDACF0ECC4F854F0C8B5
:100C2300EDC4540F4830E00790004474058065ED2F
:100C3300AE047805CEC313CE13D8F930E007900085
:100C4300447406804F90004612024EFDACF0AE0491
:100C53007806CEC313CE13D8F930E007900044745E
:100C6300078031EDAE047807CEC313CE13D8F93025
:100C7300E0079000447408801B90004612024EE582
:100C8300F030E01390006CE0FBA3E0FAA3E0F990EE
:100C9300004474091201D790006CE0FBA3E0FAA3AF
:100CA300E0F9900044120165603A90004312016537
:100CB300B40A317E007F027D00E9245CF9E43AFA4C
:100CC30012031690006CE0FBA3E0FAA3E0F9121DF7
:100CD3006690006CE0FBA3E0FAA3E0F99000437494
:100CE300091201D7900074E0FF90006CE0FBA3E0D1
:100CF300FAA3E0F9900042EF1201D72290005412B8
:100D0300016514602E14602B147003020EA52403D6
:100D13006003020EDA90005A120165C3940A40037D
:100D2300020EB090004F12016564026003020EDAF6
:100D3300020EC990005A740A1201D7900051120191
:100D430065702F9000B47406F09000517401120185
:100D5300D7900006740575F0551202D39000047401
:100D63000575F0551202D3900008740275F0AB02BA
:100D73000ED790004F12016564026003020E70905B
:100D830000B4E024F9604614607E24026003020E7E
:100D93008190000412024EFF900006E5F08FF012DE
:100DA30002D390000212024EFFAEF0900006120230
:100DB3004E6F7003E5F06E6003020E819000537472
:100DC300021201D79000B47407F0020E8190005311
:100DD30074021201D790000812024EFF900006E53C
:100DE300F08FF01202D390000212024EFFAEF09089
:100DF300000612024E6F7003E5F06E6003020E816F
:100E03009000B47408F0807690005374021201D7F6
:100E130090000212024EFFAEF0BE0518BF551590AA
:100E23000006740275F0AB1202D3900008740275C9
:100E3300F0AB8047BE0218BFAB1590000674057572
:100E4300F0551202D3900008740575F055802C906C
:100E5300000612024E6F7003E5F06E7021900008D9
:100E630012024EFF900006E5F08FF0800E90000412
:100E730012024EFF900006E5F08FF01202D39000AD
:100E83000AE0FEA3E0FF90000EE06E7003A3E06FA4
:100E93007F0460027F05EF6404703C90005374028A
:100EA300801890005A120165C3940A4010900006FE
:100EB300E4F5F01202D3900051E40201D790004F01
:100EC300120165B4021190000412024EFF90000655
:100ED300E5F08FF01202D32290006FEBF0A3EAF05B
:100EE300A3E9F0900002120165FF6404601890000A
:100EF3006FE0FBA3E0FAA3E0F9900001120165643F
:100F030004600302105CEFB4041B9000AEE0640BBA
:100F1300600BE49000AAF09000ACF0A3F09000AE58
:100F2300740BF080199000AEE0640C600BE4900049
:100F3300AAF09000ACF0A3F09000AE740CF0900017
:100F43006FE0FBA3E0FAA3E0F9900002120165B49D
:100F5300042B9000ACE0FEA3E0FF7C037D84120130
:100F6300F9C3ED944EEC940250047402803E900059
:100F73006FE0FBA3E0FAA3E0F97403802F9000ACC9
:100F8300E0FEA3E0FF7C037D841201F9C3ED9458D6
:100F9300EC940290006FE0FB500AA3E0FAA3E0F99F
:100FA30074018008A3E0FAA3E0F974031201C59069
:100FB30000AAE0701704F090006FE0FBA3E0FAA32F
:100FC300E0F99000071201659000ABF090006FE02C
:100FD300FBA3E0FAA3E0F9900007120165FF90007C
:100FE300ABE0FEEFC39E400DEF9EC394017F045020
:100FF300027F0580139000071201652478C39EC306
:1010030094017F0450027F05EF6404705190000740
:101013001201659000ABF09000ADE004F070069013
:1010230000ACE004F0C39000ADE094109000ACE09D
:10103300940E402AE41201C590006FE0FBA3E0FA8E
:10104300A3E0F9900002120165B404059000028048
:101053000390000174050201D7E49000AEF02290E2
:10106300004412016514B4090040030211D5901025
:101073007F75F003A4C58325F0C583730211B802FD
:1010830010BA0210DE0211010211850211D50211FC
:101093002C02109A021155900045120165640860F4
:1010A3003790004574081201D7900038740212017A
:1010B300D7900054E4806690004512016564026095
:1010C3001790004574021201D79000387402120180
:1010D300D79000547401804502117E90004512019F
:1010E300656403601790004574031201D7900038BC
:1010F30074021201D790005474038021807D900004
:10110300451201656404601F90004574041201D701
:1011130090003874021201D790005474021201D760
:101123009000567405804A80529000451201656410
:1011330007601D90004574071201D79000387402B0
:101143001201D790005574041201D79000568027DE
:1011530080299000451201656409601F9000457461
:10116300091201D790003874021201D79000567407
:10117300041201D790005574058054900040740206
:10118300804D900054120165FF64016005EF640215
:10119300701C90003874021201D790004F12016541
:1011A30090004FB4030474028025740380219000DF
:1011B300407402801A90003874021201D7900048DC
:1011C300120165900048B403047402800274031290
:1011D30001D7900044E40201D7900000E06006E4E8
:1011E300F0A3E004F0900001E0C39408405BE4F056
:1011F300A3E004F09000CFE0FBA3E0FAA3E0F91230
:1012030022929000CFE0FBA3E0FAA3E0F9122612AA
:101213009000CFE0FBA3E0FAA3E0F912259A900037
:10122300CFE0FBA3E0FAA3E02426F9E43AFAC002F4
:10123300C0019000CFA3E0FAA3E0F99000251201CA
:1012430065FDD001D002121C49900002E0C3940A4C
:101253004028E4F0A3E004F0900005E004F09000DF
:10126300CFE0FBA3E0FAA3E0F9121DE99000CFE081
:10127300FBA3E0FAA3E0F9121EE4900003E0C39499
:10128300054014E4F0A3E004F09000CFE0FBA3E0FA
:10129300FAA3E0F912134C900004E0C39402401047
:1012A300E4F09000CFE0FBA3E0FAA3E0F912185CAE
:1012B300900005E0C394184033E4F0A3E004F090F9
:1012C30000CFE0FBA3E0FAA3E0F91224319000CFB2
:1012D300E0FBA3E0FAA3E0F912255A9000CFE0FB6C
:1012E300A3E0FAA3E0F912087143CF10900006E0DF
:1012F300C39402401EE4F0A3E004F012277C9000A4
:10130300CFE0FBA3E0FAA3E0F9900060EF1201D76E
:10131300122034900007E0C39402402CE4F09000C4
:10132300CFE0FBA3E0FAA3E0F912003E9000CFE088
:10133300FBA3E0FAA3E0F91220A29000CFE0FBA305
:10134300E0FAA3E0F91227EC229000381201656459
:1013530002703A900036120165B403189000367497
:10136300021201D790003AE4F5F01202D39000394B
:10137300E41201D790003912016570030214A3909F
:10138300003674031201D790003802148890003C91
:101393001201656402703A900036120165B40318B5
:1013A30090003674021201D790003EE4F5F0120269
:1013B300D390003DE41201D790003D120165700304
:1013C3000214A390003674031201D790003C021458
:1013D30088900040120165640260030214A3900028
:1013E30041120165FF704B900036120165B403187A
:1013F30090003674021201D790003AE4F5F012021D
:10140300D3900039E41201D79000391201657003BB
:101413000214A390003674031201D79000417401A3
:101423001201D790003AE4F5F01202D3900039E4A8
:10143300806BEF6401705290003612016564037093
:101443002090003912016560189000367402120171
:10145300D790003AE4F5F01202D3900039E4120178
:10146300D79000361201656402703590003912017D
:1014730065602D900041E41201D790003674031289
:1014830001D790004074038014900041E41201D707
:1014930090003674031201D790004074031201D7F1
:1014A3002274681201C590000174021201D79000E2
:1014B300A9E0147003021549147003021557147040
:1014C30003021565147003021573240460030215E7
:1014D3008A900096E0FF700F90000274071201D704
:1014E300900003747F804CEFC394045016EF14FFF5
:1014F30074017E00A807088005C333CE33CED8F924
:10150300FF80027F00900002EF1201D7900096E067
:10151300FFC394044017EF24FCFF74017E00A80767
:10152300088005C333CE33CED8F9FF80027F009005
:101533000003EF1201D7900096E004F0E0D3940A81
:101543004053E4F0804F900002E41201D79000036F
:10155300745C803E900002E41201D7900003747C17
:101563008030900002E41201D79000037458802267
:1015730090000274071201D7900003747F1201D701
:10158300E4900096F0800E900002E41201D79000E0
:1015930003E41201D7900001120165FF12014C2FE1
:1015A300FF9000021201652FFF9000031201652FC7
:1015B3009000041201D790000574160201D7900021
:1015C3006CEBF0A3EAF0A3E9F0E4A3F078707C00FD
:1015D3007D017BFF7A2879A6FE7F05120126900004
:1015E3006CE0FBA3E0FAA3E0F99000101201657030
:1015F300030216D8900010E41201D7E92411F9E48C
:101603003AFA78707C007D017E007F051201267E08
:10161300007F057D0090006CE0FBA3E0FAA3E024CB
:1016230011F9E43AFA120316E4FF74702FF582E419
:101633003400F583E0FE90006FE02EF00FEFB4046A
:10164300E974702FF582E43400F583E0FF90006FB6
:10165300E06F60030216D8900072E0FE900071E024
:101663007C002400FFEC3E9000D2F0A3EFF090004A
:101673006CE0FBA3E0FAA3E0F990005C12024EFFDA
:101683009000D2E065F07003A3E06F6048900043E0
:10169300120165B409237E007F187D00E92444F913
:1016A300E43AFA12031690006CE0FBA3E0FAA3E01D
:1016B300F9900043740A1201D79000D2E0FEA3E030
:1016C300FF90006CE0FBA3E0FAA3E0F990005CEE6E
:1016D3008FF01202D32290007E7401F0A37400F005
:1016E300A37418F090008AE0248BF582E43400F5AB
:1016F30083EFF090008AE004F0900089E024F96021
:1017030040146047240260030217A890008BE06432
:10171300687028A3E0FFB4010D90008A7402F09072
:1017230000897407F022EFB4680790008A7401F00F
:101733002290008AE06402706CF022E490008AF048
:10174300229000887407F0A304F022900088E0FF41
:1017530090008AE0C39F404D90007EE0FBA3E0FA37
:10176300A3E0F990000674011201D77E0090007E79
:10177300E0FBA3E0FAA3E02407F9E43AA801FCADF7
:10178300037B017A00798B120126900088E0FF7EAB
:10179300007D007B017A00798B1203169000897417
:1017A30006F0E4A3F0224300CF0100084100AA00A1
:1017B3004100AB004200AC00004100AE004200AF6C
:1017C30006004100B1004100B2004100B3004100F6
:1017D300B4064100B5004200B600004100B8004A1B
:1017E30000B9000000000000000000004100C30039
:1017F3004200CB00004100CD064100CE00410096DF
:1018030000500097000000000000000000000000EE
:10181300000000004100A7004100A8004300C801E8
:1018230000084100C4004100C5004100C60041005A
:10183300C70041008106410082004500830000008B
:1018430000004100890641008A004B008B00000024
:1018530000000000000000000090006012016564B9
:1018630004700302190E90004312016564096003BA
:1018730002190E900054120165146023146037148A
:10188300604B2403706D90005A120165C3940A9053
:10189300000E50047408800274071201D7801F9051
:1018A300000E74071201D790000F74051201D79030
:1018B300000D7402805290000E74061201D790003E
:1018C3000F74051201D790000D7403803B90005AEA
:1018D300120165C3940A90000E50047409800274C7
:1018E300071201D790000F74041201D790000D74F2
:1018F30003801590000E74071201D790000F740532
:101903001201D790000D74031201D722900064E0F6
:10191300C41313540330E07B90005274021201D7B6
:1019230090000212024EFFAEF0BE021EBFAB1B9030
:101933000006740575F0551202D390000612024E8C
:10194300FD900008E5F08DF08046BE051EBF551BD7
:10195300900006740275F0AB1202D39000061202D7
:101963004EFF900008E5F08FF080259000021202F0
:101973004EFFAEF090000612024E6F7003E5F06E5C
:10198300703390000812024EFF900006E5F08FF0CE
:101993000202D3900052120165B4021190000212A8
:1019A300024EFF900006E5F08FF01202D390005232
:1019B30074031201D72290007B7401F0A37400F02A
:1019C300A37418F0900082E0FE2483F582E43400CF
:1019D300F583EFF0900081E024F9602404707074C3
:1019E300832EF582E43400F583E0B4680C90008321
:1019F3007468F09000817407F0E4900082F0804FE7
:101A0300EEC3940440499000817406F0E4A3F0907F
:101A1300007BE0FBA3E0FAA3E0F974011201C59097
:101A2300007BE0FBA3E0FAA3E02401F9E43AA80178
:101A3300FCAD037B017A0079837E007F05120126CA
:101A43007E007F057D007B017A0079831203169067
:101A53000082E004F0E0C394054002E4F022900029
:101A63005412016514601714601414607224036027
:101A730003021B0490005274031201D7807B900071
:101A83004F120165FF9000501201656F60319000A5
:101A930050EF1201D790004F120165B40208900075
:101AA3005A740A1201D790005174011201D79000A1
:101AB3000412024EFF900006E5F08FF00202D3906D
:101AC300004F120165B40210900053120165B40275
:101AD30007900052740280269000527403801F9076
:101AE300005274031201D7900056120165B4051118
:101AF300900055120165B4050890004F740312015C
:101B0300D72290005412016514602A1460271460D0
:101B13006F24036003021BA690005A120165C3944D
:101B23000A405690004D74031201D790005374037A
:101B33001201D7804490005312016564026009903A
:101B43000052120165B4020F90005774011201D7BD
:101B530090004D7402801F90005A120165C3940ACD
:101B63004017900057E41201D790005374031201F9
:101B7300D790004D74031201D790004E7403802058
:101B830090005A120165C3940A401890004D7403E3
:101B93001201D790005374031201D790004E7402C0
:101BA3001201D72290006CEBF0A3EAF0A3E9F0E472
:101BB300A3F0A3F090006CE0FBA3E0FAA3E0F9909C
:101BC30000161201657034900070E004F070069006
:101BD300006FE004F090006FE0FEA3E0FFE4FCFD83
:101BE3007B607AEAF9F8C3120300500A90006F741D
:101BF300EAF0A37460F043CF1080B990006CE0FB6F
:101C0300A3E0FAA3E0F9900042120165FF70069089
:101C130000A904F022EFD3945040079000A9740266
:101C2300F02290006FE0FEA3E0FFE4FCFD7B607A0E
:101C3300EAF9F8C312030070079000A97403F022B5
:101C4300E49000A9F022900069EBF0A3EAF0A3E985
:101C5300F09000C8E0FBA3E0FAA3E0F990002312A0
:101C63000165605A9000241201656037900024E4F6
:101C73001201D7900069E0FBA3E0FAA3E0F990001A
:101C8300C6E0F582758300120165F59FE49000C7F5
:101C9300F09000C6E004F0E0C39D403AE4F0900009
:101CA300C8800D9000C7E004F0E0C394C84027A3A8
:101CB300E0FBA3E0FAA3E0F9900023E48015E490AD
:101CC30000C6F0A3F0A3E0FBA3E0FAA3E0F99000C1
:101CD3002474011201D722787FE4F6D8FD758107B9
:101CE300021D21020003E493A3F8E493A34003F647
:101CF3008001F208DFF48029E493A3F85407240C4D
:101D0300C8C333C4540F4420C8834004F45680012D
:101D130046F6DFE4800B0102040810204080901790
:101D2300A9E47E019360BCA3FF543F30E509541F2F
:101D3300FEE493A360010ECF54C025E060A840B831
:101D4300E493A3FAE493A3F8E493A3C8C582C8CAAF
:101D5300C583CAF0A3C8C582C8CAC583CADFE9DE82
:101D6300E780BE900054E41201D790004874031238
:101D730001D790004F74031201D7900049740312E6
:101D830001D790004D74031201D790004E740312D3
:101D930001D790004B74031201D7900050740312C3
:101DA30001D7900051E41201D7900057740112013A
:101DB300D790005874011201D7900059E41201D74B
:101DC30090005A740A1201D790005574051201D776
:101DD30090005674051201D7900023E41201D790A6
:101DE300000CE40201D7900069EBF0A3EAF0A3E949
:101DF300F0900069E0FBA3E0FAA3E0F99000601221
:101E03000165640460611227D9900069E0FBA3E0D7
:101E1300FAA3E0F9900043120165640970491210B6
:101E230062900069E0FBA3E0FAA3E0F91203589083
:101E33000069E0FBA3E0FAA3E0F9120CFF9000694C
:101E4300E0FBA3E0FAA3E0F9121A61900069E0FB5A
:101E5300A3E0FAA3E0F9121B05900069E0FBA3E0FD
:101E6300FAA3E0F91205EB22C0E0C0F0C083C08200
:101E7300C0D075D000C000C001C002C003C004C000
:101E830005C006C007C2CF9000C5E004F0E0FFD351
:101E930094014011EF30E00D9000C4E013F0308561
:101EA30004E04480F09000C5E0C394114018E4F0CE
:101EB30043C60243A908C2CA75CBFC75CABE9000CB
:101EC300C4E0FF1219B9D007D006D005D004D0035F
:101ED300D002D001D000D0D0D082D083D0F0D0E0D7
:101EE30032900069EBF0A3EAF0A3E9F0900069E017
:101EF300FBA3E0FAA3E0F9900060120165640460BB
:101F0300501215C1900069E0FBA3E0FAA3E0F99039
:101F13000043120165B40A39E9240CF9E43AFA12D0
:101F230024CA900069E0FBA3E0FAA3E02448F9E4A3
:101F33003AFA1222EA900069E0FBA3E0FAA3E0F97F
:101F4300122717900069E0FBA3E0FAA3E0F9121946
:101F53000F2243CF10E4FFFEE490006CF0A3F09057
:101F6300006DE004F0700690006CE004F090006CEB
:101F7300E0B403EBA3E0B4E8E60FBF00010EEF64A7
:101F8300C84E70D443CF109000A9E0FF1227C5E4D8
:101F9300FEFFE490006CF0A3F090006DE004F0709D
:101FA3000690006CE004F090006CE0B403EBA3E057
:101FB300B4E8E60FBF00010EEF64C84E70D443CF00
:101FC3001022900004120165B4011A9000067401F6
:101FD300120192900006120165C3940A400E90000C
:101FE30006740A8004900006E41201D790000312DD
:101FF3000165B4011A900005740112019290000565
:10200300120165C39401400E900005740180049091
:102013000005E41201D790000774011201929000A9
:1020230007120165C394784007900007E41201D7B3
:1020330022900069EBF0A3EAF0A3E9F090006012AC
:1020430001656404705843CF109000A8E014602F1A
:1020530004704B9000A8E004F0900069E0FBA3E05B
:10206300FAA3E0F990004074021201D7E4FF1227AB
:10207300C5900069E0FBA3E0FAA3E0F9021BA79077
:102083000069E0FBA3E0FAA3E0F9900040120165C8
:10209300B4030B12000E1226F2E49000A8F0229073
:1020A30000431201656409705E900054120165FFDC
:1020B3009000B5E06F6007EFF0E4A3F0A3F0EF1436
:1020C30024FD500D24047029E49000B6F0A3F080A1
:1020D30020900056120165B4051790005512016552
:1020E300B4050E9000B7E004F070069000B6E0046B
:1020F300F0C39000B7E094209000B6E0941C400732
:10210300900054E41201D722C0E0C0F0C083C08223
:10211300C0D075D000C000C001C002C003C004C05D
:1021230005C006C007E59D30E11E539DFD9000C824
:10213300E0FBA3E0FAA3E0F990002474011201D7B5
:1021430090002274011201D7E59D30E008539DFEF3
:10215300AF9F1216D9D007D006D005D004D003D034
:1021630002D001D000D0D0D082D083D0F0D0E032E2
:102173009000CDE06407703E90000612024E45F0D9
:10218300701E90000212024E45F070199000CBE0D1
:10219300701304F0900002E475F0241202D380055A
:1021A300E49000CBF090000612024EFF90000AE587
:1021B300F08FF00202D390000AE4F5F01202D390FC
:1021C300000212024E45F070069000CD7407F02213
:1021D30012014C605AE41201C59000011201D7901C
:1021E300000A12024EFFAEF090000212024EFDAC46
:1021F300F0C39FEC9E5010ED5407FF122233900062
:1022030002E475F001802290000A12024EFFD3ED22
:102213009FEC95F0401690000212024E5407FF12F5
:10222300223390000274FFF5F002028612287F2207
:10223300EFB408005058902240F82828730222581F
:1022430002225E02226402226D02227302227C02B7
:102253002285022289D2A5C2A4800AD2A5D2A48053
:1022630004C2A5D2A4C2A3C2A222C2A5D2A480043E
:10227300C2A5C2A4D2A3C2A222C2A5C2A4D2A3D27F
:10228300A222C2A58002D2A5C2A4C2A3D2A2229036
:10229300003AE475F00112028690003EE475F00105
:1022A30012028690003A12024EC39496E5F094000F
:1022B300401290003AE475F0961202D390003974FC
:1022C300011201D790003E12024EC39420E5F09410
:1022D30003401390003E740375F0201202D3900064
:1022E3003D74011201D722900064E0C31330E0046F
:1022F3007402800274031201C5900064E0FCEC13C5
:1023030013543F90000130E00474028002740312FE
:1023130001D7EC131313541F90000530E00474022B
:10232300800274031201D7900064E0C4540F90003C
:102333000630E0047402800274031201D722C0E065
:10234300C0F0C083C082C0D075D000C000C001C03F
:1023530002C003C004C005C006C007758CF8758AA7
:102363006C9000007401F09000C8E0FBA3E0FAA3B6
:10237300E0F912002ED007D006D005D004D003D048
:1023830002D001D000D0D0D082D083D0F0D0E032C0
:1023930090000E120165FDB4060BE49000B8F090B6
:1023A3000014E0802AED6408600A90000E120165B3
:1023B3006409701F9000B8E004F0E0C39404400285
:1023C300E4F09000B8E0C39402900014E0500D4490
:1023D30004F022E49000B8F0900014E054FBF022E3
:1023E30090003674031201D790003874031201D79A
:1023F30090003C74031201D790004074031201D77C
:10240300900037E41201D790003AE4F5F01202D3BA
:10241300900039E41201D790003EE4F5F01202D3A4
:1024230090003DE41201D7900041E40201D79000EF
:1024330069EBF0A3EAF0A3E9F0900069E0FBA3E005
:10244300FAA3E0F99000601201656404602D12287C
:1024530022900069E0FBA3E0FAA3E0F9122831908F
:102463000069E0FBA3E0FAA3E0F9122840900069B9
:10247300E0FBA3E0FAA3E0F912284F22900069EBF6
:10248300F0A3EAF0A3E9F07E007F0C7D00900069E1
:10249300E0FBA3E0FAA3E0F9120316900069E0FB66
:1024A300A3E0FAA3E0F9900008740275F0AB1202FE
:1024B300D3900004740575F0551202D39000027492
:1024C3000575F0DC0202D3900064E0FEA3E0FF9008
:1024D300000130E0047402800274031201D7EEC3DA
:1024E30013EF1390000330E00474048002740512A8
:1024F30001D7900064E0FEA3E07802CEC313CE13AD
:10250300D8F990000230E0047406800274071201C7
:10251300D72290006EEBF0A3EAF0A3E9F0E4FFEF1B
:10252300C39D503290006EE0FBA3E0FAA3E0F98F65
:1025330082758300120165F59F9000C8E0FBA3E05C
:10254300FAA3E0F990002212016560ED900022E405
:102553001201D70F80C922900069EBF0A3EAF0A320
:10256300E9F0900069E0FBA3E0FAA3E0F9900060D2
:102573001201656404601F122393900069E0FBA3BA
:10258300E0FAA3E0F9122799900069E0FBA3E0FACF
:10259300A3E0F91227AF22900069EBF0A3EAF0A3BE
:1025A300E9F0900069E0FBA3E0FAA3E0F990006092
:1025B3001201656404601F122173900069E0FBA39C
:1025C300E0FAA3E0F91221D3900069E0FBA3E0FA5B
:1025D300A3E0F9122645229000CFE0FBA3E0FAA383
:1025E300E0F91223E39000CFE0FBA3E0FAA3E0F9C4
:1025F300121D669000CFE0FBA3E0FAA3E0F91228D6
:10260300889000CFE0FBA3E0FAA3E0F902247F90D7
:102613000069EBF0A3EAF0A3E9F090005212016520
:10262300B402109000CEE004F0E0D394024012E430
:10263300F08000900069E0FBA3E0FAA3E0F9122721
:102643003C22900054120165FF64016004EFB40260
:102653002390004D120165B4021A90000212024E3B
:10266300FFAEF0D394ABEE94024009900004EE8FDA
:10267300F01202D3229000CFE0FBA3E0FAA3E0F92B
:1026830090003874021201D790004374091201D7E5
:102693007E007F087D007B017A00790002031643E8
:1026A3008E05438901758CF8758A6CC28CD2A9D2C8
:1026B3008C75CBFC75CABEC2CAD2ADD2CAD2BD43D9
:1026C300FEC143FF8243CF102212014C64027015F6
:1026D30090000104120192900001120165D394014C
:1026E3005003C29522900001E41201D7C29522D271
:1026F300A2121F55C2A2D2A3121F55C2A3D2A41263
:102703001F55C2A4D2A5121F55C2A5121F55121FD1
:1027130055021F55900064E030E014900006120249
:102723004E45F07013900006740575F055800690C1
:102733000006E4F5F01202D32290000174011201A5
:1027430092900001120165C39404400D900001743E
:10275300041201D774011201C522759A9F759B60FB
:102763007591E175921075A1FC75A203E4F5C77527
:10277300C60243A90843B908222094129000A7E097
:1027830004F0E0D39402400B1228117F0422E4905A
:1027930000A7F07F052290000D120165900014B48C
:1027A3000205E04401F022E054FEF02290000F12F3
:1027B3000165900014B40405E04402F022E054FDE6
:1027C300F022EF70107B017A0079971214A47D0632
:1027D3007C0012289122900016120165600A900075
:1027E30016E41201D7120AEF22900042120165C3C8
:1027F30094504007900054E41201D722438FC075D0
:102803009D50759E8275950643A901D2AF22C2A63B
:10281300C280C297C296C2A5C2A4C2A3C2A222907A
:102823000048120165B40203D28022C280229000C4
:1028330049120165B40203D29622C2962290004D3A
:10284300120165B40203D2A622C2A62290004E1240
:102853000165B40203D29722C2972253A9F775C622
:1028630000D2CA75CBFC75CABE321225DA1226789D
:1028730002003812275D1226A20227FFC2A5C2A4B6
:10288300C2A3C2A22290005CE4F5F00202D30225A7
:102893001500000000000000000000000000000020
:0828A30000000000000000002D
:00000001FF
