:100000000220B5122C9612147280FB02275DD29644
:100010001222ADC296D2971222ADC297D2A6122258
:10002000ADC2A6D2801222ADC280220221C3E92431
:100030003EF9E43AFA022B04022C9F02246390005A
:100040004B1208A1B40B0AE9245EF9E43AFA122330
:020050001D226F
:10005300022C87900076EBF0A3EAF0A3E9F0787B1B
:100063007C007D017BFF7A2C79C67E007F08120815
:100073006278837C007D017BFF7A2C79CE7E007FC2
:1000830003120862900076E0FBA3E0FAA3E0F99084
:10009300000E1209ACFF90007BE5F0F0A3EFF090A7
:1000A300000A1209ACFF90007FE5F0F0A3EFF09097
:1000B30000571208A1900083F09000581208A190F5
:1000C3000084F09000531208A1900085F0E49000A2
:1000D30079F0A3F090007DE0FEA3E04E600CC3EE48
:1000E30094047F0550027F0480027F05BF041E90A5
:1000F3000076E0FBA3E0FAA3E0F9900004E4F5F056
:10010300120A31900079E0F0A3E04401F090007B03
:10011300E0FEA3E0FF4E6022C3EF94ABEE940250E7
:10012300047F048017D390007CE0945590007BE01B
:1001330094057F0540027F0480027F05BF041E9063
:100143000076E0FBA3E0FAA3E0F990000EE4F5F0FB
:10015300120A31900079E0F0A3E04402F090007BB2
:10016300E0FEA3E0FF4E600EA3E07002A3E07D0477
:1001730060027D0580027D05BD041E900076E0FBD4
:10018300A3E0FAA3E0F990000EE4F5F0120A31902F
:100193000079E0F0A3E04404F0EF4E60047F0580B3
:1001A3001290007DE0B40409A3E0B400047F04804E
:1001B300027F05BF041E900076E0FBA3E0FAA3E0F4
:1001C300F9900004E4F5F0120A31900079E0F0A30D
:1001D300E04408F090007DE07002A3E0600D900021
:1001E30084E07F05B402027F0480027F05BF041E02
:1001F300900076E0FBA3E0FAA3E0F9900004E4F5B5
:10020300F0120A31900079E0F0A3E04410F090007E
:100213007BE07002A3E0600D900084E07F05B402F0
:10022300027F0480027F05BF041E900076E0FBA3DB
:10023300E0FAA3E0F990000EE4F5F0120A31900021
:1002430079E0F0A3E04420F0900083E0640270586A
:10025300900012E0FEA3E0FF900016E0FCA3E0FD97
:10026300D39FEC9E4015ED9FFFEC9EFED3EF940AC7
:10027300EE94007F0540027F048022900016E0FE8A
:10028300A3E0FFC3900013E09FFF900012E09EFEE7
:10029300D3EF940AEE94007F0540027F04BF040469
:1002A3007F0480067F0580027F05EF6404705D9004
:1002B3000076E0FBA3E0FAA3E0F990000A1209AC90
:1002C300FFAEF04E602BC3EF94ABEE940250047F6D
:1002D30005801390000A1209ACD39455E5F09405F8
:1002E3007F0440027F05BF020890005C740312097B
:1002F3003590005C1208A1B40312900057740312E6
:100303000935900079E0F0A3E04440F0900083E0E9
:100313006402705690000AE0FEA3E0FFA3E0FCA392
:10032300E0FDD39FEC9E4015ED9FFFEC9EFED3EFC7
:10033300940AEE94007F0540027F04802290000C13
:10034300E0FEA3E0FFC390000BE09FFF90000AE0F4
:100353009EFED3EF940AEE94007F0540027F04BF14
:1003630004047F0480067F0580027F05BF041D907F
:100373000076E0FBA3E0FAA3E0F9900057740312C0
:100383000935900079E0F0A3E04480F0900083E029
:10039300FFB4020BA3E07E05B402027E0480027E5A
:1003A30005BE041D900076E0FBA3E0FAA3E0F990FC
:1003B30000587403120935900079E04401F0A3E07A
:1003C300F0900084E0B4020BA3E07E05B402027E49
:1003D3000480027E05BE041D900076E0FBA3E0FAD4
:1003E300A3E0F99000537403120935900079E044B7
:1003F30002F0A3E0F0EFB4030D900085E07F05B4B5
:1004030002027F0480027F05BF041D900076E0FB9B
:10041300A3E0FAA3E0F990005374031209359000A6
:1004230079E04404F0A3E0F0900079E0FEA3E0FF5C
:10043300900076E0FBA3E0FAA3E0F9900068EE8F6A
:10044300F0020A31900076EBF0A3EAF0A3E9F0247E
:100453005EF9E43AFA121173900076E0FBA3E0FA36
:10046300A3E0F990005E1208A11460411470030226
:10047300051B1470030206AF240360030206E09019
:1004830000561208A1B40407900064E412093590E1
:1004930000537403120935900061E412093590008A
:1004A30063E412093590004D74080206DD9000766E
:1004B300E0FBA3E0FAA3E0F99000561208A1B4040C
:1004C30007900064E4120935900053740312093550
:1004D300900061E4120935900063740112093590AC
:1004E30000511208A1FF9000521208A16F7003027D
:1004F30006E0900076E0FBA3E0FAA3E0F990005257
:10050300EF12093590000C1209ACFF90000EE5F0D4
:100513008FF0120A310206E0900076E0FBA3E0FAC6
:10052300A3E0F99000511208A1FF9000521208A114
:100533006F6061900052EF1209359000BAE0B40980
:1005430009740AF09000BCE0A3F09000561208A1D1
:10055300B40428900064E41209359000651208A1E0
:100563009000BCF09000BA7409F090000C1209AC32
:10057300FF90000EE5F08FF0120A31900076E0FB59
:10058300A3E0FAA3E0F99000537403120935900035
:1005930055020671900076E0FBA3E0FAA3E0F99020
:1005A30000641208A1C3940A405190005D1208A18F
:1005B300B4022A9000551208A1B4020E900061E41F
:1005C300120935900063E4120935900076E0FBA32D
:1005D300E0FAA3E0F99000557403020673900076E5
:1005E300E0FBA3E0FAA3E0F990000C1209ACFF9042
:1005F300000EE5F08FF0120A3180789000BAE064C3
:100603000A7070900076E0FBA3E0FAA3E0F9900093
:10061300551208A16402705B9000BDE0FF9000BC1E
:10062300E0FEC39F400DEE9FC3940A7F0450027FF8
:10063300058015EE2478FF9000BDE0FEC3EF9EC356
:10064300940A7F0450027F05BF052890006174015E
:100653001209359000557403120935900064740A29
:10066300120935900063740112093590005D74021C
:10067300120935900076E0FBA3E0FAA3E0F99000BD
:10068300631208A1C3940140549000551208A16459
:1006930003704A90005D1208A164027040900053F9
:1006A3007402120935900064740A802E900076E07B
:1006B300FBA3E0FAA3E0F99000561208A1B40407E3
:1006C300900064E4120935900053740312093590C5
:1006D3000061E4120935900063E412093590007655
:1006E300E0FBA3E0FAA3E0F99000531208A1FF9006
:1006F30000541208A1FE6F6037EFB402189000BBDC
:10070300E0700A9000651208A19000BEF09000BB53
:100713007401F08005E49000BBF0900076E0FBA349
:10072300E0FAA3E0F99000531208A1900054805B13
:10073300EE64027046900076E0FBA3E0FAA3E0F9D2
:100743009000651208A1FF9000BEE0FEEFC39E403B
:100753000DEF9EC394007F0450027F058013900029
:10076300651208A12478C39EC394007F0450027FBE
:1007730005BF041A90005674048010900076E0FBC5
:10078300A3E0FAA3E0F9900056740512093522E7B5
:1007930009F608DFFA8046E709F208DFFA803E88A7
:1007A300828C83E709F0A3DFFA8032E309F608DFDE
:1007B300FA8078E309F208DFFA807088828C83E399
:1007C30009F0A3DFFA806489828A83E0A3F608DF55
:1007D300FA805889828A83E0A3F208DFFA804C808A
:1007E300D280FA80C680D4806980F2803380108002
:1007F300A680EA809A80A880DA80E280CA80338962
:10080300828A83ECFAE493A3C8C582C8CCC583CC9F
:10081300F0A3C8C582C8CCC583CCDFE9DEE7800D71
:1008230089828A83E493A3F608DFF9ECFAA9F0ED51
:10083300FB2289828A83ECFAE0A3C8C582C8CCC5AF
:1008430083CCF0A3C8C582C8CCC583CCDFEADEE87D
:1008530080DB89828A83E493A3F208DFF980CC8862
:10086300F0EF60010E4E60C388F0ED2402B4040083
:1008730050B9F582EB2402B4040050AF2323458220
:10088300239007E273BB010689828A83E022500228
:10089300E722BBFE02E32289828A83E49322BB011F
:1008A3000CE58229F582E5833AF583E0225006E9D7
:1008B3002582F8E622BBFE06E92582F8E222E582DC
:1008C30029F582E5833AF583E49322BB0109898202
:1008D3008A83F8E028F022500327F722BBFE05F8AD
:1008E300E328F3228A838982F8E4932822BB010F49
:1008F300F8E58229F582E5833AF583E028F0225072
:1009030009C58229F8E58226F622BBFE09C582299C
:10091300F8E22582F222F8EA2583F583E993282277
:10092300BB010689828A83F0225002F722BBFE01B3
:10093300F322F8BB010DE58229F582E5833AF583BD
:10094300E8F0225006E92582C8F622BBFE05E92518
:1009530082C8F222BC000BBE0029EF8DF084FFADEC
:10096300F022E4CCF875F008EF2FFFEE33FEEC3302
:10097300FCEE9DEC984005FCEE9DFE0FD5F0E9E4FE
:10098300CEFD22EDF8F5F0EE8420D21CFEADF0751D
:10099300F008EF2FFFED33FD4007985006D5F0F236
:1009A30022C398FD0FD5F0EA22BB0110E58229F599
:1009B30082E5833AF583E0F5F0A3E0225009E925C7
:1009C30082F886F008E622BBFE0AE92582F8E2F502
:1009D300F008E222E5832AF583E993F5F0A3E9938E
:1009E30022BB010DC58229C582C5833AC583020A8C
:1009F300A05011C58229F808E5F026F618F5F0E5B0
:100A03008236F622BBFE11C58229F808E225F0F5ED
:100A1300F0F218E23582F222F8E58229F582E583C5
:100A23002AF58374019325F0F5F0E4933822F8BB9B
:100A33000111E58229F582E5833AF583E8F0E5F0D3
:100A4300A3F0225009E92582C8F608A6F022BBFECE
:100A530009E92582C8F2E5F008F222EB9FF5F0EAF6
:100A63009E42F0E99D42F0EC6480C864809845F0B2
:100A730022EF4E6012EF60010EEDBB010B89828AFB
:100A830083F0A3DFFCDEFA2289F05007F709DFFCCD
:100A9300A9F022BBFEFCF309DFFCA9F022C5F0F8A4
:100AA300A3E028F0C5F0F8E582158270021583E013
:100AB30038F022900073EBF0A3EAF0A3E9F0E4A38B
:100AC300F0900073E0FBA3E0FAA3E0F990006A1250
:100AD30008A164047003020D359000C47468F0F536
:100AE300827583001209AC45F07003020CB79000C5
:100AF300C57402F0900073E0FBA3E0FAA3E0F99061
:100B030000141208A19000C6F09000CEE0C3940236
:100B13004003020CA29000681209ACFD30E0057E90
:100B230000020C1CED30E1057E01020C1C900073E9
:100B3300E0FBA3E0FAA3E0F99000681209ACFD30F2
:100B4300E2057E02020C1CED30E3057E03020C1C61
:100B5300900073E0FBA3E0FAA3E0F99000681209A8
:100B6300ACFD30E4057E04020C1CED30E5057E058A
:100B7300020C1C900073E0FBA3E0FAA3E0F99000E1
:100B8300681209ACFD30E6057E06020C1CED30E769
:100B9300057E07020C1C900073E0FBA3E0FAA3E0C0
:100BA300F99000681209ACACF0EC30E0047E0880E8
:100BB30068EC30E1047E098060900073E0FBA3E001
:100BC300FAA3E0F99000681209ACACF0EC30E2044F
:100BD3007E0A8045EC30E3047E0B803D900073E099
:100BE300FBA3E0FAA3E0F99000681209ACACF0ECC7
:100BF30030E4047E0C8022EC30E5047E0D801A90F4
:100C03000073E0FBA3E0FAA3E0F99000681209ACDB
:100C1300E5F07E0F30E6027E0EEE70047E3F8078B4
:100C2300EEB401047E068070EEB402047E5B80683D
:100C3300EEB403047E4F8060EEB404047E668058F5
:100C4300EEB405047E6D8050EEB406047E7D8048CC
:100C5300EEB407047E078040EEB408047E7F80383C
:100C6300EEB409047E6F8030EEB40A047E778028E8
:100C7300EEB40B047E7C8020EEB40C047E39801825
:100C8300EEB40D047E5E8010EEB40E047E7980080F
:100C9300EE7E00B40F027E719000C7EEF08005E493
:100CA3009000C7F09000CEE004F0E0C3940440222B
:100CB300E4F0801E9000C57401F0900073E0FBA384
:100CC300E0FAA3E0F99000141208A19000C6F0E442
:100CD300A3F09000C5E0FF9000C4E02FFF9000C692
:100CE300E02FFFA3E02FA3F0A37416F07F0690007C
:100CF30073E0FBA3E0FAA3E0F990002DEF120935AE
:100D03007E00900073E0FBA3E0FAA3E0242EF9E455
:100D13003AA801FCAD037B017A0079C41208629002
:100D23000073E0FBA3E0FAA3E0F990002B74011237
:100D330009352290005E1208A114602E14602B1452
:100D43007003020F1C24036003020F6290006412FD
:100D530008A1C3940A4003020F279000591208A167
:100D630064026003020F62020F519000641208A133
:100D7300C3940A5003020F629000511208A1640643
:100D83006003020ECA90005B1208A170249000BF9A
:100D93007408F090005B740112093590000E74051D
:100DA30075F055120A3190000C740575F055020E5A
:100DB300699000591208A164026003020EAF90000B
:100DC300BFE024F7604614607E24026003020EC075
:100DD30090000C1209ACFF90000EE5F08FF0120AA0
:100DE3003190000A1209ACFFAEF090000E1209AC6C
:100DF3006F7003E5F06E6003020EC090005D740235
:100E03001209359000BF7409F0020EC090005D74A2
:100E1300021209359000101209ACFF90000EE5F0A4
:100E23008FF0120A3190000A1209ACFFAEF0900065
:100E33000E1209AC6F7003E5F06E6003020EC090F2
:100E430000BF740AF0807690005D74021209359039
:100E5300000A1209ACFFAEF0BE0518BF551590008D
:100E63000E740275F0AB120A31900010740275F023
:100E7300AB8047BE0218BFAB1590000E740575F02A
:100E830055120A31900010740575F055802C9000AE
:100E93000E1209AC6F7003E5F06E70219000101212
:100EA30009ACFF90000EE5F08FF0800E90000C125D
:100EB30009ACFF90000EE5F08FF0120A31900004A8
:100EC300740475F00080159000BF7408F090000E54
:100ED300E4F5F0120A31900004E4F5F0120A3190BF
:100EE3000012E0FEA3E0FF900016E06E7003A3E0A3
:100EF3006F60047F05801690000AE0FEA3E0FFA365
:100F0300E06E7003A3E06F7F0460027F05EF64046B
:100F1300704D90005D740280299000641208A1C393
:100F2300940A402190000EE4F5F0120A3190000477
:100F3300E4F5F0120A3190005BE412093590005198
:100F430074060209359000591208A1B402119000E9
:100F53000C1209ACFF90000EE5F08FF0120A31225B
:100F6300900076EBF0A3EAF0A3E9F0E4A3F0787A3B
:100F73007C007D017BFF7A2C79D1FE7F0B12086206
:100F8300900076E0FBA3E0FAA3E0241FF9E43AFA29
:100F9300787A7C007D017E007F0B1208627E007FE1
:100FA3000B7D00900076E0FBA3E0FAA3E0241FF999
:100FB300E43AFA120A74E4FF747A2FF582E43400F7
:100FC300F583E0FE900079E02EF00FEFB405E974AD
:100FD3007A2FF582E43400F583E0FF900079E06F27
:100FE300600302117290007DE0FE90007CE07C00C3
:100FF3002400FFEC3EFE900076E0FBA3E0FAA3E0C2
:10100300F990004EEE8FF0120A3190004E1209ACA7
:10101300FFAEF030E013900076E0FBA3E0FAA3E02C
:10102300F990004C740102110BEEC313EF1330E07F
:1010330013900076E0FBA3E0FAA3E0F990004C7470
:101043000202110B900076E0FBA3E0FAA3E0F99013
:10105300004E1209ACFDACF0AE047802CEC313CE41
:1010630013D8F930E00890004C740302110BEDAE75
:10107300047803CEC313CE13D8F930E00890004CA4
:10108300740402110B90004E1209ACFDACF0ECC4D9
:10109300F854F0C8EDC4540F4830E00790004C7486
:1010A300058065EDAE047805CEC313CE13D8F930B1
:1010B300E00790004C7406804F90004E1209ACFD7F
:1010C300ACF0AE047806CEC313CE13D8F930E007E4
:1010D30090004C740A8031EDAE047807CEC313CE72
:1010E30013D8F930E00790004C7408801B90004E31
:1010F3001209ACE5F030E013900076E0FBA3E0FAD0
:10110300A3E0F990004C7409120935900076E0FBD6
:10111300A3E0FAA3E0F990004C1208A1603A900012
:101123004B1208A1B40C317E007F027D00E92466D6
:10113300F9E43AFA120A74900076E0FBA3E0FAA30A
:10114300E0F9121F91900076E0FBA3E0FAA3E0F927
:1011530090004B740B12093590007EE0FF900076EF
:10116300E0FBA3E0FAA3E0F990004AEF120935226D
:10117300900079EBF0A3EAF0A3E9F09000021208E3
:10118300A1FF64046018900079E0FBA3E0FAA3E0F8
:10119300F99000011208A1640460030212F4EFB491
:1011A300041B9000B9E0640D600BE49000B5F0906F
:1011B30000B7F0A3F09000B9740DF080199000B956
:1011C300E0640E600BE49000B5F09000B7F0A3F07C
:1011D3009000B9740EF0900079E0FBA3E0FAA3E06D
:1011E300F99000021208A1B4042B9000B7E0FEA30B
:1011F300E0FF7C037D84120957C3ED944EEC940207
:1012030050047402803E900079E0FBA3E0FAA3E06F
:10121300F97403802F9000B7E0FEA3E0FF7C037D09
:1012230084120957C3ED9458EC9402900079E0FBC3
:10123300500AA3E0FAA3E0F974018008A3E0FAA33B
:10124300E0F974031209239000B5E0701704F090DD
:101253000079E0FBA3E0FAA3E0F99000071208A1EC
:101263009000B6F0900079E0FBA3E0FAA3E0F990D8
:1012730000071208A1FF9000B6E0FEEFC39E400DE9
:10128300EF9EC394017F0450027F058013900007F3
:101293001208A12478C39EC394017F0450027F05E2
:1012A300EF640470519000071208A19000B6F0900B
:1012B30000B8E004F070069000B7E004F0C39000BB
:1012C300B8E094109000B7E0940E402AE41209238A
:1012D300900079E0FBA3E0FAA3E0F9900002120882
:1012E300A1B4040590000280039000017405020973
:1012F30035E49000B9F02290004C1208A114B4090F
:1013030000400302146B90131775F003A4C58325E3
:10131300F0C5837302144E0213520213750213981D
:1013230002141B02146B02146B0213320213D290C9
:10133300004D1208A16408603790004D740812092B
:1013430035900040740212093590005EE480659088
:10135300004D1208A16402601790004D7402120937
:1013630035900040740212093590005E7401804488
:10137300805590004D1208A16403601790004D74CE
:1013830003120935900040740212093590005E740F
:10139300038021803290004D1208A16404602890DC
:1013A300004D7404120935900040740212093590FF
:1013B300005E7402120935900060740512093590BD
:1013C300005F740502146890004874020214689068
:1013D300004D1208A16409603890004D7409120988
:1013E30035900040740212093590006074041209AC
:1013F3003590005F74051209359000511208A164FD
:101403000770659000517406120935900061E480FD
:10141300549000487402804D90005E1208A1FF644E
:10142300016005EF6402701C9000407402120935DC
:101433009000591208A1900059B403047402802546
:10144300740380219000487402801A900040740253
:101453001209359000501208A1900050B40304748F
:10146300028002740312093590004CE4020935909E
:101473000000E06006E4F0A3E004F0900001E0C3A4
:101483009408405BE4F0A3E004F09000DAE0FBA3EF
:10149300E0FAA3E0F91226589000DAE0FBA3E0FAA1
:1014A300A3E0F9122A059000DAE0FBA3E0FAA3E037
:1014B300F912284D9000DAE0FBA3E0FAA3E0242E12
:1014C300F9E43AFAC002C0019000DAA3E0FAA3E01B
:1014D300F990002D1208A1FDD001D0021220249012
:1014E3000002E0C3940A4028E4F0A3E004F0900073
:1014F30005E004F09000DAE0FBA3E0FAA3E0F912C0
:1015030021419000DAE0FBA3E0FAA3E0F912223CC8
:10151300900003E0C394054014E4F0A3E004F090CA
:1015230000DAE0FBA3E0FAA3E0F91215E29000046D
:10153300E0C394024010E4F09000DAE0FBA3E0FA89
:10154300A3E0F9121AF3900005E0C394184033E4C2
:10155300F0A3E004F09000DAE0FBA3E0FAA3E0F9E3
:1015630012289B9000DAE0FBA3E0FAA3E0F912292A
:10157300C59000DAE0FBA3E0FAA3E0F9120AB64350
:10158300CF10900006E0C39402401EE4F0A3E004F1
:10159300F0122B8A9000DAE0FBA3E0FAA3E0F990C3
:1015A300006AEF12093512238C900007E0C39402FE
:1015B300402CE4F09000DAE0FBA3E0FAA3E0F91298
:1015C300003E9000DAE0FBA3E0FAA3E0F91223FA6D
:1015D3009000DAE0FBA3E0FAA3E0F9122C152290C5
:1015E30000401208A16402703A90003E1208A1B4B0
:1015F300031890003E7402120935900042E4F5F09E
:10160300120A31900041E41209359000411208A1F9
:10161300700302173990003E74031209359000409D
:1016230002171E9000441208A16402703A90003E13
:101633001208A1B4031890003E74021209359000F9
:1016430046E4F5F0120A31900045E41209359000A2
:10165300451208A1700302173990003E7403120962
:101663003590004402171E9000481208A1640260DE
:10167300030217399000491208A1FF704B90003EF6
:101683001208A1B4031890003E74021209359000A9
:1016930042E4F5F0120A31900041E412093590005A
:1016A300411208A1700302173990003E7403120916
:1016B300359000497401120935900042E4F5F012A7
:1016C3000A31900041E4806BEF6401705290003E58
:1016D3001208A1640370209000411208A1601890C1
:1016E300003E7402120935900042E4F5F0120A310B
:1016F300900041E412093590003E1208A164027083
:10170300359000411208A1602D900049E41209357B
:1017130090003E74031209359000487403801490BE
:101723000049E412093590003E7403120935900014
:101733004874031209352274681209239000017456
:10174300021209359000B4E01470030217DF14701D
:10175300030217ED1470030217FB14700302180938
:10176300240460030218209000A1E0FF700F900092
:10177300027407120935900003747F804CEFC39401
:10178300045016EF14FF74017E00A807088005C3F8
:1017930033CE33CED8F9FF80027F00900002EF12E0
:1017A30009359000A1E0FFC394044017EF24FCFF28
:1017B30074017E00A807088005C333CE33CED8F961
:1017C300FF80027F00900003EF1209359000A1E033
:1017D30004F0E0D3940A4053E4F0804F900002E415
:1017E300120935900003745C803E900002E41209F4
:1017F30035900003747C8030900002E41209359028
:101803000003745880229000027407120935900077
:1018130003747F120935E49000A1F0800E9000025A
:10182300E4120935900003E412093590000112080F
:10183300A1FF1208882FFF9000021208A12FFF902A
:1018430000031208A12F90000412093590000574BB
:1018530016020935900076EBF0A3EAF0A3E9F0E471
:10186300A3F0787A7C007D017BFF7A2C79DCFE7F04
:1018730005120862900076E0FBA3E0FAA3E0F9907A
:1018830000181208A1700302196E900018E41209DF
:1018930035E92419F9E43AFA787A7C007D017E006F
:1018A3007F051208627E007F057D00900076E0FBD5
:1018B300A3E0FAA3E02419F9E43AFA120A74E4FF64
:1018C300747A2FF582E43400F583E0FE900079E02A
:1018D3002EF00FEFB404E9747A2FF582E43400F5A7
:1018E30083E0FF900079E06F600302196E90007C43
:1018F300E0FE90007BE07C002400FFEC3E9000DDE6
:10190300F0A3EFF0900076E0FBA3E0FAA3E0F990F8
:1019130000661209ACFF9000DDE065F07003A3E000
:101923006F604890004B1208A1B40B237E007F1A0E
:101933007D00E9244CF9E43AFA120A74900076E047
:10194300FBA3E0FAA3E0F990004B740C1209359065
:1019530000DDE0FEA3E0FF900076E0FBA3E0FAA346
:10196300E0F9900066EE8FF0120A3122900089743C
:1019730001F0A37400F0A37420F0900095E0249686
:10198300F582E43400F583EFF0900095E004F090E5
:101993000094E024F7604014604824026003021AB4
:1019A3003F900096E064687028A3E0FFB4010D90B7
:1019B30000957402F09000947409F022EFB4680764
:1019C3009000957401F022900095E06402706DF030
:1019D30022E4900095F0229000937407F0A3740A18
:1019E300F022900093E0FF900095E0C39F404D905C
:1019F3000089E0FBA3E0FAA3E0F99000067401126A
:101A030009357E00900089E0FBA3E0FAA3E02407F8
:101A1300F9E43AA801FCAD037B017A007996120838
:101A230062900093E0FF7E007D007B017A0079964F
:101A3300120A749000947408F0E4A3F0224300DACD
:101A43000100084100B5004100B6004200B70000A4
:101A53004100B9004200BA08004100BC004100BD8A
:101A6300004100BE004100BF084100C0004200C168
:101A730000004100C3004A00C40000000000000051
:101A83000000004100CE004200D600004100D8080B
:101A93004100D9004100A1005000A2000000000055
:101AA30000000000000000000000004100B20041FF
:101AB30000B3004300D30100084100CF004100D030
:101AC300004100D1004100D20041008C0841008D4B
:101AD3000045008E0000000000410094084100957D
:101AE300004B009600000000000000000000000012
:101AF30090006A1208A164047003021BA590004BB6
:101B03001208A1640B6003021BA590005E1208A1DA
:101B130014602314603714604B2403706D900064C9
:101B23001208A1C3940A9000165004740980027429
:101B330007120935801F90001674071209359000AB
:101B4300177405120935900015740280529000161F
:101B530074061209359000177405120935900015A3
:101B63007403803B9000641208A1C3940A9000168A
:101B73005004740A80027407120935900017740424
:101B8300120935900015740380159000167407121E
:101B93000935900017740512093590001574031266
:101BA3000935229000D8E06409707C90000E120978
:101BB300AC45F0701E90000A1209AC45F070199004
:101BC30000D6E0701304F090000AE475F024120AC2
:101BD300318005E49000D6F090000E1209ACFF901E
:101BE3000012E5F08FF0120A319000041209AC459F
:101BF300F0701E9000021209AC45F070199000D7E6
:101C0300E0701304F0900002E475F024120A3180AE
:101C130005E49000D7F09000041209ACFF90000691
:101C2300E5F08FF0020A31900012E4F5F0120A3168
:101C3300900006E4F5F0120A3190000A1209AC454F
:101C4300F070109000021209AC45F070069000D8B5
:101C53007409F02290006EE0C41313540330E07B48
:101C630090005C740212093590000A1209ACFFAEB1
:101C7300F0BE021EBFAB1B90000E740575F055122B
:101C83000A3190000E1209ACFD900010E5F08DF0C2
:101C93008046BE051EBF551B90000E740275F0AB47
:101CA300120A3190000E1209ACFF900010E5F08F7C
:101CB300F0802590000A1209ACFFAEF090000E12DE
:101CC30009AC6F7003E5F06E70339000101209AC2D
:101CD300FF90000EE5F08FF0020A3190005C1208CD
:101CE300A1B4021190000A1209ACFF90000EE5F0B6
:101CF3008FF0120A3190005C7403120935229000B0
:101D0300867401F0A37400F0A37420F090008DE0BA
:101D1300FE248EF582E43400F583EFF090008CE02E
:101D230024F76024047070748E2EF582E43400F579
:101D330083E0B4680C90008E7468F090008C740992
:101D4300F0E490008DF0804FEEC39404404990007E
:101D53008C7408F0E4A3F0900086E0FBA3E0FAA300
:101D6300E0F97401120923900086E0FBA3E0FAA3D3
:101D7300E02401F9E43AA801FCAD037B017A007980
:101D83008E7E007F051208627E007F057D007B0149
:101D93007A00798E120A7490008DE004F0E0C39407
:101DA300054002E4F02290005E1208A114601714AB
:101DB300601414607224036003021E4C90005C7470
:101DC30003120935807B9000591208A1FF90005A35
:101DD3001208A16F603190005AEF12093590005933
:101DE3001208A1B40208900064740A120935900025
:101DF3005B740112093590000C1209ACFF90000EC0
:101E0300E5F08FF0020A319000591208A1B40210D4
:101E130090005D1208A1B4020790005C7402802652
:101E230090005C7403801F90005C7403120935906A
:101E330000601208A1B4051190005F1208A1B40557
:101E43000890005974031209352290005E1208A10C
:101E530014602A14602714606F24036003021EEECB
:101E63009000641208A1C3940A405690005774036B
:101E730012093590005D7403120935804490005DAA
:101E83001208A16402600990005C1208A1B4020F59
:101E930090006174011209359000577402801F90FD
:101EA30000641208A1C3940A4017900061E4120968
:101EB3003590005D740312093590005774031209BD
:101EC30035900058740380209000641208A1C394D5
:101ED3000A4018900057740312093590005D74038B
:101EE300120935900058740212093522900076EBDE
:101EF300F0A3EAF0A3E9F0E4A3F0A3F0900076E006
:101F0300FBA3E0FAA3E0F990001E1208A17034903D
:101F1300007AE004F07006900079E004F090007914
:101F2300E0FEA3E0FFE4FCFD7B607AEAF9F8C3126C
:101F33000A5E500A90007974EAF0A37460F043CF0C
:101F43001080B9900076E0FBA3E0FAA3E0F99000DB
:101F53004A1208A1FF70069000B404F022EFD39454
:101F63005040079000B47402F022900079E0FEA381
:101F7300E0FFE4FCFD7B607AEAF9F8C3120A5E70C5
:101F8300079000B47403F022E49000B4F0229000B0
:101F93005EE412093590005074031209359000591C
:101FA30074031209359000537403120935900057D6
:101FB30074031209359000587403120935900055C3
:101FC300740312093590005A740312093590005BAB
:101FD300E4120935900051740612093590005274C9
:101FE300061209359000617401120935900062747C
:101FF30001120935900063E4120935900064740AF4
:1020030012093590005F740512093590006074055C
:1020130012093590002BE4120935900014E40209EB
:1020230035900073EBF0A3EAF0A3E9F09000D3E05E
:10203300FBA3E0FAA3E0F990002B1208A1605A90E9
:10204300002C1208A1603790002CE412093590008F
:1020530073E0FBA3E0FAA3E0F99000D1E0F5827509
:1020630083001208A1F59FE49000D2F09000D1E024
:1020730004F0E0C39D403AE4F09000D3800D90005B
:10208300D2E004F0E0C394C84027A3E0FBA3E0FA46
:10209300A3E0F990002BE48015E49000D1F0A3F0C5
:1020A300A3E0FBA3E0FAA3E0F990002C740112096A
:1020B3003522787FE4F6D8FD7581070220FC020003
:1020C30003E493A3F8E493A34003F68001F208DF4B
:1020D300F48029E493A3F85407240CC8C333C454ED
:1020E3000F4420C8834004F456800146F6DFE480A1
:1020F3000B0102040810204080901A40E47E0193F3
:1021030060BCA3FF543F30E509541FFEE493A36072
:10211300010ECF54C025E060A840B8E493A3FAE4CD
:1021230093A3F8E493A3C8C582C8CAC583CAF0A31E
:10213300C8C582C8CAC583CADFE9DEE780BE90008E
:1021430073EBF0A3EAF0A3E9F0900073E0FBA3E0E4
:10215300FAA3E0F990006A1208A164046061122CEA
:1021630002900073E0FBA3E0FAA3E0F990004B12A6
:1021730008A1640B70491212FA900073E0FBA3E00C
:10218300FAA3E0F9120447900073E0FBA3E0FAA37B
:10219300E0F9120D36900073E0FBA3E0FAA3E0F937
:1021A300121DA9900073E0FBA3E0FAA3E0F9121E4D
:1021B3004D900073E0FBA3E0FAA3E0F9120056226E
:1021C300C0E0C0F0C083C082C0D075D000C000C0E2
:1021D30001C002C003C004C005C006C007C2CF903F
:1021E30000D0E004F0E0FFD394014011EF30E00DA4
:1021F3009000CFE013F0308504E04480F09000D0ED
:10220300E0C394114018E4F043C60243A908C2CACC
:1022130075CBFC75CABE9000CFE0FF121D01D0073D
:10222300D006D005D004D003D002D001D000D0D046
:10223300D082D083D0F0D0E032900073EBF0A3EAE9
:10224300F0A3E9F0900073E0FBA3E0FAA3E0F990B8
:10225300006A1208A164046050121857900073E0DA
:10226300FBA3E0FAA3E0F990004B1208A1B40C39E8
:10227300E92414F9E43AFA122935900073E0FBA338
:10228300E0FAA3E02450F9E43AFA1226B09000737E
:10229300E0FBA3E0FAA3E0F91228E9900073E0FB66
:1022A300A3E0FAA3E0F9121C572243CF10E4FFFE88
:1022B300E4900076F0A3F0900077E004F0700690CD
:1022C3000076E004F0900076E0B403EBA3E0B4E81A
:1022D300E60FBF00010EEF64C84E70D443CF1090D9
:1022E30000B4E0FF122BEEE4FEFFE4900076F0A3CF
:1022F300F0900077E004F07006900076E004F09030
:102303000076E0B403EBA3E0B4E8E60FBF00010EF0
:10231300EF64C84E70D443CF10229000041208A17A
:10232300B4011A90000674011208F0900006120816
:10233300A1C3940A400E900006740A80049000061C
:10234300E41209359000031208A1B4011A900005A4
:1023530074011208F09000051208A1C39401400E05
:1023630090000574018004900005E4120935900083
:102373000774011208F09000071208A1C394784073
:1023830007900007E412093522900073EBF0A3EAEB
:10239300F0A3E9F090006A1208A16404705843CFD7
:1023A300109000B3E014602F04704B9000B3E0046E
:1023B300F0900073E0FBA3E0FAA3E0F99000487407
:1023C30002120935E4FF122BEE900073E0FBA3E049
:1023D300FAA3E0F9021EEF900073E0FBA3E0FAA377
:1023E300E0F99000481208A1B4030B12000E122B5F
:1023F3006DE49000B3F02290004B1208A1640B70BF
:102403005E90005E1208A1FF9000C0E06F6007EFCE
:10241300F0E4A3F0A3F0EF1424FD500D240470297D
:10242300E49000C1F0A3F080209000601208A1B4F2
:10243300051790005F1208A1B4050E9000C2E004D6
:10244300F070069000C1E004F0C39000C2E0942055
:102453009000C1E0941C400790005EE4120935220D
:10246300C0E0C0F0C083C082C0D075D000C000C03F
:1024730001C002C003C004C005C006C007E59D300B
:10248300E11E539DFD9000D3E0FBA3E0FAA3E0F926
:1024930090002C740112093590002A740112093539
:1024A300E59D30E008539DFEAF9F12196FD007D012
:1024B30006D005D004D003D002D001D000D0D0D0B4
:1024C30082D083D0F0D0E0329000081208A1605E81
:1024D300900008E4120935900009E41209359000D0
:1024E300121209ACFFAEF090000A1209ACFDACF079
:1024F300C39FEC9E5010ED5407FF1225F990000A7C
:10250300E475F00180229000121209ACFFD3ED9F15
:10251300EC95F0401690000A1209AC5407FF1225FF
:10252300F990000A74FFF5F00209E4122CA8229036
:1025330000011208A1605B900001E4120935E41266
:1025430009239000061209ACFFAEF09000021209B5
:10255300ACFDACF0C39FEC9E5010ED5407FF122569
:1025630096900002E475F00180229000061209ACF7
:10257300FFD3ED9FEC95F040169000021209AC5486
:1025830007FF12259690000274FFF5F00209E4128A
:102593002CB122C374079FFFB4080050589025A79D
:1025A300F82828730225BF0225C50225CB0225D4AE
:1025B3000225DA0225E30225EC0225F0D281C2824C
:1025C300800AD281D2828004C281D282C283C28431
:1025D30022C281D2828004C281C282D283C2842277
:1025E300C281C282D283D28422C2818002D281C2BA
:1025F30082C283D28422EFB408005058902606F892
:1026030028287302261E02262402262A02263302C3
:10261300263902264202264B02264FD2A5C2A480A7
:102623000AD2A5D2A48004C2A5D2A4C2A3C2A22264
:10263300C2A5D2A48004C2A5C2A4D2A3C2A222C2AC
:10264300A5C2A4D2A3D2A222C2A58002D2A5C2A4AB
:10265300C2A3D2A222900042E475F0011209E490D1
:102663000046E475F0011209E49000421209ACC37C
:102673009496E5F094004012900042E475F09612AF
:102683000A3190004174011209359000461209ACD9
:10269300C39420E5F094034013900046740375F04F
:1026A30020120A3190004574011209352290006E00
:1026B300E0C31330E0047402800274031209239010
:1026C300006EE0FCEC1313543F90000330E00474FD
:1026D3000280027403120935EC131313541F900084
:1026E3000730E00474028002740312093590006E0F
:1026F300E0C4540F90000830E004740280027403B5
:1027030012093522900073EBF0A3EAF0A3E9F07EFF
:10271300007F147D00900073E0FBA3E0FAA3E0F9CF
:10272300120A74900073E0FBA3E0FAA3E0F99000AF
:1027330010740275F0AB120A3190000C740575F039
:1027430055120A3190000A740575F0DC120A3190B3
:102753000002740575F0DC020A31C0E0C0F0C083EA
:10276300C082C0D075D000C000C001C002C003C089
:1027730004C005C006C007758CF8758A80900000F8
:102783007401F09000D3E0FBA3E0FAA3E0F9120098
:102793002ED007D006D005D004D003D002D001D06C
:1027A30000D0D0D082D083D0F0D0E0329000161287
:1027B30008A1FDB4060BE49000C3F090001CE08078
:1027C3002AED6409600A9000161208A1640A701FBA
:1027D3009000C3E004F0E0C394044002E4F09000EE
:1027E300C3E0C3940290001CE0500D4404F022E4C3
:1027F3009000C3F090001CE054FBF02290003E7464
:102803000312093590004074031209359000447493
:1028130003120935900048740312093590003FE410
:10282300120935900042E4F5F0120A31900041E4B8
:10283300120935900046E4F5F0120A31900045E4A0
:10284300120935900049E4020935900073EBF0A3B7
:10285300EAF0A3E9F0900073E0FBA3E0FAA3E0F948
:1028630090006A1208A16404602D121BA6900073E5
:10287300E0FBA3E0FAA3E0F91224CB900073E0FBA2
:10288300A3E0FAA3E0F9122532900073E0FBA3E082
:10289300FAA3E0F9122A7D22900073EBF0A3EAF089
:1028A300A3E9F0900073E0FBA3E0FAA3E0F9900042
:1028B3006A1208A16404602D122C4B900073E0FB94
:1028C300A3E0FAA3E0F9122C5A900073E0FBA3E013
:1028D300FAA3E0F9122C69900073E0FBA3E0FAA3DA
:1028E300E0F9122C782290006EE0FCEC30E01490BA
:1028F300000E1209AC45F0701390000E740575F0CC
:1029030055800690000EE4F5F0120A31ECC413541E
:102913000730E0149000041209AC45F070139000E6
:1029230004740475F0008006900004E4F5F0120AC4
:10293300312290006EE0FEA3E0FF90000130E0043E
:10294300740280027403120935EEC313EF1390006F
:102953000330E00474048002740512093590006E9C
:10296300E0FEA3E07802CEC313CE13D8F9900002A1
:1029730030E004740680027407120935229000784F
:10298300EBF0A3EAF0A3E9F0E4FFEFC39D5032902C
:102993000078E0FBA3E0FAA3E0F98F8275830012CD
:1029A30008A1F59F9000D3E0FBA3E0FAA3E0F99020
:1029B300002A1208A160ED90002AE41209350F8065
:1029C300C922900073EBF0A3EAF0A3E9F09000733F
:1029D300E0FBA3E0FAA3E0F990006A1208A1640403
:1029E300601F1227AF900073E0FBA3E0FAA3E0F9A6
:1029F300122BC2900073E0FBA3E0FAA3E0F9122BC1
:102A0300D822900073EBF0A3EAF0A3E9F090005C06
:102A13001208A1B402109000D9E004F0E0D39402AC
:102A23004012E4F08000900073E0FBA3E0FAA3E01F
:102A3300F9122B2A900073E0FBA3E0FAA3E0F9025A
:102A43002BA79000DAE0FBA3E0FAA3E0F91227FF3B
:102A53009000DAE0FBA3E0FAA3E0F9121F919000E3
:102A6300DAE0FBA3E0FAA3E0F9122CBA9000DAE073
:102A7300FBA3E0FAA3E0F902270790005E1208A186
:102A8300FF64016004EFB402239000571208A1B45D
:102A9300021A90000A1209ACFFAEF0D394ABEE9485
:102AA30002400990000CEE8FF0120A31229000DAF6
:102AB300E0FBA3E0FAA3E0F99000407402120935A9
:102AC30090004B740B1209357E007F087D007B015B
:102AD3007A007900020A74438E05438901758CF8E4
:102AE300758A80C28CD2A9D28C75CBFC75CABEC242
:102AF300CAD2ADD2CAD2BD43FEC143FF8243CF1077
:102B03002212088864027015900001041208F090E4
:102B130000011208A1D394015003C2952290000131
:102B2300E4120935C2952290000974011208F0904D
:102B330000091208A1C39404401090000974041200
:102B43000935900008740112093522759A9F759B07
:102B5300607591E175921075A1FC75A203E4F5C748
:102B630075C60243A90843B90822D2A21222ADC2F4
:102B7300A2D2A31222ADC2A3D2A41222ADC2A4D266
:102B8300A51222ADC2A5222094129000B2E004F057
:102B9300E0D39402400B122C3A7F0422E49000B25B
:102BA300F07F052274011208CE120888C3940440F2
:102BB3000D74041209239000017401120935229047
:102BC30000151208A190001CB40205E04401F02294
:102BD300E054FEF0229000171208A190001CB404E8
:102BE30005E04402F022E054FDF022EF70107B0177
:102BF3007A0079A212173A7D067C00122CC3229028
:102C0300001E1208A1600A90001EE4120935120F7B
:102C1300632290004A1208A1C39450400790005EBB
:102C2300E412093522438FC0759D50759E827595B8
:102C33000643A901D2AF22C2A6C280C297C296C2DE
:102C4300A5C2A4C2A3C2A2229000501208A1B4023A
:102C530003D28022C280229000531208A1B402033F
:102C6300D29622C296229000571208A1B40203D230
:102C7300A622C2A6229000581208A1B40203D2973A
:102C830022C2972253A9F775C600D2CA75CBFC7529
:102C9300CABE32122A45122AB0020038122B4E1233
:102CA3002ADA022C28C2A5C2A4C2A3C2A222C281CC
:102CB300C282C283C28422900066E4F5F0020A3124
:102CC3000229800000000000000000000000000056
:0E2CD3000000000000000000000000000000F3
:00000001FF
