:10000000021EDF122ACE1213B880FB022546D296BA
:1000100012215AC296D29712215AC297D2A6122101
:100020005AC2A6D28012215AC28022022070E9242C
:1000300036F9E43AFA022947022AD702231090003F
:1000400043120165B4090AE92454F9E43AFA122189
:02005000CA22C2
:10005300022ABFE709F608DFFA8046E709F208DF5C
:10006300FA803E88828C83E709F0A3DFFA8032E3CB
:1000730009F608DFFA8078E309F208DFFA8070886E
:10008300828C83E309F0A3DFFA806489828A83E0A8
:10009300A3F608DFFA805889828A83E0A3F208DF97
:1000A300FA804C80D280FA80C680D4806980F28046
:1000B30033801080A680EA809A80A880DA80E2806C
:1000C300CA803389828A83ECFAE493A3C8C582C8C1
:1000D300CCC583CCF0A3C8C582C8CCC583CCDFE92B
:1000E300DEE7800D89828A83E493A3F608DFF9ECC7
:1000F300FAA9F0EDFB2289828A83ECFAE0A3C8C552
:1001030082C8CCC583CCF0A3C8C582C8CCC583CC78
:10011300DFEADEE880DB89828A83E493A3F208DFE7
:10012300F980CC88F0EF60010E4E60C388F0ED24B7
:1001330002B4040050B9F582EB2402B4040050AFBA
:1001430023234582239000A673BB010689828A83F9
:10015300E0225002E722BBFE02E32289828A83E483
:100163009322BB010CE58229F582E5833AF583E00E
:10017300225006E92582F8E622BBFE06E92582F82D
:10018300E222E58229F582E5833AF583E49322BBF3
:10019300010FF8E58229F582E5833AF583E028F03B
:1001A300225009C58229F8E58226F622BBFE09C53D
:1001B3008229F8E22582F222F8EA2583F583E9937E
:1001C3002822BB010689828A83F0225002F722BBD0
:1001D300FE01F322F8BB010DE58229F582E5833A9E
:1001E300F583E8F0225006E92582C8F622BBFE0516
:1001F300E92582C8F222BC000BBE0029EF8DF084F2
:10020300FFADF022E4CCF875F008EF2FFFEE33FEDC
:10021300EC33FCEE9DEC984005FCEE9DFE0FD5F013
:10022300E9E4CEFD22EDF8F5F0EE8420D21CFEAD1C
:10023300F075F008EF2FFFED33FD4007985006D51A
:10024300F0F222C398FD0FD5F0EA22BB0110E5823C
:1002530029F582E5833AF583E0F5F0A3E02250091E
:10026300E92582F886F008E622BBFE0AE92582F832
:10027300E2F5F008E222E5832AF583E993F5F0A39A
:10028300E99322BB010DC58229C582C5833AC58383
:100293000203425011C58229F808E5F026F618F545
:1002A300F0E58236F622BBFE11C58229F808E22565
:1002B300F0F5F0F218E23582F222F8E58229F582B0
:1002C300E5832AF58374019325F0F5F0E49338224E
:1002D300F8BB0111E58229F582E5833AF583E8F05D
:1002E300E5F0A3F0225009E92582C8F608A6F0221A
:1002F300BBFE09E92582C8F2E5F008F222EB9FF57F
:10030300F0EA9E42F0E99D42F0EC6480C864809874
:1003130045F022EF4E6012EF60010EEDBB010B8939
:10032300828A83F0A3DFFCDEFA2289F05007F70903
:10033300DFFCA9F022BBFEFCF309DFFCA9F022C518
:10034300F0F8A3E028F0C5F0F8E5821582700215F5
:1003530083E038F02290006CEBF0A3EAF0A3E9F01D
:100363002454F9E43AFA1210B790006CE0FBA3E0CE
:10037300FAA3E0F990005412016514603E14606D15
:100383001470030205082403600302053990004C2E
:10039300120165B4040790005AE41201D790004992
:1003A30074031201D7900057E41201D7900059E467
:1003B3001201D7900045740802053690006CE0FBEB
:1003C300A3E0FAA3E0F990004C120165B40407908E
:1003D300005AE41201D790004974031201D7900028
:1003E30057E41201D7900059740102053690006C4E
:1003F300E0FBA3E0FAA3E0F990005A120165C3946D
:100403000A4051900053120165B4022A90004B1226
:100413000165B4020E900057E41201D7900059E42D
:100423001201D790006CE0FBA3E0FAA3E0F990007F
:100433004B74030204CC90006CE0FBA3E0FAA3E04E
:10044300F990000412024EFF900006E5F08FF012BF
:1004530002D380789000B2E06408707090006CE082
:10046300FBA3E0FAA3E0F990004B1201656402706C
:100473005B9000B5E0FF9000B4E0FEC39F400DEE3B
:100483009FC3940A7F0450027F058015EE2478FFF2
:100493009000B5E0FEC3EF9EC3940A7F0450027F31
:1004A30005BF052890005774011201D790004B74C3
:1004B300031201D790005A740A1201D7900059749D
:1004C300011201D790005374021201D790006CE01F
:1004D300FBA3E0FAA3E0F9900059120165C394016C
:1004E300405490004B1201656403704A900053120C
:1004F30001656402704090004974021201D79000B4
:100503005A740A802E90006CE0FBA3E0FAA3E0F992
:1005130090004C120165B4040790005AE41201D70D
:1005230090004974031201D7900057E41201D79049
:100533000059E41201D790006CE0FBA3E0FAA3E0BA
:10054300F9900049120165FF90004A120165FE6FA0
:100553006037EFB402189000B3E0700A90005B12AA
:1005630001659000B6F09000B37401F08005E4904B
:1005730000B3F090006CE0FBA3E0FAA3E0F9900075
:100583004912016590004A805BEE64027046900058
:100593006CE0FBA3E0FAA3E0F990005B120165FFB6
:1005A3009000B6E0FEEFC39E400DEF9EC394007F24
:1005B3000450027F05801390005B1201652478C309
:1005C3009EC394007F0450027F05BF041A90004C21
:1005D3007404801090006CE0FBA3E0FAA3E0F990B0
:1005E300004C74051201D722900069EBF0A3EAF0E6
:1005F300A3E9F0E4A3F0900069E0FBA3E0FAA3E031
:10060300F9900060120165640470030208689000A9
:10061300BC7468F090005E12024E45F0700302074E
:10062300EA9000BD7402F0900069E0FBA3E0FAA336
:10063300E0F990000C1201659000BEF09000C6E056
:10064300C3940240030207D590005E12024EFD30B0
:10065300E0057E0002074FED30E1057E0102074F02
:10066300900069E0FBA3E0FAA3E0F990005E1202B8
:100673004EFD30E2057E0202074FED30E3057E03B7
:1006830002074F900069E0FBA3E0FAA3E0F99000B2
:100693005E12024EFD30E4057E0402074FED30E5A5
:1006A300057E0502074F900069E0FBA3E0FAA3E093
:1006B300F990005E12024EFD30E6057E0602074FFA
:1006C300ED30E7057E0702074F900069E0FBA3E0EA
:1006D300FAA3E0F990005E12024EACF0EC30E004B5
:1006E3007E088068EC30E1047E098060900069E058
:1006F300FBA3E0FAA3E0F990005E12024EACF0EC2B
:1007030030E2047E0A8045EC30E3047E0B803D90AA
:100713000069E0FBA3E0FAA3E0F990005E12024E49
:10072300ACF0EC30E4047E0C8022EC30E5047E0D6A
:10073300801A900069E0FBA3E0FAA3E0F990005E61
:1007430012024EE5F07E0F30E6027E0EEE70047E5E
:100753003F8078EEB401047E068070EEB402047E1E
:100763005B8068EEB403047E4F8060EEB404047EC5
:10077300668058EEB405047E6D8050EEB406047EA8
:100783007D8048EEB407047E078040EEB408047E03
:100793007F8038EEB409047E6F8030EEB40A047EA5
:1007A300778028EEB40B047E7C8020EEB40C047EAC
:1007B300398018EEB40D047E5E8010EEB40E047E14
:1007C300798008EE7E00B40F027E719000BFEEF0D8
:1007D3008005E49000BFF09000C6E004F0E0C3940D
:1007E300044022E4F0801E9000BD7401F090006983
:1007F300E0FBA3E0FAA3E0F990000C12016590007E
:10080300BEF0E4A3F09000BDE0FF9000BCE02FFF3A
:100813009000BEE02FFFA3E02FA3F0A37416F07F98
:1008230006900069E0FBA3E0FAA3E0F9900025EF4E
:100833001201D77E00900069E0FBA3E0FAA3E02455
:1008430026F9E43AA801FCAD037B017A0079BC12D6
:100853000126900069E0FBA3E0FAA3E0F9900023EE
:1008630074011201D72290006CEBF0A3EAF0A3E924
:10087300F078717C007D017BFF7A2A79F57E007F19
:100883000812012678797C007D017BFF7A2A79FDA5
:100893007E007F0312012690006CE0FBA3E0FAA325
:1008A300E0F990000612024EFF900071E5F0F0A30C
:1008B300EFF090000212024EFF900075E5F0F0A3F6
:1008C300EFF090004D120165900079F090004E1208
:1008D300016590007AF090004912016590007BF069
:1008E300E490006FF0A3F0900071E0FEA3E0FF4EF0
:1008F3006022C3EF94ABEE940250047F048017D3BD
:10090300900072E09455900071E094057F054002D9
:100913007F0480027F05BF041E90006CE0FBA3E010
:10092300FAA3E0F9900006E4F5F01202D390006F09
:10093300E0F0A3E04401F0900071E07002A3E060F6
:10094300047F058019900073E07002A3E060047FC8
:1009530005800B900079E07F05B402027F04BF0499
:100963001D90006CE0FBA3E0FAA3E0F990004D7446
:10097300031201D790006FE0F0A3E04402F090006F
:1009830079E06402705890000AE0FEA3E0FF900053
:100993000EE0FCA3E0FDD39FEC9E4015ED9FFFEC22
:1009A3009EFED3EF940AEE94007F0540027F0480FD
:1009B3002290000EE0FEA3E0FFC390000BE09FFF38
:1009C30090000AE09EFED3EF940AEE94007F054068
:1009D300027F04BF04047F0480067F0580027F0535
:1009E300EF6404705D90006CE0FBA3E0FAA3E0F910
:1009F30090000212024EFFAEF04E602BC3EF94AB99
:100A0300EE940250047F05801390000212024ED32D
:100A13009455E5F094057F0440027F05BF020890DA
:100A2300005274031201D7900052120165B40312ED
:100A330090004D74031201D790006FE0F0A3E044DF
:100A430004F0900079E0FFB4020BA3E07E05B4024A
:100A5300027E0480027E05BE041D90006CE0FBA3B1
:100A6300E0FAA3E0F990004E74031201D790006FEF
:100A7300E0F0A3E04410F0EFB4030D90007BE07FBF
:100A830005B402027F0480027F05BF041D90006C41
:100A9300E0FBA3E0FAA3E0F990004974031201D745
:100AA30090006FE0F0A3E04420F090006FE0FEA31D
:100AB300E0FF90006CE0FBA3E0FAA3E0F990005E96
:100AC300EE8FF00202D390006CEBF0A3EAF0A3E9FF
:100AD300F0E4A3F078707C007D017BFF7A2B790032
:100AE300FE7F0B12012690006CE0FBA3E0FAA3E06B
:100AF3002417F9E43AFA78707C007D017E007F0BBD
:100B03001201267E007F0B7D0090006CE0FBA3E0CA
:100B1300FAA3E02417F9E43AFA120316E4FF747017
:100B23002FF582E43400F583E0FE90006FE02EF0B1
:100B33000FEFB405E974702FF582E43400F583E018
:100B4300FF90006FE06F6003020CD8900073E0FE2B
:100B5300900072E07C002400FFEC3EFE90006CE00D
:100B6300FBA3E0FAA3E0F9900046EE8FF01202D364
:100B730090004612024EFFAEF030E01390006CE09E
:100B8300FBA3E0FAA3E0F99000447401020C71EEB8
:100B9300C313EF1330E01390006CE0FBA3E0FAA360
:100BA300E0F99000447402020C7190006CE0FBA326
:100BB300E0FAA3E0F990004612024EFDACF0AE0459
:100BC3007802CEC313CE13D8F930E00890004474F2
:100BD30003020C71EDAE047803CEC313CE13D8F920
:100BE30030E0089000447404020C71900046120235
:100BF3004EFDACF0ECC4F854F0C8EDC4540F4830CB
:100C0300E00790004474058065EDAE047805CEC31B
:100C130013CE13D8F930E0079000447406804F9048
:100C2300004612024EFDACF0AE047806CEC313CEDE
:100C330013D8F930E00790004474078031EDAE0417
:100C43007807CEC313CE13D8F930E007900044746D
:100C530008801B90004612024EE5F030E01390002E
:100C63006CE0FBA3E0FAA3E0F990004474091201DD
:100C7300D790006CE0FBA3E0FAA3E0F990004412E4
:100C83000165603A900043120165B40A317E007F2A
:100C9300027D00E9245CF9E43AFA12031690006C31
:100CA300E0FBA3E0FAA3E0F9121F6B90006CE0FBFA
:100CB300A3E0FAA3E0F990004374091201D790006E
:100CC30074E0FF90006CE0FBA3E0FAA3E0F990006E
:100CD30042EF1201D72290006EEBF0A3EAF0A3E9F2
:100CE300F090006EE0FBA3E0FAA3E0F97458120160
:100CF300C590006EE0FBA3E0FAA3E0F99000017455
:100D0300591201D790000274071201D7900003749F
:100D13000A1201D7900084E09000041201D79000DA
:100D23000574201201D7900097E0FF7003020E07AD
:100D330090006EE0FBA3E0FAA3E0F990000674795B
:100D43001201D7EF70057F3F020DF6900097E0FF89
:100D5300B401077E067F06020DF6EFB402057F5B42
:100D6300020DF6900097E0FFB403077E4F7F4F021A
:100D73000DF6EFB404047F668079900097E0FFB42A
:100D830005067E6D7F6D806BEFB406047F7D806307
:100D9300900097E0FFB407067E077F078055EFB406
:100DA30008047F7F804D900097E0FFB409067E6FB3
:100DB3007F6F803FEFB40A047F778037900097E01E
:100DC300FFB40B067E7C7F7C8029EFB40C047F3953
:100DD3008021900097E0FFB40D067E5E7F5E801356
:100DE300EFB40E047F79800B900097E07F00B40F7F
:100DF300027F71900007EF1201D7900008E41201FF
:100E0300D7020EB2900083E0FF702290006EE0FBE9
:100E1300A3E0FAA3E0F990000674FF1201D7900053
:100E23000774FF1201D790000874808071EFC39498
:100E330004503BEF7F00B401027F8090006EE0FB23
:100E4300A3E0FAA3E0F9900006EF1201D790008324
:100E5300E0FF7E00B402027E80900007EE1201D70D
:100E6300EF7F00B403027F80900008EF8030900092
:100E730083E024FCFF7401A807088002C333D8FC75
:100E8300FF90006EE0FBA3E0FAA3E0F9900006EF09
:100E93001201D7900007EF1201D7900008E4120166
:100EA300D7900083E004F0E0D3940A4002E4F0908A
:100EB300006EE0FBA3E0FAA3E0F97D0912281C9081
:100EC300006EE0FBA3E0FAA3E0F9900009EF120142
:100ED300D7900084E004F02290005412016514605E
:100EE3002E14602B1470030210812403600302107C
:100EF300B690005A120165C3940A400302108C9005
:100F0300004F120165640260030210B60210A5903F
:100F1300005A740A1201D7900051120165702F9084
:100F230000B77406F090005174011201D7900006C7
:100F3300740575F0551202D3900004740575F055CD
:100F43001202D3900008740275F0AB0210B3900044
:100F53004F1201656402600302104C9000B7E02455
:100F6300F9604614607E2402600302105D90000461
:100F730012024EFF900006E5F08FF01202D39000AC
:100F83000212024EFFAEF090000612024E6F700383
:100F9300E5F06E600302105D90005374021201D7F6
:100FA3009000B77407F002105D90005374021201B1
:100FB300D790000812024EFF900006E5F08FF01262
:100FC30002D390000212024EFFAEF090000612020E
:100FD3004E6F7003E5F06E600302105D9000B7740E
:100FE30008F0807690005374021201D79000021229
:100FF300024EFFAEF0BE0518BF55159000067402F1
:1010030075F0AB1202D3900008740275F0AB804701
:10101300BE0218BFAB15900006740575F055120299
:10102300D3900008740575F055802C9000061202C9
:101033004E6F7003E5F06E702190000812024EFFB0
:10104300900006E5F08FF0800E90000412024EFF30
:10105300900006E5F08FF01202D390000AE0FEA3A1
:10106300E0FF90000EE06E7003A3E06F7F04600268
:101073007F05EF6404703C90005374028018900065
:101083005A120165C3940A4010900006E4F5F01269
:1010930002D3900051E40201D790004F120165B4CE
:1010A300021190000412024EFF900006E5F08FF04B
:1010B3001202D32290006FEBF0A3EAF0A3E9F090C1
:1010C3000002120165FF6404601890006FE0FBA347
:1010D300E0FAA3E0F99000011201656404600302E1
:1010E3001238EFB4041B9000B1E0640B600BE49082
:1010F30000ADF09000AFF0A3F09000B1740BF0805E
:10110300199000B1E0640C600BE49000ADF0900026
:10111300AFF0A3F09000B1740CF090006FE0FBA36C
:10112300E0FAA3E0F9900002120165B4042B9000E9
:10113300AFE0FEA3E0FF7C037D841201F9C3ED94CD
:101143004EEC940250047402803E90006FE0FBA3C7
:10115300E0FAA3E0F97403802F9000AFE0FEA3E070
:10116300FF7C037D841201F9C3ED9458EC94029043
:10117300006FE0FB500AA3E0FAA3E0F974018008D2
:10118300A3E0FAA3E0F974031201C59000ADE07087
:101193001704F090006FE0FBA3E0FAA3E0F99000DE
:1011A300071201659000AEF090006FE0FBA3E0FA38
:1011B300A3E0F9900007120165FF9000AEE0FEEF97
:1011C300C39E400DEF9EC394017F0450027F0580B0
:1011D300139000071201652478C39EC394017F0412
:1011E30050027F05EF64047051900007120165906F
:1011F30000AEF09000B0E004F070069000AFE004A1
:10120300F0C39000B0E094109000AFE0940E402A39
:10121300E41201C590006FE0FBA3E0FAA3E0F990AC
:101223000002120165B404059000028003900001DE
:1012330074050201D7E49000B1F02290004412013A
:101243006514B4090040030213B190125B75F003F7
:10125300A4C58325F0C58373021394021296021268
:10126300BA0212DD0213610213B1021308021276ED
:101273000213319000451201656408603790004500
:1012830074081201D790003874021201D7900054E9
:10129300E480669000451201656402601790004582
:1012A30074021201D790003874021201D7900054CF
:1012B3007401804502135A9000451201656403606E
:1012C3001790004574031201D7900038740212017D
:1012D300D790005474038021807D900045120165EE
:1012E3006404601F90004574041201D790003874A1
:1012F300021201D790005474021201D79000567461
:1013030005804A80529000451201656407601D9074
:10131300004574071201D790003874021201D79068
:10132300005574041201D79000568027802990003D
:10133300451201656409601F90004574091201D7C5
:1013430090003874021201D790005674041201D72A
:10135300900055740580549000407402804D9000B5
:1013630054120165FF64016005EF6402701C900074
:101373003874021201D790004F12016590004FB4E8
:10138300030474028025740380219000407402805A
:101393001A90003874021201D79000481201659028
:1013A3000048B403047402800274031201D790004E
:1013B30044E40201D7900000E06006E4F0A3E004F7
:1013C300F0900001E0C39408405BE4F0A3E004F074
:1013D3009000D2E0FBA3E0FAA3E0F9122497900077
:1013E300D2E0FBA3E0FAA3E0F912288D9000D2E04B
:1013F300FBA3E0FAA3E0F912279F9000D2E0FBA33E
:10140300E0FAA3E02426F9E43AFAC002C00190000E
:10141300D2A3E0FAA3E0F9900025120165FDD00103
:10142300D002121E4E900002E0C3940A4028E4F05A
:10143300A3E004F0900005E004F09000D2E0FBA3E9
:10144300E0FAA3E0F9121FEE9000D2E0FBA3E0FA6A
:10145300A3E0F91220E9900003E0C394054014E4EB
:10146300F0A3E004F09000D2E0FBA3E0FAA3E0F9DC
:10147300121528900004E0C394024010E4F0900099
:10148300D2E0FBA3E0FAA3E0F9121B03900005E00E
:10149300C394184033E4F0A3E004F09000D2E0FBDF
:1014A300A3E0FAA3E0F91226369000D2E0FBA3E012
:1014B300FAA3E0F912275F9000D2E0FBA3E0FAA3BE
:1014C300E0F91205EB43CF10900006E0C39402400D
:1014D3001EE4F0A3E004F01229EF9000D2E0FBA396
:1014E300E0FAA3E0F9900060EF1201D712223990DD
:1014F3000007E0C39402402CE4F09000D2E0FBA389
:10150300E0FAA3E0F912003E9000D2E0FBA3E0FA78
:10151300A3E0F91222A79000D2E0FBA3E0FAA3E034
:10152300F9122A4B229000381201656402703A9036
:101533000036120165B4031890003674021201D705
:1015430090003AE4F5F01202D3900039E41201D787
:10155300900039120165700302167F900036740300
:101563001201D790003802166490003C12016564A2
:1015730002703A900036120165B403189000367475
:10158300021201D790003EE4F5F01202D390003D21
:10159300E41201D790003D120165700302167F909B
:1015A300003674031201D790003C02166490004089
:1015B3001201656402600302167F90004112016507
:1015C300FF704B900036120165B403189000367417
:1015D300021201D790003AE4F5F01202D3900039D9
:1015E300E41201D7900039120165700302167F904F
:1015F300003674031201D790004174011201D79091
:10160300003AE4F5F01202D3900039E4806BEF6402
:101613000170529000361201656403702090003906
:10162300120165601890003674021201D790003AD7
:10163300E4F5F01202D3900039E41201D79000369A
:1016430012016564027035900039120165602D90B6
:101653000041E41201D790003674031201D79000C1
:101663004074038014900041E41201D79000367453
:10167300031201D790004074031201D7227B017A31
:1016830000798574681201C590000174021201D7B4
:10169300900097E014700302172B1470030217399C
:1016A30014700302174714700302175524046003D0
:1016B30002176C900082E0FF700F90000274071213
:1016C30001D7900003747F804CEFC394045016EF4E
:1016D30014FF74017E00A807088005C333CE33CE00
:1016E300D8F9FF80027F00900002EF1201D790002B
:1016F30082E0FFC394044017EF24FCFF74017E00D3
:10170300A807088005C333CE33CED8F9FF80027F04
:1017130000900003EF1201D7900082E004F0E0D3C1
:10172300940A4053E4F0804F900002E41201D790F2
:101733000003745C803E900002E41201D790000322
:10174300747C8030900002E41201D7900003745837
:10175300802290000274071201D7900003747F1255
:1017630001D7E4900082F0800E900002E41201D7CA
:10177300900003E41201D7900001120165FF1201EA
:101783004C2FFF9000021201652FFF9000031201FE
:10179300652F9000041201D790000574160201D73B
:1017A30090006CEBF0A3EAF0A3E9F0E4A3F0787007
:1017B3007C007D017BFF7A2B790BFE7F05120126CE
:1017C30090006CE0FBA3E0FAA3E0F9900010120193
:1017D3006570030218BA900010E41201D7E92411CE
:1017E300F9E43AFA78707C007D017E007F051201EE
:1017F300267E007F057D0090006CE0FBA3E0FAA34A
:10180300E02411F9E43AFA120316E4FF74702FF599
:1018130082E43400F583E0FE90006FE02EF00FEFDA
:10182300B404E974702FF582E43400F583E0FF908B
:10183300006FE06F60030218BA900072E0FE900040
:1018430071E07C002400FFEC3E9000D5F0A3EFF0A4
:1018530090006CE0FBA3E0FAA3E0F990005C1202B5
:101863004EFF9000D5E065F07003A3E06F604890F1
:101873000043120165B409237E007F187D00E9242B
:1018830044F9E43AFA12031690006CE0FBA3E0FA81
:10189300A3E0F9900043740A1201D79000D5E0FE4B
:1018A300A3E0FF90006CE0FBA3E0FAA3E0F9900053
:1018B3005CEE8FF01202D32290007F7401F0A374C8
:1018C30000F0A37418F09000A1E024A2F582E434A0
:1018D30000F583EFF09000A1E004F09000A0E02475
:1018E300F960401460472402600302198A9000A241
:1018F300E064687028A3E0FFB4010D9000A17402B6
:10190300F09000A07407F022EFB468079000A17470
:1019130001F0229000A1E06402706CF022E49000D8
:10192300A1F02290009F7407F0A304F02290009F7F
:10193300E0FF9000A1E0C39F404D90007FE0FBA338
:10194300E0FAA3E0F990000674011201D77E00903B
:10195300007FE0FBA3E0FAA3E02407F9E43AA8013F
:10196300FCAD037B017A0079A212012690009FE06F
:10197300FF7E007D007B017A0079A212031690009E
:10198300A07406F0E4A3F0229000541201651460E1
:101993002A14602714606F24036003021A4790001F
:1019A3005A120165C3940A405690004D7403120104
:1019B300D790005374031201D7804490005312014F
:1019C3006564026009900052120165B4020F900031
:1019D3005774011201D790004D7402801F90005A72
:1019E300120165C3940A4017900057E41201D7907F
:1019F300005374031201D790004D74031201D79062
:101A0300004E7403803B90005A120165C3940A4050
:101A13003390004D74031201D790005374031201E5
:101A2300D790000AE0FEA3E0FF90000EE06E700383
:101A3300A3E06F7F0460027F05BF040890004E742B
:101A4300021201D7224300D20100084100AD004138
:101A530000AE004200AF00004100B1004200B206F8
:101A6300004100B4004100B5004100B6004100B799
:101A7300064100B8004200B900004100BB004A0023
:101A8300BC000000000000000000004100C600424E
:101A930000CE00004100D0064100D1004100820089
:101AA30041008300410084005000850000000000D5
:101AB300000000000000000000000041009500410C
:101AC3000096004300CB0100084100C7004100C855
:101AD300004100C9004100CA004100980641009935
:101AE3000045009A00000000004100A0064100A14B
:101AF300004B00A2000000000000000000000000F6
:101B030090006012016564047003021BB5900043EA
:101B130012016564096003021BB59000541201654C
:101B230014602314603714604B2403706D90005AC3
:101B3300120165C3940A90000E5004740880027465
:101B4300071201D7801F90000E74071201D790006F
:101B53000F74051201D790000D7402805290000E8D
:101B630074061201D790000F74051201D790000D6F
:101B73007403803B90005A120165C3940A90000ECF
:101B830050047409800274071201D790000F740483
:101B93001201D790000D7403801590000E74071284
:101BA30001D790000F74051201D790000D74031232
:101BB30001D722900064E0C41313540330E07B90F8
:101BC300005274021201D790000212024EFFAEF0CF
:101BD300BE021EBFAB1B900006740575F0551202C2
:101BE300D390000612024EFD900008E5F08DF080C0
:101BF30046BE051EBF551B900006740275F0AB125E
:101C030002D390000612024EFF900008E5F08FF019
:101C1300802590000212024EFFAEF09000061202E1
:101C23004E6F7003E5F06E703390000812024EFFA2
:101C3300900006E5F08FF00202D390005212016586
:101C4300B4021190000212024EFF900006E5F08FDD
:101C5300F01202D390005274031201D72290007C39
:101C63007401F0A37400F0A37418F0900099E0FEDF
:101C7300249AF582E43400F583EFF0900098E02491
:101C8300F96024047070749A2EF582E43400F583AD
:101C9300E0B4680C90009A7468F09000987407F0B0
:101CA300E4900099F0804FEEC3940440499000986B
:101CB3007406F0E4A3F090007CE0FBA3E0FAA3E059
:101CC300F974011201C590007CE0FBA3E0FAA3E0E4
:101CD3002401F9E43AA801FCAD037B017A00799A67
:101CE3007E007F051201267E007F057D007B017A41
:101CF30000799A120316900099E004F0E0C394056A
:101D03004002E4F02290005412016514601714603D
:101D13001414607224036003021DAB900052740319
:101D23001201D7807B90004F120165FF9000501283
:101D330001656F6031900050EF1201D790004F1290
:101D43000165B4020890005A740A1201D790005139
:101D530074011201D790000412024EFF900006E5B1
:101D6300F08FF00202D390004F120165B40210907D
:101D73000053120165B4020790005274028026904A
:101D830000527403801F90005274031201D7900015
:101D930056120165B40511900055120165B405088A
:101DA30090004F74031201D72290006CEBF0A3EA6A
:101DB300F0A3E9F0E4A3F0A3F090006CE0FBA3E050
:101DC300FAA3E0F99000161201657034900070E0F8
:101DD30004F0700690006FE004F090006FE0FEA343
:101DE300E0FFE4FCFD7B607AEAF9F8C312030050DC
:101DF3000A90006F74EAF0A37460F043CF1080B9C7
:101E030090006CE0FBA3E0FAA3E0F990004212011A
:101E130065FF700690009704F022EFD394504007BB
:101E23009000977402F02290006FE0FEA3E0FFE4BD
:101E3300FCFD7B607AEAF9F8C31203007007900097
:101E4300977403F022E4900097F022900069EBF07E
:101E5300A3EAF0A3E9F09000CBE0FBA3E0FAA3E050
:101E6300F9900023120165605A9000241201656005
:101E730037900024E41201D7900069E0FBA3E0FA55
:101E8300A3E0F99000C9E0F582758300120165F5BE
:101E93009FE49000CAF09000C9E004F0E0C39D40C5
:101EA3003AE4F09000CB800D9000CAE004F0E0C368
:101EB30094C84027A3E0FBA3E0FAA3E0F990002332
:101EC300E48015E49000C9F0A3F0A3E0FBA3E0FADB
:101ED300A3E0F990002474011201D722787FE4F67D
:101EE300D8FD758107021F26020003E493A3F8E4DB
:101EF30093A34003F68001F208DFF48029E493A35F
:101F0300F85407240CC8C333C4540F4420C8834077
:101F130004F456800146F6DFE4800B010204081046
:101F2300204080901A48E47E019360BCA3FF543F95
:101F330030E509541FFEE493A360010ECF54C0257E
:101F4300E060A840B8E493A3FAE493A3F8E493A36E
:101F5300C8C582C8CAC583CAF0A3C8C582C8CAC5D2
:101F630083CADFE9DEE780BE900054E41201D79014
:101F7300004874031201D790004F74031201D790E5
:101F8300004974031201D790004D74031201D790D6
:101F9300004E74031201D790004B74031201D790C3
:101FA300005074031201D7900051E41201D790003E
:101FB3005774011201D790005874011201D7900091
:101FC30059E41201D790005A740A1201D7900055B0
:101FD30074051201D790005674051201D79000239F
:101FE300E41201D790000CE40201D7900069EBF0F2
:101FF300A3EAF0A3E9F0900069E0FBA3E0FAA3E011
:10200300F990006012016564046061122A3890003F
:1020130069E0FBA3E0FAA3E0F990004312016564D1
:1020230009704912123E900069E0FBA3E0FAA3E0B5
:10203300F9120358900069E0FBA3E0FAA3E0F91258
:102043000EDB900069E0FBA3E0FAA3E0F9121D08A0
:10205300900069E0FBA3E0FAA3E0F912198B90006A
:1020630069E0FBA3E0FAA3E0F912086922C0E0C02B
:10207300F0C083C082C0D075D000C000C001C002D0
:10208300C003C004C005C006C007C2CF9000C8E0AB
:1020930004F0E0FFD394014011EF30E00D9000C74E
:1020A300E013F0308504E04480F09000C8E0C3946E
:1020B300114018E4F043C60243A908C2CA75CBFC19
:1020C30075CABE9000C7E0FF121C60D007D006D0CF
:1020D30005D004D003D002D001D000D0D0D082D01C
:1020E30083D0F0D0E032900069EBF0A3EAF0A3E9EB
:1020F300F0900069E0FBA3E0FAA3E0F9900060121E
:102103000165640460501217A3900069E0FBA3E02B
:10211300FAA3E0F9900043120165B40A39E9240CEB
:10212300F9E43AFA1226CF900069E0FBA3E0FAA3A0
:10213300E02448F9E43AFA1224EF900069E0FBA3A3
:10214300E0FAA3E0F912296D900069E0FBA3E0FA3D
:10215300A3E0F9121BB62243CF10E4FFFEE4900084
:102163006CF0A3F090006DE004F0700690006CE05A
:1021730004F090006CE0B403EBA3E0B4E8E60FBF17
:1021830000010EEF64C84E70D443CF10900097E067
:10219300FF1227DFE4FEFFE490006CF0A3F0900051
:1021A3006DE004F0700690006CE004F090006CE0C9
:1021B300B403EBA3E0B4E8E60FBF00010EEF64C87D
:1021C3004E70D443CF1022900004120165B4011A5B
:1021D3009000067401120192900006120165C394E7
:1021E3000A400E900006740A8004900006E412016F
:1021F300D7900003120165B4011A9000057401120F
:102203000192900005120165C39401400E900005F0
:1022130074018004900005E41201D7900007740153
:10222300120192900007120165C394784007900051
:1022330007E41201D722900069EBF0A3EAF0A3E9C7
:10224300F09000601201656404705843CF10900051
:1022530096E014602F04704B900096E004F0900019
:1022630069E0FBA3E0FAA3E0F990004074021201D5
:10227300D77F021227DF900069E0FBA3E0FAA3E017
:10228300F9021DAC900069E0FBA3E0FAA3E0F9902A
:102293000040120165B4030B12000E1229D2E49020
:1022A3000096F0229000431201656409705E90006D
:1022B30054120165FF9000B8E06F6007EFF0E4A3EC
:1022C300F0A3F0EF1424FD500D24047029E49000D2
:1022D300B9F0A3F08020900056120165B405179061
:1022E3000055120165B4050E9000BAE004F07006C3
:1022F3009000B9E004F0C39000BAE094209000B9D4
:10230300E0941C4007900054E41201D722C0E0C0BF
:10231300F0C083C082C0D075D000C000C001C0022D
:10232300C003C004C005C006C007E59D30E11E53CD
:102333009DFD9000CBE0FBA3E0FAA3E0F99000241D
:1023430074011201D790002274011201D7E59D3068
:10235300E008539DFEAF9F1218BBD007D006D005EF
:10236300D004D003D002D001D000D0D0D082D0830B
:10237300D0F0D0E0329000D0E06407703E900006C9
:1023830012024E45F0701E90000212024E45F0708C
:10239300199000CEE0701304F0900002E475F0246D
:1023A3001202D38005E49000CEF090000612024E94
:1023B300FF90000AE5F08FF00202D390000AE4F5E3
:1023C300F01202D390000212024E45F07006900004
:1023D300D07407F02212014C605AE41201C5900038
:1023E300011201D790000A12024EFFAEF0900002D4
:1023F30012024EFDACF0C39FEC9E5010ED5407FF4C
:10240300122438900002E475F001802290000A1231
:10241300024EFFD3ED9FEC95F0401690000212029E
:102423004E5407FF12243890000274FFF5F00202A5
:1024330086122AE022EFB408005058902445F82869
:10244300287302245D022463022469022472022495
:102453007802248102248A02248ED2A5C2A4800A8F
:10246300D2A5D2A48004C2A5D2A4C2A3C2A222C26E
:10247300A5D2A48004C2A5C2A4D2A3C2A222C2A58B
:10248300C2A4D2A3D2A222C2A58002D2A5C2A4C250
:10249300A3D2A22290003AE475F0011202869000C2
:1024A3003EE475F00112028690003A12024EC39484
:1024B30096E5F09400401290003AE475F09612020B
:1024C300D390003974011201D790003E12024EC31B
:1024D3009420E5F09403401390003E740375F020BC
:1024E3001202D390003D74011201D722900064E0E0
:1024F300C31330E0047402800274031201C5900018
:1025030064E0FCEC1313543F90000130E0047402C8
:10251300800274031201D7EC131313541F900005A8
:1025230030E0047402800274031201D7900064E067
:10253300C4540F90000630E0047402800274031246
:1025430001D722C0E0C0F0C083C082C0D075D000E4
:10255300C000C001C002C003C004C005C006C0075C
:10256300758CF8758A909000007401F09000CBE0B0
:10257300FBA3E0FAA3E0F912002ED007D006D005A2
:10258300D004D003D002D001D000D0D0D082D083E9
:10259300D0F0D0E03290000E120165FDB4060BE4DA
:1025A3009000BBF0900014E0802AED6408600A906C
:1025B300000E1201656409701F9000BBE004F0E097
:1025C300C394044002E4F09000BBE0C39402900083
:1025D30014E0500D4404F022E49000BBF09000148A
:1025E300E054FBF02290003674031201D7900038B8
:1025F30074031201D790003C74031201D79000407A
:1026030074031201D7900037E41201D790003AE423
:10261300F5F01202D3900039E41201D790003EE4A2
:10262300F5F01202D390003DE41201D7900041E48B
:102633000201D7900069EBF0A3EAF0A3E9F0900060
:1026430069E0FBA3E0FAA3E0F9900060120165647E
:1026530004602D122A83900069E0FBA3E0FAA3E053
:10266300F9122A92900069E0FBA3E0FAA3E0F912C1
:102673002AA1900069E0FBA3E0FAA3E0F9122AB0D3
:1026830022900069EBF0A3EAF0A3E9F07E007F0C4F
:102693007D00900069E0FBA3E0FAA3E0F9120316C2
:1026A300900069E0FBA3E0FAA3E0F990000874024C
:1026B30075F0AB1202D3900004740575F055120245
:1026C300D3900002740575F0DC0202D3900064E03D
:1026D300FEA3E0FF90000130E00474028002740363
:1026E3001201D7EEC313EF1390000330E004740418
:1026F300800274051201D7900064E0FEA3E0780223
:10270300CEC313CE13D8F990000230E004740680D0
:102713000274071201D72290006EEBF0A3EAF0A334
:10272300E9F0E4FFEFC39D503290006EE0FBA3E0BD
:10273300FAA3E0F98F82758300120165F59F90007B
:10274300CBE0FBA3E0FAA3E0F9900022120165605D
:10275300ED900022E41201D70F80C922900069EBAB
:10276300F0A3EAF0A3E9F0900069E0FBA3E0FAA389
:10277300E0F99000601201656404601F12259890CF
:102783000069E0FBA3E0FAA3E0F9122A0C900069C8
:10279300E0FBA3E0FAA3E0F9122A2222900069EBFE
:1027A300F0A3EAF0A3E9F0900069E0FBA3E0FAA349
:1027B300E0F99000601201656404601F12237890B1
:1027C3000069E0FBA3E0FAA3E0F91223D8900069C3
:1027D300E0FBA3E0FAA3E0F91228C022EF14600E95
:1027E30014601E240270311216807D0680257B0141
:1027F3007A007985120CD97B017A0079857D0A806C
:10280300121216807A00798B120CD97B017A007927
:10281300857D107C00122AF222E4FFAE051DEE60D6
:10282300307E80EED39400401FEF30E70725E0644D
:1028330007FF8004EF25E0FF12014C5E6004EF64A4
:1028430007FFEEC313FE80DB740129F9E43AFA8033
:10285300CA229000D2E0FBA3E0FAA3E0F91225E834
:102863009000D2E0FBA3E0FAA3E0F9121F6B900003
:10287300D2E0FBA3E0FAA3E0F9122AE99000D2E048
:10288300FBA3E0FAA3E0F9022684900069EBF0A32E
:10289300EAF0A3E9F0900052120165B4021090002F
:1028A300D1E004F0E0D394024012E4F08000900001
:1028B30069E0FBA3E0FAA3E0F91229922290005405
:1028C300120165FF64016004EFB4022390004D120E
:1028D3000165B4021A90000212024EFFAEF0D394C7
:1028E300ABEE94024009900004EE8FF01202D32263
:1028F3009000D2E0FBA3E0FAA3E0F9900038740261
:102903001201D790004374091201D77E007F087D1E
:10291300007B017A007900020316438E0543890187
:10292300758CF8758A90C28CD2A9D28C75CBFC7544
:10293300CABEC2CAD2ADD2CAD2BD43FEC143FF8210
:1029430043CF102212014C6402701590000104124F
:102953000192900001120165D394015003C29522A4
:10296300900001E41201D7C29522900064E030E0A8
:102973001490000612024E45F07013900006740581
:1029830075F0558006900006E4F5F01202D322900C
:1029930000017401120192900001120165C39404B5
:1029A300400D90000174041201D774011201C52275
:1029B300759A9F759B607591E175921075A1FC7571
:1029C300A203E4F5C775C60243A90843B90822D296
:1029D300A212215AC2A2D2A312215AC2A3D2A41272
:1029E300215AC2A4D2A512215AC2A5222094129020
:1029F3000095E004F0E0D39402400B122A5E7F04BA
:102A030022E4900095F07F052290000D120165905D
:102A13000014B40205E04401F022E054FEF02290D9
:102A2300000F120165900014B40405E04402F02283
:102A3300E054FDF022900016120165600A90001622
:102A4300E41201D7120AC922900042120165C3940D
:102A5300504007900054E41201D722C2A6C280C29C
:102A6300A7C297C296C2A5C2A4C2A3C2A222438F81
:102A7300C0759D50759E8275950643A901D2AF22FC
:102A8300900048120165B40203D28022C2802290D2
:102A93000049120165B40203D29622C29622900025
:102AA3004D120165B40203D2A622C2A62290004EA3
:102AB300120165B40203D29722C2972253A9F77574
:102AC300C600D2CA75CBFC75CABE3212285512286D
:102AD300F30200381229B312291D022A71C2A5C2BA
:102AE300A4C2A3C2A22290005CE4F5F00202D302C6
:102AF300271A000000000000000000000000000092
:0D2B030000000000000000000000000000C5
:00000001FF
