:100000000228E512355B121A6680FB022F8A2094C3
:100010001290016DE004F0E0D39401400B1234AE75
:100020007F0422E490016DF07F0522022A6CE9240E
:100030003FF9E43AFA023411023564022D67900068
:100040004C120921B4090AE9245DF9E43AFA122BA9
:02005000562236
:1000530002354C90013CEBF0A3EAF0A3E9F0E4A3F2
:10006300F0A3F090013CE0FBA3E0FAA3E0F99000D9
:1000730069120921640470030204D1900018120963
:100083002124F36014146018240E7023900187E078
:10009300F09001407464F08016E4900187F0800FC3
:1000A300E4900187F090004B120921900140F090F9
:1000B3000187E06003020288A37468F090013CE0CA
:1000C300FBA3E0FAA3E0F9900067120A3EFFAEF04B
:1000D3004E70030202479001897402F090001412DB
:1000E300092190018AF0900193E0C3940240030236
:1000F3000232EF30E0057F000201AC90013CE0FBEF
:10010300A3E0FAA3E0F9900067120A3EFF30E1058D
:100113007F010201ACEF30E2057F020201AC9000E7
:1001230067120A3EFF30E3047F03807DEF30E4046F
:100133007F048075900067120A3EFF30E5047F0557
:100143008067EF30E6047F06805F900067120A3E07
:10015300AEF030E7047F078050EE30E0047F088084
:1001630048900067120A3EAEF0EE30E1047F09804A
:1001730038EE30E2047F0A8030900067120A3EAE08
:10018300F0EE30E3047F0B8020EE30E4047F0C803C
:1001930018900067120A3EAEF0EE30E5047F0D8042
:1001A30008EE7F0F30E6027F0EEF70047F3F80780A
:1001B300EFB401047F068070EFB402047F5B8068B4
:1001C300EFB403047F4F8060EFB404047F6680586C
:1001D300EFB405047F6D8050EFB406047F7D804843
:1001E300EFB407047F078040EFB408047F7F8038B3
:1001F300EFB409047F6F8030EFB40A047F7780285F
:10020300EFB40B047F7C8020EFB40C047F3980189B
:10021300EFB40D047F5E8010EFB40E047F79800885
:10022300EF7F00B40F027F7190018BEFF08005E444
:1002330090018BF0900193E004F0E0C3940440221A
:10024300E4F0801E9001897401F090013CE0FBA36F
:10025300E0FAA3E0F990001412092190018AF0E476
:10026300A3F0900189E0FF900188E02FFF90018ABD
:10027300E02FFFA3E02FA3F0A37416F090013F74C7
:1002830006F00204889001887458F0A304F0A37464
:1002930007F0A3740AF0900192E090018CF0A3742C
:1002A30020F0900140E0FFD39463400E90018E74E0
:1002B30040F0A3F0E4A3F002046EEF75F00A84FFAC
:1002C30070057F3F020377BF01057F060203779026
:1002D3000140E075F00A84FFBF02057F5B020377EC
:1002E300BF03057F4F020377900140E075F00A8456
:1002F300FFBF04047F66807CBF05047F6D8075901B
:100303000140E075F00A84FFBF06047F7D8065BF6E
:1003130007047F07805E900140E075F00A84FFBF09
:1003230008047F7F804EBF09047F6F8047900140A0
:10033300E075F00A84FFBF0A047F778037BF0B04A0
:100343007F7C8030900140E075F00A84FFBF0C048D
:100353007F398020BF0D047F5E8019900140E075D6
:10036300F00A84FFBF0E047F798009BF0F047F71F9
:1003730080027F009000E6E0FE7D0030E0027D8099
:10038300ED4F90018EF0900140E075F00A84AFF0DC
:10039300EF70057F3F020450BF01057F0602045042
:1003A300900140E075F00A84AFF0BF02057F5B0265
:1003B3000450BF03057F4F020450900140E075F0E5
:1003C3000A84AFF0BF04057F66020450BF05047FB3
:1003D3006D807A900140E075F00A84AFF0BF0604A7
:1003E3007F7D8069BF07047F078062900140E075CD
:1003F300F00A84AFF0BF08047F7F8051BF09047FF8
:100403006F804A900140E075F00A84AFF0BF0A04A0
:100413007F778039BF0B047F7C8032900140E07589
:10042300F00A84AFF0BF0C047F398021BF0D047F35
:100433005E801A900140E075F00A84AFF0BF0E04AD
:100443007F798009BF0F047F7180027F00EE7E00F9
:1004530030E1027E80EE4F90018FF09000E6E07F66
:100463000030E2027F80900190EFF07B017A017906
:10047300887D091232E3900191EFF0A3E004F0903C
:10048300013F740AF090013FE0FF90013CE0FBA3C1
:10049300E0FAA3E0F990002EEF1209B57E00900177
:1004A3003CE0FBA3E0FAA3E0242FF9E43AA801FC23
:1004B300AD037B017A0179881208E290013CE0FBED
:1004C300A3E0FAA3E0F990002C74011209B522907D
:1004D300013FEBF0A3EAF0A3E9F078447C017D014E
:1004E3007BFF7A3579887E007F081208E2784C7C9E
:1004F300017D017BFF7A3579907E007F031208E24C
:1005030090013FE0FBA3E0FAA3E0F990000E120A8A
:100513003EFF900144E5F0F0A3EFF0900004120ACF
:100523003EFF900146E5F0F0A3EFF090000A120AB7
:100533003EFF900148E5F0F0A3EFF0900002120AAD
:100543003EFF90014AE5F0F0A3EFF0900056120948
:100553002190014CF090005712092190014DF09029
:10056300005212092190014EF0E4900142F0A3F0F1
:10057300900144E0FEA3E0FF4E6022C3EF94ABEE94
:10058300940250047F048017D3900145E094559062
:100593000144E094057F0540027F0480027F05BF8C
:1005A300041E90013FE0FBA3E0FAA3E0F990000EE4
:1005B300E4F5F0120AC3900142E0F0A3E04401F035
:1005C300900146E0FEA3E0FF4E600EEF7003EE6481
:1005D300047F0560027F0480027F05BF041E900133
:1005E3003FE0FBA3E0FAA3E0F9900004E4F5F01286
:1005F3000AC3900142E0F0A3E04402F0900144E01A
:10060300FEA3E0FF4E600EA3E07002A3E07D056051
:10061300027D0480027D05BD041E90013FE0FBA323
:10062300E0FAA3E0F9900004E4F5F0120AC39001A4
:1006330042E0F0A3E04404F0EF4E60047F0580192C
:10064300900146E07002A3E060047F05800B9001F7
:100653004CE07F05B402027F04BF041D90013FE01C
:10066300FBA3E0FAA3E0F990005674031209B590D6
:100673000142E0F0A3E04408F090014CE064027012
:10068300589000DCE0FEA3E0FF9000E0E0FCA3E074
:10069300FDD39FEC9E4015ED9FFFEC9EFED3EF94A0
:1006A3000AEE94007F0540027F0480229000E0E080
:1006B300FEA3E0FFC39000DDE09FFF9000DCE09E1F
:1006C300FED3EF940AEE94007F0540027F04BF043B
:1006D300047F0480067F0580027F05EF6404705D5C
:1006E30090013FE0FBA3E0FAA3E0F990000A120AAD
:1006F3003EFFAEF04E602BC3EF94ABEE940250047A
:100703007F05801390000A120A3ED39455E5F094B6
:10071300057F0440027F05BF050890005B74031248
:1007230009B590005B120921B403129000567403BB
:100733001209B5900142E0F0A3E04410F090014C9F
:10074300E0640270569000D4E0FEA3E0FFA3E0FC57
:10075300A3E0FDD39FEC9E4015ED9FFFEC9EFED3DF
:10076300EF940AEE94007F0540027F0480229000FC
:10077300D6E0FEA3E0FFC39000D5E09FFF9000D436
:10078300E09EFED3EF940AEE94007F0540027F04BF
:10079300BF04047F0480067F0580027F05BF041D1C
:1007A30090013FE0FBA3E0FAA3E0F9900056740345
:1007B3001209B5900142E0F0A3E04420F090014C0F
:1007C300E0B4030D90014EE07F05B402027F048084
:1007D300027F05BF041D90013FE0FBA3E0FAA3E005
:1007E300F990005274031209B5900142E0F0A3E0BE
:1007F3004440F0900142E0FEA3E0FF90013FE0FBA4
:10080300A3E0FAA3E0F9900067EE8FF0020AC3E7D2
:1008130009F608DFFA8046E709F208DFFA803E8826
:10082300828C83E709F0A3DFFA8032E309F608DF5D
:10083300FA8078E309F208DFFA807088828C83E318
:1008430009F0A3DFFA806489828A83E0A3F608DFD4
:10085300FA805889828A83E0A3F208DFFA804C8009
:10086300D280FA80C680D4806980F2803380108081
:10087300A680EA809A80A880DA80E280CA803389E1
:10088300828A83ECFAE493A3C8C582C8CCC583CC1F
:10089300F0A3C8C582C8CCC583CCDFE9DEE7800DF1
:1008A30089828A83E493A3F608DFF9ECFAA9F0EDD1
:1008B300FB2289828A83ECFAE0A3C8C582C8CCC52F
:1008C30083CCF0A3C8C582C8CCC583CCDFEADEE8FD
:1008D30080DB89828A83E493A3F208DFF980CC88E2
:1008E300F0EF60010E4E60C388F0ED2402B4040003
:1008F30050B9F582EB2402B4040050AF23234582A0
:100903002390086273BB010689828A83E022500226
:10091300E722BBFE02E32289828A83E49322BB019E
:100923000CE58229F582E5833AF583E0225006E956
:100933002582F8E622BBFE06E92582F8E222E5825B
:1009430029F582E5833AF583E49322BB0109898281
:100953008A83F8E028F022500327F722BBFE05F82C
:10096300E328F3228A838982F8E4932822BB010FC8
:10097300F8E58229F582E5833AF583E028F02250F1
:1009830009C58229F8E58226F622BBFE09C582291C
:10099300F8E22582F222F8EA2583F583E9932822F7
:1009A300BB010689828A83F0225002F722BBFE0133
:1009B300F322F8BB010DE58229F582E5833AF5833D
:1009C300E8F0225006E92582C8F622BBFE05E92598
:1009D30082C8F222EF8DF0A4A8F0CF8CF0A428CE29
:1009E3008DF0A42EFE22BC000BBE0029EF8DF084F7
:1009F300FFADF022E4CCF875F008EF2FFFEE33FEE5
:100A0300EC33FCEE9DEC984005FCEE9DFE0FD5F01B
:100A1300E9E4CEFD22EDF8F5F0EE8420D21CFEAD24
:100A2300F075F008EF2FFFED33FD4007985006D522
:100A3300F0F222C398FD0FD5F0EA22BB0110E58244
:100A430029F582E5833AF583E0F5F0A3E022500926
:100A5300E92582F886F008E622BBFE0AE92582F83A
:100A6300E2F5F008E222E5832AF583E993F5F0A3A2
:100A7300E99322BB010DC58229C582C5833AC5838B
:100A8300020B325011C58229F808E5F026F618F555
:100A9300F0E58236F622BBFE11C58229F808E2256D
:100AA300F0F5F0F218E23582F222F8E58229F582B8
:100AB300E5832AF58374019325F0F5F0E493382256
:100AC300F8BB0111E58229F582E5833AF583E8F065
:100AD300E5F0A3F0225009E92582C8F608A6F02222
:100AE300BBFE09E92582C8F2E5F008F222EB9FF587
:100AF300F0EA9E42F0E99D42F0EC6480C86480987D
:100B030045F022EF4E6012EF60010EEDBB010B8941
:100B1300828A83F0A3DFFCDEFA2289F05007F7090B
:100B2300DFFCA9F022BBFEFCF309DFFCA9F022C520
:100B3300F0F8A3E028F0C5F0F8E5821582700215FD
:100B430083E038F02290013FEBF0A3EAF0A3E9F051
:100B5300245DF9E43AFA12176590013FE0FBA3E044
:100B6300FAA3E0F990005D12092114603E14606D50
:100B7300147003020CF824036003020D299000553E
:100B8300120921B40407900063E41209B5900052DE
:100B930074031209B5900060E41209B5900062E491
:100BA3001209B590004E7408020D2690013FE0FB38
:100BB300A3E0FAA3E0F9900055120921B4040790C9
:100BC3000063E41209B590005274031209B5900052
:100BD30060E41209B59000627401020D2690013F92
:100BE300E0FBA3E0FAA3E0F9900063120921C394A8
:100BF3000A405190005C120921B4022A9000541259
:100C03000921B4020E900060E41209B5900062E479
:100C13001209B590013FE0FBA3E0FAA3E0F99000CD
:100C2300547403020CBC90013FE0FBA3E0FAA3E081
:100C3300F990000C120A3EFF90000EE5F08FF012BF
:100C43000AC3807890017DE06408707090013FE0F2
:100C5300FBA3E0FAA3E0F9900054120921640270A7
:100C63005B900180E0FF90017FE0FEC39F400DEEAB
:100C73009FC3940A7F0450027F058015EE2478FFFA
:100C8300900180E0FEC3EF9EC3940A7F0450027F6D
:100C930005BF052890006074011209B590005474D3
:100CA300031209B5900063740A1209B590006274C7
:100CB300011209B590005C74021209B590013FE07E
:100CC300FBA3E0FAA3E0F9900062120921C39401A7
:100CD30040549000541209216403704A90005C123E
:100CE30009216402704090005274021209B5900009
:100CF30063740A802E90013FE0FBA3E0FAA3E0F9BE
:100D0300900055120921B40407900063E41209B559
:100D130090005274031209B5900060E41209B59073
:100D23000062E41209B590013FE0FBA3E0FAA3E0FF
:100D3300F9900052120921FF900053120921FE6F0E
:100D43006037EFB4021890017EE0700A90006412DD
:100D53000921900181F090017E7401F08005E490F7
:100D6300017EF090013FE0FBA3E0FAA3E0F99000DD
:100D730052120921900053805BEE64027046900189
:100D83003FE0FBA3E0FAA3E0F9900064120921FF1E
:100D9300900181E0FEEFC39E400DEF9EC394007F60
:100DA3000450027F0580139000641209212478C344
:100DB3009EC394007F0450027F05BF041A90005520
:100DC3007404801090013FE0FBA3E0FAA3E0F990E4
:100DD300005574051209B52290005D1209211460B3
:100DE3003D14603A147003020FAF24036003020F33
:100DF300EF900063120921C3940A401290000EE49D
:100E0300F5F0120AC3900004E4F5F0020FCB900052
:100E13005812092164026003020FEF020FDE9000F3
:100E230063740A1209B590005A120921702F9001B8
:100E3300827406F090005A74011209B590000E7482
:100E43000475F000120AC390000C740475F00012CC
:100E53000AC3900010740275F0AB020FEC900058B7
:100E630012092164026003020F5B900182E024F9FE
:100E7300604614607E24026003020F6C90000C1223
:100E83000A3EFF90000EE5F08FF0120AC390000AAD
:100E9300120A3EFFAEF090000E120A3E6F7003E599
:100EA300F06E6003020F6C90005C74021209B5903F
:100EB30001827407F0020F6C90005C74021209B592
:100EC300900010120A3EFF90000EE5F08FF0120A18
:100ED300C390000A120A3EFFAEF090000E120A3EC3
:100EE3006F7003E5F06E6003020F6C90018274086B
:100EF300F0807690005C74021209B590000A120A21
:100F03003EFFAEF0BE0518BF551590000E74027576
:100F1300F0AB120AC3900010740275F0AB8047BEA9
:100F23000218BFAB1590000E740575F055120AC375
:100F3300900010740575F055802C90000E120A3E37
:100F43006F7003E5F06E7021900010120A3EFF905F
:100F5300000EE5F08FF0800E90000C120A3EFF9019
:100F6300000EE5F08FF0120AC3900004E4F5F012CE
:100F73000AC39000DCE0FEA3E0FF9000E0E06E70A7
:100F830003A3E06F60047F0580169000D4E0FEA306
:100F9300E0FFA3E06E7003A3E06F7F0460027F05B0
:100FA300EF6404704790005C740280239000631226
:100FB3000921C3940A401B90000EE4F5F0120AC302
:100FC300900004740475F000120AC390005AE402FE
:100FD30009B5900058120921B4021190000C120AAD
:100FE3003EFF90000EE5F08FF0120AC322900142FB
:100FF300EBF0A3EAF0A3E9F0E4A3F078467C017DEB
:10100300017BFF7A357993FE7F0B1208E290014250
:10101300E0FBA3E0FAA3E02420F9E43AFA78467C63
:10102300017D017E007F0B1208E27E007F0B7D00B5
:10103300900142E0FBA3E0FAA3E02420F9E43AFAAA
:10104300120B06E4FF74462FF582E43401F583E0C6
:10105300FE900145E02EF00FEFB405E974462FF53D
:1010630082E43401F583E0FF900145E06F60030201
:1010730011F7900149E0FE900148E07C002400FF55
:10108300EC3EFE900142E0FBA3E0FAA3E0F99000FE
:101093004FEE8FF0120AC390004F120A3EFFAEF0DC
:1010A30030E013900142E0FBA3E0FAA3E0F99000E3
:1010B3004D7401021198EEC313EF1330E013900146
:1010C30042E0FBA3E0FAA3E0F990004D74020211A1
:1010D30098900142E0FBA3E0FAA3E0F990004F12DD
:1010E3000A3EFDACF0AE047802CEC313CE13D8F99A
:1010F30030E00890004D7403021198EDAE047803BC
:10110300CEC313CE13D8F930E00890004D74040217
:10111300119890004F120A3EFDACF0ECC4F854F065
:10112300C8EDC4540F4830E00790004D7405806546
:10113300EDAE047805CEC313CE13D8F930E0079093
:10114300004D7406804F90004F120A3EFDACF0AE86
:10115300047806CEC313CE13D8F930E00790004DC0
:1011630074078031EDAE047807CEC313CE13D8F9DC
:1011730030E00790004D7408801B90004F120A3E28
:10118300E5F030E013900142E0FBA3E0FAA3E0F9BD
:1011930090004D74091209B5900142E0FBA3E0FAF7
:1011A300A3E0F990004D120921603290004C12091E
:1011B30021B40A297E007F027D00E92465F9E43A1F
:1011C300FA120B0690014212284C900142E0FBA355
:1011D300E0FAA3E0F990004C74091209B590014AB2
:1011E300E0FF900142E0FBA3E0FAA3E0F990004B9B
:1011F300EF1209B522900141EBF0A3EAF0A3E9F065
:10120300900141E0FBA3E0FAA3E0F974581209A3AB
:10121300900141E0FBA3E0FAA3E0F99000017459C7
:101223001209B590000274071209B5900003740AFD
:101233001209B5900159E09000041209B590000518
:1012430074201209B590016FE0FF7003021326901A
:101253000141E0FBA3E0FAA3E0F9900006747912E0
:1012630009B5EF70057F3F02131590016FE0FFB4DE
:1012730001077E067F06021315EFB402057F5B02AA
:10128300131590016FE0FFB403077E4F7F4F0213E6
:1012930015EFB404047F66807990016FE0FFB40515
:1012A300067E6D7F6D806BEFB406047F7D80639057
:1012B300016FE0FFB407067E077F078055EFB40890
:1012C300047F7F804D90016FE0FFB409067E6F7F3E
:1012D3006F803FEFB40A047F77803790016FE0FFA0
:1012E300B40B067E7C7F7C8029EFB40C047F3980AD
:1012F3002190016FE0FFB40D067E5E7F5E8013EFE9
:10130300B40E047F79800B90016FE07F00B40F026D
:101313007F71900007EF1209B5900008E41209B538
:101323000213D1900158E0FF7022900141E0FBA32A
:10133300E0FAA3E0F990000674FF1209B5900007E4
:1013430074FF1209B590000874808071EFC3940490
:10135300503BEF7F00B401027F80900141E0FBA38B
:10136300E0FAA3E0F9900006EF1209B5900158E006
:10137300FF7E00B402027E80900007EE1209B5EFF3
:101383007F00B403027F80900008EF803090015803
:10139300E024FCFF7401A807088002C333D8FCFFD4
:1013A300900141E0FBA3E0FAA3E0F9900006EF12FD
:1013B30009B5900007EF1209B5900008E41209B5CA
:1013C300900158E004F0E0D3940A4002E4F0900165
:1013D30041E0FBA3E0FAA3E0F97D091232E39001B7
:1013E30041E0FBA3E0FAA3E0F9900009EF1209B58D
:1013F300900159E004F022E4900145F0120908FF3E
:10140300900146E4F0A3EFF0E0F8E4F0E890014641
:10141300F0900001120921FF900147E02FF09001A5
:1014230046E03400F0900145E025E02402F582E433
:101433003400F583E0FEA3E0FFC3900147E09F90F3
:101443000146E09E50037F0022900145E004F060D6
:101453001EE025E02402F582E43400F583E0FEA3D8
:10146300E0FFC3900147E09F900146E09E50DA9071
:101473000145E0FBC3946440030215C7E0FA25E08D
:101483002400F582E43400F583E0FEA3E0FFC3907B
:101493000147E09FF0900146E09EF0E0FEA3E0FFED
:1014A3007C007D0A1209D7900146EEF0A3EFF0907D
:1014B3000146E0FEA3E0FFEA25E02400F582E434E0
:1014C30000F583E0FCA3E0FDEB25E02402F582E4D4
:1014D3003400F583E0FAA3E0C39DFDEA9CFC120906
:1014E300E9900146EEF0A3EFF0900145E024FFFF01
:1014F300E434FFFE7C007D0A1209D7900147E02FF8
:10150300F0900146E03EF0E0FEA3E0FF900000E033
:10151300FCA3E0FDC39FEC9E501CC3900147E09DDC
:10152300FF900146E09CFED3EF9405EE94007F0507
:1015330040027F048022900146E0FEA3E0FFC390B7
:101543000001E09FFF900000E09EFED3EF9405EEC4
:1015530094007F0540027F04BF040F900146E0FF23
:10156300A3E0900000CFF0A3EFF0900000E0FEA313
:10157300E0FF900146EEF0A3EFF07C007D0A120934
:10158300E9D3ED9404EC94007F0540027F04BF048B
:101593000E900147E0240AF0900146E03400F0D3B6
:1015A300900147E094E7900146E0940340077403F9
:1015B300F0A374E7F0900146E0FEA3E0FF7C007D1A
:1015C3000A0209E97F63224301BA0100D24101788B
:1015D300004101790042017A000041017C0042018F
:1015E3007D060041017F00410180004101810041EE
:1015F300018206410183004201840000410186000B
:10160300410187004A01880000000000000000003B
:101613000041019200410193004701940000000042
:101623000000004201B600004101B8064101B900C3
:1016330041015700410158004101590050015A002E
:101643000000000000000000000000000000004354
:10165300016A0100EA41016D0041016E0060C800AA
:101663000203FE042004440468048C04B004D5047B
:10167300FB05200546056D059405BB05E2060A0634
:10168300310659068106A906D106F907210749073C
:1016930071079907C007E8080F0836085C08830834
:1016A300A908CF08F40919093E0962098609A9099D
:1016B300CC09EF0A110A320A530A730A930AB30ACE
:1016C300D20AF00B0E0B2B0B480B640B800B9B0BFE
:1016D300B50BCF0BE90C020C1A0C320C490C610C44
:1016E300770C8D0CA20CB70CCB0CDF0CF20D060D96
:1016F300180D2A0D3C0D4D0D5E0D6E0D7E0D8E0DDC
:101703009D0DAC0DBB0DC90DD60DE40DF10DFE0EF7
:101713000A0E160E220E2E0E390E440E4E0E590EC2
:10172300630E6D0E760E800E894301B30100D24124
:1017330001B0004101B1004101B20041019B0641EA
:10174300019C0045019D00000000004101A30641EA
:1017530001A4004B01A500000000000000000000F0
:101763000000900142EBF0A3EAF0A3E9F09000023D
:10177300120921FF64046018900142E0FBA3E0FA20
:10178300A3E0F9900001120921640460030218E642
:10179300EFB4041B90017CE0640B600BE4900178D0
:1017A300F090017AF0A3F090017C740BF080199013
:1017B300017CE0640C600BE4900178F090017AF016
:1017C300A3F090017C740CF0900142E0FBA3E0FADB
:1017D300A3E0F9900002120921B4042B90017AE0EE
:1017E300FEA3E0FF7C037D841209E9C3ED944EEC74
:1017F300940250047402803E900142E0FBA3E0FA9D
:10180300A3E0F97403802F90017AE0FEA3E0FF7C4C
:10181300037D841209E9C3ED9458EC9402900142CC
:10182300E0FB500AA3E0FAA3E0F974018008A3E007
:10183300FAA3E0F974031209A3900178E070170486
:10184300F0900142E0FBA3E0FAA3E0F99000071255
:101853000921900179F0900142E0FBA3E0FAA3E0B3
:10186300F9900007120921FF900179E0FEEFC39E72
:10187300400DEF9EC394017F0450027F05801390B7
:1018830000071209212478C39EC394017F045002E8
:101893007F05EF64047051900007120921900179CC
:1018A300F090017BE004F0700690017AE004F0C34D
:1018B30090017BE0941090017AE0940E402AE412A8
:1018C30009A3900142E0FBA3E0FAA3E0F990000230
:1018D300120921B4040590000280039000017405ED
:1018E3000209B5E490017CF02290004D1209211405
:1018F300B409004003021A5F90190975F003A4C5E7
:101903008325F0C58373021A42021944021968023F
:10191300198B021A0F021A5F0219B602192402194F
:10192300DF90004E1209216408603790004E74085E
:101933001209B590004174021209B590005DE4806C
:101943006690004E1209216402601790004E7402E3
:101953001209B590004174021209B590005D74013B
:101963008045021A0890004E120921640360179003
:10197300004E74031209B590004174021209B59028
:10198300005D74038021807D90004E120921640460
:10199300601F90004E74041209B590004174021246
:1019A30009B590005D74021209B590005F7405805B
:1019B3004A805290004E1209216407601D90004E28
:1019C30074071209B590004174021209B590005EC4
:1019D30074041209B590005F8027802990004E128D
:1019E30009216409601F90004E74091209B5900023
:1019F3004174021209B590005F74041209B5900096
:101A03005E740580549000497402804D90005D120D
:101A13000921FF64016005EF6402701C90004174AA
:101A2300021209B5900058120921900058B403041A
:101A330074028025740380219000497402801A90F7
:101A4300004174021209B59000511209219000510E
:101A5300B403047402800274031209B590004DE4C8
:101A63000209B59000CAE06006E4F0A3E004F09038
:101A730000CBE0C394084066E4F0A3E004F09001D7
:101A8300BAE0FBA3E0FAA3E0F9122E859001BAE0D5
:101A9300FBA3E0FAA3E0F91231EE9001BAE0FBA355
:101AA300E0FAA3E0F91230C99001BAE0FBA3E0FA2F
:101AB300A3E0F990002C120921B40122E9242FF9A3
:101AC300E43AFAC002C0019001BAA3E0FAA3E0F934
:101AD30090002E120921FDD001D00212326E900027
:101AE300CCE0C3940A402AE4F0A3E004F0A3E004AA
:101AF300F0A3E004F09001BAE0FBA3E0FAA3E0F95D
:101B03001229719001BAE0FBA3E0FAA3E0F9122ACB
:101B1300E59000CDE0C394054010E4F09001BAE0F5
:101B2300FBA3E0FAA3E0F9121BDF9000CEE0C3941D
:101B3300094010E4F09001BAE0FBA3E0FAA3E0F956
:101B430012244D9000CFE0C394184033E4F0A3E097
:101B530004F09001BAE0FBA3E0FAA3E0F912322EFD
:101B63009001BAE0FBA3E0FAA3E0F91231AE9001D1
:101B7300BAE0FBA3E0FAA3E0F912005643CF1090BA
:101B830000D0E0C39402401EE4F0A3E004F012008E
:101B93000E9001BAE0FBA3E0FAA3E0F9900069EF2D
:101BA3001209B51229F39000D1E0C39402402CE44A
:101BB300F09001BAE0FBA3E0FAA3E0F912003E9033
:101BC30001BAE0FBA3E0FAA3E0F9122C339001BAC7
:101BD300E0FBA3E0FAA3E0F91235092290004112D9
:101BE30009216402703A90003F120921B40318904E
:101BF300003F74021209B5900043E4F5F0120AC3E2
:101C0300900042E41209B5900042120921700302C8
:101C13001D3690003F74031209B5900041021D1B4D
:101C23009000451209216402703A90003F12092185
:101C3300B4031890003F74021209B5900047E4F50D
:101C4300F0120AC3900046E41209B5900046120947
:101C5300217003021D3690003F74031209B59000F2
:101C630045021D1B90004912092164026003021DF5
:101C73003690004A120921FF704B90003F12092150
:101C8300B4031890003F74021209B5900043E4F5C1
:101C9300F0120AC3900042E41209B59000421209FF
:101CA300217003021D3690003F74031209B59000A2
:101CB3004A74011209B5900043E4F5F0120AC39087
:101CC3000042E4806BEF6401705290003F120921DF
:101CD30064037020900042120921601890003F7441
:101CE300021209B5900043E4F5F0120AC3900042D2
:101CF300E41209B590003F12092164027035900087
:101D030042120921602D90004AE41209B590003F68
:101D130074031209B59000497403801490004AE4D7
:101D23001209B590003F74031209B590004974037A
:101D33001209B522900142EBF0A3EAF0A3E9F09077
:101D43000142E0FBA3E0FAA3E0F99000221209218B
:101D5300900170F0900023120921900171F090001E
:101D630024120921900172F090002512092190019B
:101D730073F0E92426F9E43AFAA3EBF0A3EAF0A31B
:101D8300E9F0900170E02422FFE433FE900142A3C6
:101D9300E0FAA3E0F98F828E83120921900177F094
:101DA300E92420F9E43AFA900170E02402FD1232AA
:101DB300E3900177E06F6003021E58900173E02403
:101DC300EF6072046003021E587B017A017970127E
:101DD3003354900174E0FBA3E0FAA3E0F912237FEC
:101DE300900142E0FBA3E0FAA3E0F990004DEF126B
:101DF30009B590004D120921605B900142E0FBA3FD
:101E0300E0FAA3E0F990004C120921640A7046FE3F
:101E13007F02FDE92465F9E43AFA120B06900142C8
:101E230012284C900142E0FBA3E0FAA3E0F99000F2
:101E33004C7409801D900174E0FBA3E0FAA3E0F960
:101E43001213FA900142E0FBA3E0FAA3E0F9900039
:101E53004BEF1209B5900170E02403FFE433FE7DDC
:101E630000900142E0FBA3E0FAA3E02420F9E43A66
:101E7300FA020B069001547401F0A37400F0A374EA
:101E8300EAF09001A4E024A5F582E43401F583EFA0
:101E9300F09001A4E004F09001A3E024F960711430
:101EA3007003021F4424026003021F9E9001A5E0F9
:101EB300FFB4681FA3E0FEB4010F900154E0FBA33D
:101EC300E0FAA3E0F9740D8023EE64686003021F57
:101ED3009E8031EFB458339001A6E0FFB4591D90B2
:101EE3000154E0FBA3E0FAA3E0F9740E1209A390F6
:101EF30001A47402F09001A37407F022EF64586008
:101F030003021F9E9001A404F022E49001A4F02296
:101F1300900154E0FBA3E0FAA3E0F9120908FFB42F
:101F23000D0A9001A27407F0A304F022EFB40E0F80
:101F33009001A7E024039001A2F0A37408F022808B
:101F4300519001A2E0FF9001A4E0C39F404D900196
:101F530054E0FBA3E0FAA3E0F9900007740112092F
:101F6300B57E00900154E0FBA3E0FAA3E02408F956
:101F7300E43AA801FCAD037B017A0179A51208E2DA
:101F83009001A2E0FF7E007D007B017A0179A5121A
:101F93000B069001A37406F0E4A3F0227B017A01FF
:101FA300795A74681209A390000174021209B5905A
:101FB300016FE014700302204A14700302205814C6
:101FC3007003022066147003022074240460030269
:101FD300208B900157E0FF700F90000274071209E5
:101FE300B5900003747F804CEFC394045016EF1434
:101FF300FF74017E00A807088005C333CE33CED813
:10200300F9FF80027F00900002EF1209B59001579B
:10201300E0FFC394044017EF24FCFF74017E00A883
:1020230007088005C333CE33CED8F9FF80027F0083
:10203300900003EF1209B5900157E004F0E0D39448
:102043000A4053E4F0804F900002E41209B5900077
:1020530003745C803E900002E41209B5900003749F
:102063007C8030900002E41209B59000037458801C
:102073002290000274071209B5900003747F1209BD
:10208300B5E4900157F0800E900002E41209B59078
:102093000003E41209B5900001120921FF12090897
:1020A3002FFF9000021209212FFF90000312092134
:1020B3002F9000041209B590000574160209B5901B
:1020C300013FEBF0A3EAF0A3E9F0E4A3F078437C4B
:1020D300017D017BFF7A35799EFE7F051208E29030
:1020E300013FE0FBA3E0FAA3E0F9900019120921F4
:1020F30070030221D9900019E41209B5E9241AF9F1
:10210300E43AFA78437C017D017E007F051208E200
:102113007E007F057D0090013FE0FBA3E0FAA3E092
:10212300241AF9E43AFA120B06E4FF74432FF582FA
:10213300E43401F583E0FE900142E02EF00FEFB4AA
:1021430004E974432FF582E43401F583E0FF900141
:1021530042E06F60030221D9900145E0FE90014403
:10216300E07C002400FFEC3E9001BDF0A3EFF09073
:10217300013FE0FBA3E0FAA3E0F9900065120A3EF9
:10218300FF9001BDE065F07003A3E06F604890002D
:102193004C120921B409237E007F187D00E9244DE8
:1021A300F9E43AFA120B0690013FE0FBA3E0FAA32D
:1021B300E0F990004C740A1209B59001BDE0FEA34A
:1021C300E0FF90013FE0FBA3E0FAA3E0F990006594
:1021D300EE8FF0120AC32290005D12092114602AC7
:1021E30014602714606F240360030222AC90006321
:1021F300120921C3940A405690005674031209B57C
:1022030090005C74031209B5804490005C120921AC
:102213006402600990005B120921B4020F90006010
:1022230074011209B59000567402801F9000631266
:102233000921C3940A4017900060E41209B5900085
:102243005C74031209B590005674031209B590002B
:102253005774038051900063120921C3940A4049C3
:1022630090005674031209B590005C74031209B50B
:102273009000DCE0FEA3E0FF9000E0E06E7003A3BB
:10228300E06F60047F0580169000D4E0FEA3E0FFBA
:10229300A3E06E7003A3E06F7F0460027F05BF04B9
:1022A3000890005774021209B522EF1460401460BD
:1022B300792402600302237E121F9F90016AE0FBD0
:1022C300A3E0FAA3E0F990001674061209B5900191
:1022D3006AE0FBA3E0FAA3E02417F9E43AA801FCBF
:1022E300AD037B017A01795A7E007F0680777B01FB
:1022F3007A01795A1211F890016AE0FBA3E0FAA37C
:10230300E0F9900016740A1209B590016AE0FBA384
:10231300E0FAA3E02417F9E43AA801FCAD037B013A
:102323007A01795A7E007F0A803B121F9F7A0179D6
:10233300601211F890016AE0FBA3E0FAA3E0F990C0
:10234300001674101209B590016AE0FBA3E0FAA32A
:10235300E02417F9E43AA801FCAD037B017A017983
:102363005A7E007F101208E290016AE0FBA3E0FAB4
:10237300A3E0F990001474011209B522900145EB12
:10238300F0A3EAF0A3E9F0E4FFA3F0FE900145E037
:10239300FBA3E0FAA3E0F98E827583001209212FD3
:1023A300FF0EEEB403E6900145E0FBA3E0FAA3E0E1
:1023B300F98E827583001209216F6003022447128C
:1023C30009087F00FE9000011209212FFFE43EFE61
:1023D300EF64A57003EE645A706A9000021209213B
:1023E300FFB401047F088057EFB402047F06804FD7
:1023F300900002120921FFB403047F018041EFB46E
:1024030004047F048039900002120921FFB40504FB
:102413007F05802BEFB406047F0380239000021214
:102423000921FFB407047F028015EFB408047F0974
:10243300800D9000021209217F00B409027F0790EA
:102443000148EFF0900148E0FF2290006912092152
:10245300640470030224FF90004C12092164096094
:10246300030224FF90005D120921146023146037D6
:1024730014604B2403706D900063120921C3940A06
:1024830090001650047408800274071209B5801F67
:1024930090001674071209B590001774051209B558
:1024A3009000157402805290001674061209B590BC
:1024B300001774051209B59000157403803B900052
:1024C30063120921C3940A90001650047409800210
:1024D30074071209B590001774041209B59000151A
:1024E3007403801590001674071209B590001774D1
:1024F300051209B590001574031209B5229001B8AD
:10250300E06407707C90000E120A3E45F0701E9046
:10251300000A120A3E45F070199001B6E0701304E8
:10252300F090000AE475F024120AC38005E49001D8
:10253300B6F090000E120A3EFF900012E5F08FF005
:10254300120AC3900004120A3E45F0701E90000266
:10255300120A3E45F070199001B7E0701304F09031
:102563000002E475F024120AC38005E49001B7F079
:10257300900004120A3EFF900006E5F08FF0020A75
:10258300C3900012E4F5F0120AC3900006E4F5F0DC
:10259300120AC390000A120A3E45F070109000021E
:1025A300120A3E45F070069001B87407F0229001BC
:1025B300517401F0A37400F0A374EAF090019CE05D
:1025C300FE249DF582E43401F583EFF090019BE056
:1025D30024F96024047073749D2EF582E43401F5AC
:1025E30083E0B4680C90019D7468F090019B7407BC
:1025F300F0E490019CF08052EEC39404404C9001AF
:102603009B7406F0E4A3F0900151E0FBA3E0FAA36E
:10261300E0F990000174011209B5900151E0FBA3A8
:10262300E0FAA3E02402F9E43AA801FCAD037B013C
:102633007A01799D7E007F051208E27E007F057D89
:10264300007B017A01799D120B0690019CE004F056
:10265300E0C394054002E4F022900137E0C4131371
:10266300540330E07B90005B74021209B590000ABA
:10267300120A3EFFAEF0BE021EBFAB1B90000E74EB
:102683000575F055120AC390000E120A3EFD900024
:1026930010E5F08DF08046BE051EBF551B90000E61
:1026A300740275F0AB120AC390000E120A3EFF903B
:1026B3000010E5F08FF0802590000A120A3EFFAE6D
:1026C300F090000E120A3E6F7003E5F06E703390C7
:1026D3000010120A3EFF90000EE5F08FF0020AC3CD
:1026E30090005B120921B4021190000A120A3EFF06
:1026F30090000EE5F08FF0120AC390005B74031292
:1027030009B52290005D1209211460171460141496
:102713006072240360030227A990005B740312090B
:10272300B5807B900058120921FF900059120921AE
:102733006F6031900059EF1209B5900058120921CA
:10274300B40208900063740A1209B590005A740128
:102753001209B590000C120A3EFF90000EE5F08FAF
:10276300F0020AC3900058120921B4021090005CD1
:10277300120921B4020790005B7402802690005B6B
:102783007403801F90005B74031209B590005F12FD
:102793000921B4051190005E120921B405089000C7
:1027A3005874031209B52290013FEBF0A3EAF0A39A
:1027B300E9F0E4A3F0A3F090013FE0FBA3E0FAA368
:1027C300E0F990001F1209217034900143E004F0F6
:1027D3007006900142E004F0900142E0FEA3E0FFA6
:1027E300E4FCFD7B607AEAF9F8C3120AF0500A9020
:1027F300014274EAF0A37460F043CF1080B99001F2
:102803003FE0FBA3E0FAA3E0F990004B120921FF9C
:10281300700690016F04F022EFD3945040079001AB
:102823006F7402F022900142E0FEA3E0FFE4FCFD9E
:102833007B607AEAF9F8C3120AF0700790016F74AB
:1028430003F022E490016FF022E0FBA3E0FAA3E09F
:10285300F990005DE41209B590005174031209B5B3
:1028630090005874031209B590005274031209B50D
:1028730090005674031209B590005774031209B5FA
:1028830090005474031209B590005974031209B5EA
:1028930090005AE41209B590006074011209B590D2
:1028A300006174011209B5900062E41209B5900049
:1028B30063740A1209B590005E74051209B590009D
:1028C3005F74051209B5900018E41209B59000145D
:1028D300E41209B590002CE41209B590002DE4022E
:1028E30009B5787FE4F6D8FD75810702292C02002B
:1028F30003E493A3F8E493A34003F68001F208DF13
:10290300F48029E493A3F85407240CC8C333C454B4
:102913000F4420C8834004F456800146F6DFE48068
:102923000B01020408102040809015CAE47E019335
:1029330060BCA3FF543F30E509541FFEE493A3603A
:10294300010ECF54C025E060A840B8E493A3FAE495
:1029530093A3F8E493A3C8C582C8CAC583CAF0A3E6
:10296300C8C582C8CAC583CADFE9DEE780BE900155
:102973003CEBF0A3EAF0A3E9F090013CE0FBA3E019
:10298300FAA3E0F99000691209216404606112302E
:102993002C90013CE0FBA3E0FAA3E0F990004C1279
:1029A3000921640970491218EC90013CE0FBA3E093
:1029B300FAA3E0F9120B4890013CE0FBA3E0FAA371
:1029C300E0F9120DDB90013CE0FBA3E0FAA3E0F990
:1029D30012270690013CE0FBA3E0FAA3E0F91221E1
:1029E300DA90013CE0FBA3E0FAA3E0F91204D2225F
:1029F30090013CEBF0A3EAF0A3E9F090006912091F
:102A0300216404706343CF1090016EE014602514B9
:102A130060432402705290016EE004F090013CE0A8
:102A2300FBA3E0FAA3E0F990004974021209B57F11
:102A3300020222AD90013CE0FBA3E0FAA3E0F9908F
:102A43000049120921B403201234F31232AA90016F
:102A53006EE004F02290013CE0FBA3E0FAA3E0F96E
:102A63001227AAE490016EF022C0E0C0F0C083C038
:102A730082C0D075D000C000C001C002C003C00432
:102A8300C005C006C007C2CF9001B1E004F0E0FF6B
:102A9300D394014011EF30E00D9001B0E013F0301A
:102AA3008504E04480F09001B1E0C394114018E440
:102AB300F043C60243A908C2CA75CBFC75CABE90CF
:102AC30001B0E0FF1225B1D007D006D005D004D065
:102AD30003D002D001D000D0D0D082D083D0F0D0A8
:102AE300E03290013CEBF0A3EAF0A3E9F090013C63
:102AF300E0FBA3E0FAA3E0F9900069120921640462
:102B030060501220C290013CE0FBA3E0FAA3E0F97D
:102B130090004C120921B40A39E92414F9E43AFA71
:102B230012316390013CE0FBA3E0FAA3E02451F9E6
:102B3300E43AFA122EDD90013CE0FBA3E0FAA3E0B5
:102B4300F912311790013CE0FBA3E0FAA3E0F9127C
:102B5300265C22900004120921B4011A9000067425
:102B630001120970900006120921C3940A400E90C5
:102B73000006740A8004900006E41209B59000036D
:102B8300120921B4011A9000057401120970900012
:102B930005120921C39401400E90000574018004BD
:102BA300900005E41209B5900007740112097090B2
:102BB3000007120921C394784007900007E4120923
:102BC300B522E4FFFEE490013FF0A3F0900140E062
:102BD30004F0700690013FE004F090013FE0B4037D
:102BE300EBA3E0B4E8E643CF100FBF00010EEF64A0
:102BF300644E70D1E4FF1222ADE4FEFFE490013F86
:102C0300F0A3F0900140E004F0700690013FE0046F
:102C1300F090013FE0B403EBA3E0B4E8E643CF1048
:102C23000FBF00010EEF64644E70D17F010222AD2D
:102C330090004C1209216409705E90005D12092115
:102C4300FF900183E06F6007EFF0E4A3F0A3F0EFE0
:102C53001424FD500D24047029E4900184F0A3F0A2
:102C6300802090005F120921B4051790005E1209BD
:102C730021B4050E900185E004F07006900184E014
:102C830004F0C3900185E09420900184E0941C40FB
:102C93000790005DE41209B5229000081209216033
:102CA3005E900008E41209B5900009E41209B5909A
:102CB3000012120A3EFFAEF090000A120A3EFDAC6B
:102CC300F0C39FEC9E5010ED5407FF122DC79000E8
:102CD3000AE475F0018022900012120A3EFFD3ED40
:102CE3009FEC95F0401690000A120A3E5407FF121B
:102CF3002DC790000A74FFF5F0020A7612356D2293
:102D0300900001120921605B900001E41209B5E40F
:102D13001209A3900006120A3EFFAEF090000212C1
:102D23000A3EFDACF0C39FEC9E5010ED5407FF121A
:102D33002E26900002E475F0018022900006120A0C
:102D43003EFFD3ED9FEC95F04016900002120A3E31
:102D53005407FF122E2690000274FFF5F0020A7644
:102D630012357622C0E0C0F0C083C082C0D075D0D7
:102D730000C000C001C002C003C004C005C006C03B
:102D830007E59D30E116539DFD9001B3E0FBA3E001
:102D9300FAA3E0F990002D74011209B5E59D30E026
:102DA30008539DFEAF9F121E77D007D006D005D0E3
:102DB30004D003D002D001D000D0D0D082D083D0B1
:102DC300F0D0E032EFB408005058902DD4F8282802
:102DD30073022DEC022DF2022DF8022E01022E07B2
:102DE300022E10022E19022E1DD2A5C2A4800AD2D1
:102DF300A5D2A48004C2A5D2A4C2A3C2A222C2A502
:102E0300D2A48004C2A5C2A4D2A3C2A222C2A5C2D4
:102E1300A4D2A3D2A222C2A58002D2A5C2A4C2A3D5
:102E2300D2A222EFB408005058902E33F82828730A
:102E3300022E4B022E51022E57022E60022E6602E4
:102E43002E6F022E78022E7CD281C282800AD2811A
:102E5300D2828004C281D282C283C28422C281D23E
:102E6300828004C281C282D283C28422C281C2828E
:102E7300D283D28422C2818002D281C282C283D20F
:102E83008422900043E475F001120A76900047E42F
:102E930075F001120A76900043120A3EC39496E538
:102EA300F094004012900043E475F096120AC39028
:102EB300004274011209B5900047120A3EC39420E0
:102EC300E5F094034013900047740375F020120A51
:102ED300C390004674011209B522900137E0C31371
:102EE30030E0047402800274031209A3900137E0F6
:102EF300FCEC1313543F90000130E0047402800291
:102F030074031209B5EC131313541F90000530E03A
:102F1300047402800274031209B5900137E0C454AB
:102F23000F90000630E0047402800274031209B5A6
:102F33002290013CEBF0A3EAF0A3E9F07E007F14BA
:102F43007D0090013CE0FBA3E0FAA3E0F9120B063D
:102F530090013CE0FBA3E0FAA3E0F99000107402B7
:102F630075F0AB120AC390000C740575F055120A84
:102F7300C390000A740575F0DC120AC39000027452
:102F83000575F0DC020AC3C0E0C0F0C083C082C094
:102F9300D075D000C000C001C002C003C004C0058A
:102FA300C006C007758CF8758A909000CA7401F04A
:102FB3009001B3E0FBA3E0FAA3E0F912002ED007DF
:102FC300D006D005D004D003D002D001D000D0D099
:102FD300D082D083D0F0D0E032900016120921FDC8
:102FE300B4060BE4900186F09000E6E0802AED64DD
:102FF30008600A9000161209216409701F90018667
:10300300E004F0E0C394044002E4F0900186E0C3DE
:1030130094029000E6E0500D4404F022E49001860F
:10302300F09000E6E054FBF02290013FEBF0A3EABE
:10303300F0A3E9F090013FE0FBA3E0FAA3E0F990ED
:10304300001F120921603090001FE41209B590009F
:103053001812092124F2601104701C90013FE0FB57
:10306300A3E0FAA3E0F9020FF090013FE0FBA3E035
:10307300FAA3E0F9121D372290003F74031209B539
:1030830090004174031209B590004574031209B509
:1030930090004974031209B5900040E41209B590F9
:1030A3000043E4F5F0120AC3900042E41209B5901C
:1030B3000047E4F5F0120AC3900046E41209B59004
:1030C300004AE40209B590013CEBF0A3EAF0A3E95E
:1030D300F090013CE0FBA3E0FAA3E0F99000691251
:1030E30009216404602D12250090013CE0FBA3E05C
:1030F300FAA3E0F9122C9C90013CE0FBA3E0FAA3B5
:10310300E0F9122D0390013CE0FBA3E0FAA3E0F900
:1031130012338A22900137E0FCEC30E01490000E69
:10312300120A3E45F0701390000E740475F000808F
:103133000690000EE4F5F0120AC3ECC413540730F2
:10314300E014900004120A3E45F0701390000474DA
:103153000475F0008006900004E4F5F0120AC3221F
:10316300900137E0FEA3E0FF90000130E004740219
:10317300800274031209B5EEC313EF1390000330FA
:10318300E0047404800274051209B5900137E0FE6F
:10319300A3E07802CEC313CE13D8F990000230E037
:1031A300047406800274071209B52290013CEBF007
:1031B300A3EAF0A3E9F090013CE0FBA3E0FAA3E06B
:1031C300F99000691209216404601F122FDC900139
:1031D3003CE0FBA3E0FAA3E0F91234C790013CE022
:1031E300FBA3E0FAA3E0F91234DD2290013CEBF0FB
:1031F300A3EAF0A3E9F090005B120921B402109056
:1032030001B9E004F0E0D394024012E4F0800090AE
:10321300013CE0FBA3E0FAA3E0F912343790013C50
:10322300E0FBA3E0FAA3E0F902347A90013CEBF06F
:10323300A3EAF0A3E9F090013CE0FBA3E0FAA3E0EA
:10324300F99000691209216404601F12352E900160
:103253003CE0FBA3E0FAA3E0F912353D90013CE02A
:10326300FBA3E0FAA3E0F9123495229001B2E0F552
:1032730082758300120921F59F9001B3E0FBA3E05F
:10328300FAA3E0F990002D120921601A90002DE4B1
:103293001209B59001B2E004F0E0C39D4008E4F0E8
:1032A30090002C1209B522D2A2122BC5C2A2D2A31E
:1032B300122BC5C2A3D2A4122BC5C2A4D2A5122B12
:1032C300C5C2A5D284122BC5C284D283122BC5C218
:1032D30083D282122BC5C282D281122BC5C2812214
:1032E300E4FFAE051DEE60307E80EED39400401FF8
:1032F300EF30E70725E06407FF8004EF25E0FF12C6
:1033030009085E6004EF6407FFEEC313FE80DB74FD
:103313000129F9E43AFA80CA229001BAE0FBA3E05A
:10332300FAA3E0F912307B9001BAE0FBA3E0FAA321
:10333300E0F91228549001BAE0FBA3E0FAA3E0F904
:1033430012357F9001BAE0FBA3E0FAA3E0F9022F64
:10335300349001947458F0A304F0A37404F0A3749C
:103363000AF0900002120921900198F090000312D4
:103373000921900199F07B017A0179947D0612323B
:10338300E390019AEFF02290005D120921FF64019E
:103393006004EFB40223900056120921B4021A907C
:1033A300000A120A3EFFAEF0D394ABEE940240093A
:1033B30090000CEE8FF0120AC3229001BAE0FBA337
:1033C300E0FAA3E0F990004174021209B590004CB1
:1033D30074091209B57E007F087D007B017A0079AC
:1033E300CA020B06438E05438901758CF8758A90D2
:1033F300C28CD2A9D28C75CBFC75CABEC2CAD2AD5F
:10340300D2CAD2BD43FEC143FF8243CF1022120969
:1034130008640270159000010412097090000112F3
:103423000921D394015003C29522900001E41209AB
:10343300B5C2952290000974011209709000091217
:103443000921C39404401090000974041209B59033
:10345300000874011209B522759A1F759B60759156
:10346300E075921075A1FC75A203E4F5C775C60259
:1034730043A90843B90822740112094E120908C36B
:103483009404400D74041209A390000174011209FD
:10349300B522900056120921640260099000571268
:1034A3000921B40203D2A622C2A622C2A6C280C2A6
:1034B300A7C296C2A5C2A4C2A3C2A2C281C282C22B
:1034C30083C284229000151209219000E6B40205FC
:1034D300E04401F022E054FEF0229000171209218B
:1034E3009000E6B40405E04402F022E054FDF0222B
:1034F300D296122BC5C296D2A6122BC5C2A6D280D3
:10350300122BC5C2802290004B120921C394504054
:103513000790005DE41209B522438FC0759D507575
:103523009E8275950643A901D2AF229000511209DC
:1035330021B40203D28022C28022900052120921B8
:10354300B40203D29622C2962253A9F775C600D2BB
:10355300CA75CBFC75CABE3212331C1233BD0200CE
:103563003812345B1233E702351CC2A5C2A4C2A3CE
:10357300C2A222C281C282C283C28422900065E4B5
:10358300F5F0020AC3000000000000000000000084
:103593000000000000000000000000000000000028
:00000001FF
