:1000000002271C12346F121B9780FB022E4C209487
:100010001290016EE004F0E0D39401400B1233C261
:100020007F0622E490016EF07F072202292EE92448
:100030002CF9E43AFA023325023478022C29900094
:1000400039120901B4110AE9244AF9E43AFA122AE8
:02005000182274
:1000530002346090012AEBF0A3EAF0A3E9F0E4A3F1
:10006300F0FC90012AE0FBA3E0FAA3E0F99000562C
:10007300120901640670030204B190001812090109
:1000830024EB60121460162416701F900172E06452
:1000930001F07C648014E4900172F0800D90017291
:1000A3007401F0900038120901FC900172E06003C2
:1000B3000202D6A37468F090012AE0FBA3E0FAA33E
:1000C300E0F9900054120A1E45F070030202959065
:1000D30001747402F0900014120901900175F090FC
:1000E300017EE0C394024003020280900054120A8E
:1000F3001EFFAEF030E0057F000201FAEF30E105AC
:100103007F010201FA90012AE0FBA3E0FAA3E0F9E0
:10011300900054120A1EFFAEF030E2057F02020186
:10012300FAEF30E3057F030201FA90012AE0FBA313
:10013300E0FAA3E0F9900054120A1EFFAEF030E497
:10014300057F040201FAEF30E5057F050201FA900D
:10015300012AE0FBA3E0FAA3E0F9900054120A1E7F
:10016300FFAEF030E6057F060201FAEF30E7057FC8
:10017300070201FA90012AE0FBA3E0FAA3E0F99059
:100183000054120A1EAEF0EE30E0047F088068EEE1
:1001930030E1047F09806090012AE0FBA3E0FAA329
:1001A300E0F9900054120A1EAEF0EE30E2047F0A2A
:1001B3008045EE30E3047F0B803D90012AE0FBA3F2
:1001C300E0FAA3E0F9900054120A1EAEF0EE30E418
:1001D300047F0C8022EE30E5047F0D801A90012A03
:1001E300E0FBA3E0FAA3E0F9900054120A1EE5F045
:1001F3007F0F30E6027F0EEF70047F3F8078EFB40D
:1002030001047F068070EFB402047F5B8068EFB463
:1002130003047F4F8060EFB404047F668058EFB41B
:1002230005047F6D8050EFB406047F7D8048EFB4F2
:1002330007047F078040EFB408047F7F8038EFB462
:1002430009047F6F8030EFB40A047F778028EFB40E
:100253000B047F7C8020EFB40C047F398018EFB44B
:100263000D047F5E8010EFB40E047F798008EF7F6A
:1002730000B40F027F71900176EFF08005E49001E6
:1002830076F090017EE004F0E0C394044022E4F0B1
:10029300801E9001747401F090012AE0FBA3E0FA40
:1002A300A3E0F9900014120901900175F0E4A3F0A2
:1002B300900174E0FF900173E02FFF900175E02F30
:1002C300FFA3E02FA3F0A37416F090012D7406F0A2
:1002D3000204A19001737458F0A304F0A37407F00F
:1002E300A3740AF090017DE0900177F0A37420F0ED
:1002F300ECD39463400CA37440F0A3F0E4A3F002A6
:100303000487EC75F00A84FF70057F3F0203A9BFE1
:1003130001057F060203A9EC75F00A84FFBF0205FD
:100323007F5B0203A9BF03047F4F807AEC75F00A59
:1003330084FFBF04047F66806DBF05047F6D806604
:10034300EC75F00A84FFBF06047F7D8059BF070464
:100353007F078052EC75F00A84FFBF08047F7F801B
:1003630045BF09047F6F803EEC75F00A84FFBF0A26
:10037300047F778031BF0B047F7C802AEC75F00A01
:1003830084FFBF0C047F39801DBF0D047F5E801680
:10039300EC75F00A84FFBF0E047F798009BF0F0458
:1003A3007F7180027F009000E7E0FE7D0030E00275
:1003B3007D80ED4F900179F0EC75F00A84AFF0EF9A
:1003C30070057F3F020469BF01057F06020469ECE3
:1003D30075F00A84AFF0BF02057F5B020469BF03B7
:1003E300057F4F020469EC75F00A84AFF0BF040483
:1003F3007F668072BF05047F6D806BEC75F00A84A5
:10040300AFF0BF06047F7D805DBF07047F07805682
:10041300EC75F00A84AFF0BF08047F7F8048BF0902
:10042300047F6F8041EC75F00A84AFF0BF0A047F4C
:10043300778033BF0B047F7C802CEC75F00A84AF8C
:10044300F0BF0C047F39801EBF0D047F5E8017EC64
:1004530075F00A84AFF0BF0E047F798009BF0F04E3
:100463007F7180027F00EE7E0030E1027E80EE4FDE
:1004730090017AF09000E7E07F0030E2027F809005
:10048300017BEFF07B017A0179737D0912322D90A4
:10049300017CEFF0A3E004F090012D740AF07B01DE
:1004A3007A01797390012DE0FD7C0012349C229037
:1004B300012DEBF0A3EAF0A3E9F078327C017D0192
:1004C3007BFF7A34799F7E007F081208C2783A7CDA
:1004D300017D017BFF7A3479A77E007F031208C276
:1004E30090012DE0FBA3E0FAA3E0F990000E120ABD
:1004F3001EFF900132E5F0F0A3EFF0900004120A22
:100503001EFF900134E5F0F0A3EFF090000A120A09
:100513001EFF900136E5F0F0A3EFF0900002120AFF
:100523001EFF900138E5F0F0A3EFF09000431209AD
:100533000190013AF090004412090190013BF090C0
:10054300003F12090190013CF0E4900130F0A3F068
:10055300900132E0FEA3E0FF4E6022C3EF94ABEEC6
:10056300940250047F068017D3900133E094559092
:100573000132E094057F0740027F0680027F07BFB8
:10058300061E90012DE0FBA3E0FAA3E0F990000E14
:10059300E4F5F0120AA3900130E0F0A3E04401F087
:1005A300900134E0FEA3E0FF4E600EEF7003EE64B3
:1005B300047F0760027F0680027F07BF061E90014B
:1005C3002DE0FBA3E0FAA3E0F9900004E4F5F012B8
:1005D3000AA3900130E0F0A3E04402F0900132E07E
:1005E300FEA3E0FF4E600EA3E07002A3E07D076070
:1005F300027D0680027D07BD061E90012DE0FBA350
:10060300E0FAA3E0F9900004E4F5F0120AA39001E4
:1006130030E0F0A3E04404F0EF4E60047F0780195C
:10062300900134E07002A3E060047F07800B900127
:100633003AE07F07B402027F06BF061D90012DE05A
:10064300FBA3E0FAA3E0F990004374031209959029
:100653000130E0F0A3E04408F090013AE064027056
:10066300589000DDE0FEA3E0FF9000E1E0FCA3E092
:10067300FDD39FEC9E4015ED9FFFEC9EFED3EF94C0
:100683000AEE94007F0740027F0680229000E1E09B
:10069300FEA3E0FFC39000DEE09FFF9000DDE09E3D
:1006A300FED3EF940AEE94007F0740027F06BF0655
:1006B300047F0680067F0780027F07EF6406705D74
:1006C30090012DE0FBA3E0FAA3E0F990000A120ADF
:1006D3001EFFAEF04E602BC3EF94ABEE94025004BA
:1006E3007F07801390000A120A1ED39455E5F094F5
:1006F300057F0640027F07BF070890004874031276
:100703000995900048120901B40312900043740341
:10071300120995900130E0F0A3E04410F090013A03
:10072300E0640270569000D5E0FEA3E0FFA3E0FC76
:10073300A3E0FDD39FEC9E4015ED9FFFEC9EFED3FF
:10074300EF940AEE94007F0740027F068022900018
:10075300D7E0FEA3E0FFC39000D6E09FFF9000D553
:10076300E09EFED3EF940AEE94007F0740027F06DB
:10077300BF06047F0680067F0780027F07BF061D32
:1007830090012DE0FBA3E0FAA3E0F990004374038A
:10079300120995900130E0F0A3E04420F090013A73
:1007A300E0B4030D90013CE07F07B402027F0680B2
:1007B300027F07BF061D90012DE0FBA3E0FAA3E033
:1007C300F990003F7403120995900130E0F0A3E023
:1007D3004440F0900130E0FEA3E0FF90012DE0FBE8
:1007E300A3E0FAA3E0F9900054EE8FF0020AA3E726
:1007F30009F608DFFA8046E709F208DFFA803E8847
:10080300828C83E709F0A3DFFA8032E309F608DF7D
:10081300FA8078E309F208DFFA807088828C83E338
:1008230009F0A3DFFA806489828A83E0A3F608DFF4
:10083300FA805889828A83E0A3F208DFFA804C8029
:10084300D280FA80C680D4806980F28033801080A1
:10085300A680EA809A80A880DA80E280CA80338901
:10086300828A83ECFAE493A3C8C582C8CCC583CC3F
:10087300F0A3C8C582C8CCC583CCDFE9DEE7800D11
:1008830089828A83E493A3F608DFF9ECFAA9F0EDF1
:10089300FB2289828A83ECFAE0A3C8C582C8CCC54F
:1008A30083CCF0A3C8C582C8CCC583CCDFEADEE81D
:1008B30080DB89828A83E493A3F208DFF980CC8802
:1008C300F0EF60010E4E60C388F0ED2402B4040023
:1008D30050B9F582EB2402B4040050AF23234582C0
:1008E3002390084273BB010689828A83E022500267
:1008F300E722BBFE02E32289828A83E49322BB01BF
:100903000CE58229F582E5833AF583E0225006E976
:100913002582F8E622BBFE06E92582F8E222E5827B
:1009230029F582E5833AF583E49322BB01098982A1
:100933008A83F8E028F022500327F722BBFE05F84C
:10094300E328F3228A838982F8E4932822BB010FE8
:10095300F8E58229F582E5833AF583E028F0225011
:1009630009C58229F8E58226F622BBFE09C582293C
:10097300F8E22582F222F8EA2583F583E993282217
:10098300BB010689828A83F0225002F722BBFE0153
:10099300F322F8BB010DE58229F582E5833AF5835D
:1009A300E8F0225006E92582C8F622BBFE05E925B8
:1009B30082C8F222EF8DF0A4A8F0CF8CF0A428CE49
:1009C3008DF0A42EFE22BC000BBE0029EF8DF08417
:1009D300FFADF022E4CCF875F008EF2FFFEE33FE05
:1009E300EC33FCEE9DEC984005FCEE9DFE0FD5F03C
:1009F300E9E4CEFD22EDF8F5F0EE8420D21CFEAD45
:100A0300F075F008EF2FFFED33FD4007985006D542
:100A1300F0F222C398FD0FD5F0EA22BB0110E58264
:100A230029F582E5833AF583E0F5F0A3E022500946
:100A3300E92582F886F008E622BBFE0AE92582F85A
:100A4300E2F5F008E222E5832AF583E993F5F0A3C2
:100A5300E99322BB010DC58229C582C5833AC583AB
:100A6300020B125011C58229F808E5F026F618F595
:100A7300F0E58236F622BBFE11C58229F808E2258D
:100A8300F0F5F0F218E23582F222F8E58229F582D8
:100A9300E5832AF58374019325F0F5F0E493382276
:100AA300F8BB0111E58229F582E5833AF583E8F085
:100AB300E5F0A3F0225009E92582C8F608A6F02242
:100AC300BBFE09E92582C8F2E5F008F222EB9FF5A7
:100AD300F0EA9E42F0E99D42F0EC6480C86480989D
:100AE30045F022EF4E6012EF60010EEDBB010B8962
:100AF300828A83F0A3DFFCDEFA2289F05007F7092C
:100B0300DFFCA9F022BBFEFCF309DFFCA9F022C540
:100B1300F0F8A3E028F0C5F0F8E58215827002151D
:100B230083E038F02290012DEBF0A3EAF0A3E9F083
:100B3300244AF9E43AFA12173B90012DE0FBA3E0B3
:100B4300FAA3E0F990004A12090114603E14606DA3
:100B5300147003020CD824036003020D09900042B1
:100B6300120901B40607900050E412099590003F62
:100B7300740312099590004DE412099590004FE417
:100B830012099590003B7409020D0690012DE0FBBC
:100B9300A3E0FAA3E0F9900042120901B40607901A
:100BA3000050E412099590003F74031209959000D8
:100BB3004DE412099590004F7401020D0690012D2A
:100BC300E0FBA3E0FAA3E0F9900050120901C394FB
:100BD3000A4051900049120901B4022A90004112BF
:100BE3000901B4020E90004DE412099590004FE400
:100BF30012099590012DE0FBA3E0FAA3E0F9900020
:100C0300417403020C9C90012DE0FBA3E0FAA3E0E6
:100C1300F990000C120A1EFF90000EE5F08FF012FF
:100C23000AA38078900152E0640C707090012DE06B
:100C3300FBA3E0FAA3E0F9900041120901640270FA
:100C43005B900155E0FF900154E0FEC39F400DEE21
:100C53009FC3940A7F0650027F078015EE2478FF16
:100C6300900155E0FEC3EF9EC3940A7F0650027FB6
:100C730007BF072890004D74011209959000417435
:100C830003120995900050740A12099590004F744D
:100C930001120995900049740212099590012DE003
:100CA300FBA3E0FAA3E0F990004F120901C39401FA
:100CB30040549000411209016403704A90004912A4
:100CC30009016402704090003F740212099590007C
:100CD30050740A802E90012DE0FBA3E0FAA3E0F903
:100CE300900042120901B40607900050E4120995DE
:100CF30090003F740312099590004DE412099590FA
:100D0300004FE412099590012DE0FBA3E0FAA3E064
:100D1300F990003F120901FF900040120901FE6F94
:100D23006037EFB40218900153E0700A900051123B
:100D33000901900156F09001537401F08005E4908D
:100D43000153F090012DE0FBA3E0FAA3E0F990003A
:100D53003F120901900040805BEE640270469001EF
:100D63002DE0FBA3E0FAA3E0F9900051120901FF83
:100D7300900156E0FEEFC39E400DEF9EC394007FAB
:100D83000650027F0780139000511209012478C393
:100D93009EC394007F0650027F07BF061A9000424D
:100DA3007406801090012DE0FBA3E0FAA3E0F99014
:100DB300004274071209952290004A120901146037
:100DC3003D14603A147003020F8F24036003020F73
:100DD300CF900050120901C3940A401290000EE410
:100DE300F5F0120AA3900004E4F5F0020FAB9000B3
:100DF3004512090164026003020FCF020FBE900087
:100E030050740A120995900047120901702F90013E
:100E130057740AF0900047740112099590000E74FC
:100E23000475F000120AA390000C740475F000120C
:100E33000AA3900010740275F0AB020FCC9000452A
:100E430012090164026003020F3B900157E024F58D
:100E5300604614607E24026003020F4C90000C1263
:100E63000A1EFF90000EE5F08FF0120AA390000A0D
:100E7300120A1EFFAEF090000E120A1E6F7003E5F9
:100E8300F06E6003020F4C900049740212099590B2
:100E93000157740BF0020F4C90004974021209952C
:100EA300900010120A1EFF90000EE5F08FF0120A58
:100EB300A390000A120A1EFFAEF090000E120A1E43
:100EC3006F7003E5F06E6003020F4C900157740CD2
:100ED300F08076900049740212099590000A120A74
:100EE3001EFFAEF0BE0518BF551590000E740275B7
:100EF300F0AB120AA3900010740275F0AB8047BEEA
:100F03000218BFAB1590000E740575F055120AA3B5
:100F1300900010740575F055802C90000E120A1E77
:100F23006F7003E5F06E7021900010120A1EFF909F
:100F3300000EE5F08FF0800E90000C120A1EFF9059
:100F4300000EE5F08FF0120AA3900004E4F5F0120E
:100F53000AA39000DDE0FEA3E0FF9000E1E06E70E5
:100F630003A3E06F60047F0780169000D5E0FEA323
:100F7300E0FFA3E06E7003A3E06F7F0660027F07CC
:100F8300EF6406704790004974028023900050126A
:100F93000901C3940A401B90000EE4F5F0120AA362
:100FA300900004740475F000120AA3900047E40251
:100FB3000995900045120901B4021190000C120A20
:100FC3001EFF90000EE5F08FF0120AA3229001306D
:100FD300EBF0A3EAF0A3E9F0E4A3F078347C017D1D
:100FE300017BFF7A3479AAFE7F0B1208C29001308D
:100FF300E0FBA3E0FAA3E02420F9E43AFA78347C96
:10100300017D017E007F0B1208C27E007F0B7D00F5
:10101300900130E0FBA3E0FAA3E02420F9E43AFADC
:10102300120AE6E4FF74342FF582E43401F583E019
:10103300FE900133E02EF00FEFB405E974342FF581
:1010430082E43401F583E0FF900133E06F60030233
:1010530011D7900137E0FE900136E07C002400FFB9
:10106300EC3EFE900130E0FBA3E0FAA3E0F9900030
:101073003CEE8FF0120AA390003C120A1EFFAEF062
:1010830030E013900130E0FBA3E0FAA3E0F9900015
:101093003A7401021178EEC313EF1330E013900199
:1010A30030E0FBA3E0FAA3E0F990003A74020211E6
:1010B30078900130E0FBA3E0FAA3E0F990003C1242
:1010C3000A1EFDACF0AE047802CEC313CE13D8F9DA
:1010D30030E00890003A7403021178EDAE0478030F
:1010E300CEC313CE13D8F930E00890003A7404024B
:1010F300117890003C120A1EFDACF0ECC4F854F0D9
:10110300C8EDC4540F4830E00790003A7405806579
:10111300EDAE047805CEC313CE13D8F930E00790B3
:10112300003A7406804F90003C120A1EFDACF0AEEC
:10113300047806CEC313CE13D8F930E00790003AF3
:1011430074078031EDAE047807CEC313CE13D8F9FC
:1011530030E00790003A7409801B90003C120A1E8D
:10116300E5F030E013900130E0FBA3E0FAA3E0F9EF
:1011730090003A740A120995900130E0FBA3E0FA5B
:10118300A3E0F990003A1209016032900039120984
:1011930001B412297E007F027D00E92452F9E43A6A
:1011A300FA120AE69001301227A8900130E0FBA35F
:1011B300E0FAA3E0F990003974111209959001380F
:1011C300E0FF900130E0FBA3E0FAA3E0F9900038E0
:1011D300EF1209952290012FEBF0A3EAF0A3E9F0B7
:1011E30090012FE0FBA3E0FAA3E0F97458120983FE
:1011F30090012FE0FBA3E0FAA3E0F99000017459FA
:101203001209959000027407120995900003740A5D
:1012130012099590015DE090000412099590000574
:101223007420120995900170E0FF70030213069079
:10123300012FE0FBA3E0FAA3E0F990000674791212
:101243000995EF70057F3F0212F5900170E0FFB43E
:1012530001077E067F060212F5EFB402057F5B02EB
:1012630012F5900170E0FFB403077E4F7F4F021227
:10127300F5EFB404047F668079900170E0FFB40554
:10128300067E6D7F6D806BEFB406047F7D80639077
:101293000170E0FFB407067E077F078055EFB408AF
:1012A300047F7F804D900170E0FFB409067E6F7F5D
:1012B3006F803FEFB40A047F778037900170E0FFBF
:1012C300B40B067E7C7F7C8029EFB40C047F3980CD
:1012D30021900170E0FFB40D067E5E7F5E8013EF08
:1012E300B40E047F79800B900170E07F00B40F028D
:1012F3007F71900007EF120995900008E412099599
:101303000213B190015CE0FF702290012FE0FBA378
:10131300E0FAA3E0F990000674FF12099590000724
:1013230074FF12099590000874808071EFC39404D0
:10133300503BEF7F00B401027F8090012FE0FBA3BD
:10134300E0FAA3E0F9900006EF12099590015CE042
:10135300FF7E00B402027E80900007EE120995EF33
:101363007F00B403027F80900008EF803090015C1F
:10137300E024FCFF7401A807088002C333D8FCFFF4
:1013830090012FE0FBA3E0FAA3E0F9900006EF122F
:101393000995900007EF120995900008E41209954A
:1013A30090015CE004F0E0D3940A4002E4F0900181
:1013B3002FE0FBA3E0FAA3E0F97D0912322D90019F
:1013C3002FE0FBA3E0FAA3E0F9900009EF120995DF
:1013D30090015DE004F022E4900133F01208E8FF8D
:1013E300900134E4F0A3EFF0E0F8E4F0E890013486
:1013F300F0900001120901FF900135E02FF09001F8
:1014030034E03400F0900133E025E02402F582E477
:101413003400F583E0FEA3E0FFC3900135E09F9025
:101423000134E09E50037F0022900133E004F0601A
:101433001EE025E02402F582E43400F583E0FEA3F8
:10144300E0FFC3900135E09F900134E09E50DA90B5
:101453000133E0FBC3946440030215A7E0FA25E0DF
:101463002400F582E43400F583E0FEA3E0FFC3909B
:101473000135E09FF0900134E09EF0E0FEA3E0FF31
:101483007C007D0A1209B7900134EEF0A3EFF090CF
:101493000134E0FEA3E0FFEA25E02400F582E43412
:1014A30000F583E0FCA3E0FDEB25E02402F582E4F4
:1014B3003400F583E0FAA3E0C39DFDEA9CFC120926
:1014C300C9900134EEF0A3EFF0900133E024FFFF65
:1014D300E434FFFE7C007D0A1209B7900135E02F4A
:1014E300F0900134E03EF0E0FEA3E0FF900000E066
:1014F300FCA3E0FDC39FEC9E501CC3900135E09D0F
:10150300FF900134E09CFED3EF9405EE94007F0737
:1015130040027F068022900134E0FEA3E0FFC390E7
:101523000001E09FFF900000E09EFED3EF9405EEE4
:1015330094007F0740027F06BF060F900134E0FF4F
:10154300A3E0900000CFF0A3EFF0900000E0FEA333
:10155300E0FF900134EEF0A3EFF07C007D0A120966
:10156300C9D3ED9404EC94007F0740027F06BF06C5
:101573000E900135E0240AF0900134E03400F0D3FA
:10158300900135E094E7900134E09403400774033D
:10159300F0A374E7F0900134E0FEA3E0FF7C007D4C
:1015A3000A0209C97F63224301A40100D341014D0B
:1015B3000041014E0042014F000041015100420130
:1015C300520A0041015400410155004101560041B6
:1015D30001570A41015800420159000041017100BD
:1015E300410172004A017300000000000000000086
:1015F3000041017D0041017E0047017F00000000A2
:101603000000004201A000004101A20A4101A30021
:1016130041015B0041015C0041015D0050015E003E
:101623000000000000000000000000000000004176
:10163300016E0041016F0060C8000203FE04200434
:10164300440468048C04B004D504FB052005460556
:101653006D059405BB05E2060A06310659068106A7
:10166300A906D106F9072107490771079907C0079A
:10167300E8080F0836085C088308A908CF08F409AE
:1016830019093E0962098609A909CC09EF0A110A59
:10169300320A530A730A930AB30AD20AF00B0E0BE7
:1016A3002B0B480B640B800B9B0BB50BCF0BE90C7F
:1016B300020C1A0C320C490C610C770C8D0CA20C29
:1016C300B70CCB0CDF0CF20D060D180D2A0D3C0DDB
:1016D3004D0D5E0D6E0D7E0D8E0D9D0DAC0DBB0D76
:1016E300C90DD60DE40DF10DFE0E0A0E160E220ED7
:1016F3002E0E390E440E4E0E590E630E6D0E760EDF
:10170300800E8943019D0100D341019B0041019C4F
:10171300004101860A41018700450188000000005D
:101723000041018E0A41018F004B0190000000002F
:101733000000000000000000900130EBF0A3EAF08D
:10174300A3E9F0900002120901FF640660189001FA
:1017530030E0FBA3E0FAA3E0F99000011209016471
:101763000660030218BCEFB4061B900151E064133A
:10177300600BE490014DF090014FF0A3F090015104
:101783007413F08019900151E06414600BE490012C
:101793004DF090014FF0A3F09001517414F09001BB
:1017A30030E0FBA3E0FAA3E0F9900002120901B4D0
:1017B300062B90014FE0FEA3E0FF7C037D8412091A
:1017C300C9C3ED944EEC940250047402803E900120
:1017D30030E0FBA3E0FAA3E0F97403802F90014FFC
:1017E300E0FEA3E0FF7C037D841209C9C3ED945896
:1017F300EC9402900130E0FB500AA3E0FAA3E0F975
:1018030074018008A3E0FAA3E0F97403120983903A
:10181300014DE0701704F0900130E0FBA3E0FAA360
:10182300E0F990000712090190014EF0900130E0B9
:10183300FBA3E0FAA3E0F9900007120901FF90016E
:101843004EE0FEEFC39E400DEF9EC394017F065012
:10185300027F0780139000071209012478C39EC3F7
:1018630094017F0650027F07EF64067051900007D2
:1018730012090190014EF0900150E004F0700690BF
:10188300014FE004F0C3900150E0941090014FE049
:10189300940E402AE4120983900130E0FBA3E0FA9E
:1018A300A3E0F9900002120901B40605900002803A
:1018B300039000017407020995E4900151F022900E
:1018C300003A12090114B40A004003021A389018AE
:1018D300DF75F003A4C58325F0C58373021A1B02C9
:1018E300191D0219410219640219E8021A38021972
:1018F3008F021A380218FD0219B890003B12090131
:101903006409603790003B740912099590002E74A6
:101913000212099590004AE4806690003B12090187
:101923006402601790003B740212099590002E74B4
:101933000212099590004A740180450219E1900052
:101943003B1209016403601790003B74031209956D
:1019530090002E740212099590004A74038021802E
:101963007D90003B1209016404601F90003B7404E6
:1019730012099590002E740212099590004A740280
:1019830012099590004C7407804A805290003B12D4
:1019930009016407601D90003B74071209959000CC
:1019A3002E740212099590004B740612099590004B
:1019B3004C8027802990003B120901640A601F9024
:1019C300003B740A12099590002E74021209959037
:1019D300004C740612099590004B740780549000D4
:1019E300367402804D90004A120901FF64016005BC
:1019F300EF6402701C90002E74021209959000454A
:101A0300120901900045B403047402802574038015
:101A1300219000367402801A90002E7402120995E8
:101A230090003E12090190003EB403047402800248
:101A3300740312099590003AE402099590002E125E
:101A430009016402703A90002C120901B403189042
:101A5300002C7402120995900030E4F5F0120AA3E9
:101A630090002FE412099590002F120901700302D0
:101A73001B9690002C740312099590002E021B7B79
:101A83009000321209016402703A90002C1209018D
:101A9300B4031890002C7402120995900034E4F5F5
:101AA300F0120AA3900033E412099590003312094F
:101AB300017003021B9690002C7403120995900089
:101AC30032021B7B90003612090164026003021B81
:101AD30096900037120901FF704B90002C120901F8
:101AE300B4031890002C7402120995900030E4F5A9
:101AF300F0120AA390002FE412099590002F120907
:101B0300017003021B9690002C7403120995900038
:101B1300377401120995900030E4F5F0120AA3908E
:101B2300002FE4806BEF6401705290002C120901C6
:101B33006403702090002F120901601890002C7428
:101B430002120995900030E4F5F0120AA390002FD9
:101B5300E412099590002C1209016402703590007B
:101B63002F120901602D900037E412099590002C83
:101B7300740312099590003674038014900037E4BF
:101B830012099590002C7403120995900036740382
:101B9300120995229000CAE06006E4F0A3E004F085
:101BA3009000CBE0C394084030E4F0A3E004F0904D
:101BB30001A4E0FBA3E0FAA3E0F9122D479001A4EE
:101BC300E0FBA3E0FAA3E0F91231379001A4E0FBB4
:101BD300A3E0FAA3E0F9122F8B9000CCE0C3940AA0
:101BE300402CE4F0A3E004F09000CFE004F0A3E085
:101BF30004F09001A4E0FBA3E0FAA3E0F912283378
:101C03009001A4E0FBA3E0FAA3E0F91229A7900056
:101C1300CDE0C394054010E4F09001A4E0FBA3E001
:101C2300FAA3E0F9121A3F9000CFE0C394094010E1
:101C3300E4F09001A4E0FBA3E0FAA3E0F912231D72
:101C43009000D0E0C394184033E4F0A3E004F09094
:101C530001A4E0FBA3E0FAA3E0F91231779001A419
:101C6300E0FBA3E0FAA3E0F91230F79001A4E0FB54
:101C7300A3E0FAA3E0F912005643CF109000D1E09D
:101C8300C39402401EE4F0A3E004F012000E90019E
:101C9300A4E0FBA3E0FAA3E0F9900056EF12099544
:101CA3001228B59000D2E0C39402402CE4F09001D6
:101CB300A4E0FBA3E0FAA3E0F912003E9001A4E044
:101CC300FBA3E0FAA3E0F9122AF59001A4E0FBA339
:101CD300E0FAA3E0F912341D22900130EBF0A3EAFD
:101CE300F0A3E9F0900130E0FBA3E0FAA3E0F99060
:101CF3000022120901900145F0900023120901907E
:101D03000146F0900024120901900147F09000254C
:101D1300120901900148F0E92426F9E43AFAA3EB09
:101D2300F0A3EAF0A3E9F0900145E02422FFE433B5
:101D3300FE900130A3E0FAA3E0F98F828E831209AB
:101D43000190014CF0E92420F9E43AFA900145E0CE
:101D53002402FD12322D90014CE06F6003021DFD41
:101D6300900148E024EF6072046003021DFD7B01D3
:101D73007A0179451230B5900149E0FBA3E0FAA35B
:101D8300E0F912224F900130E0FBA3E0FAA3E0F95F
:101D930090003AEF12099590003A120901605B90A6
:101DA3000130E0FBA3E0FAA3E0F990003912090146
:101DB30064127046FE7F02FDE92452F9E43AFA12F6
:101DC3000AE69001301227A8900130E0FBA3E0FA65
:101DD300A3E0F99000397411801D900149E0FBA341
:101DE300E0FAA3E0F91213DA900130E0FBA3E0FA82
:101DF300A3E0F9900038EF120995900145E0240320
:101E0300FFE433FE7D00900130E0FBA3E0FAA3E0A2
:101E13002420F9E43AFA020AE69001427401F0A39D
:101E23007400F0A374EBF090018FE02490F582E44A
:101E33003401F583EFF090018FE004F090018EE020
:101E430024F56071147003021EE624026003021F6E
:101E530040900190E0FFB4681FA3E0FEB4010F902F
:101E63000142E0FBA3E0FAA3E0F974158023EE64DA
:101E7300686003021F408031EFB45833900191E052
:101E8300FFB4591D900142E0FBA3E0FAA3E0F9740B
:101E93001612098390018F7402F090018E740BF077
:101EA30022EF64586003021F4090018F04F022E484
:101EB30090018FF022900142E0FBA3E0FAA3E0F946
:101EC3001208E8FFB4150790018D7407800DEFB475
:101ED300160F900192E0240390018DF0A3740CF08F
:101EE30022805190018DE0FF90018FE0C39F404D10
:101EF300900142E0FBA3E0FAA3E0F990000774012C
:101F03001209957E00900142E0FBA3E0FAA3E024CE
:101F130008F9E43AA801FCAD037B017A0179901238
:101F230008C290018DE0FF7E007D007B017A01797C
:101F330090120AE690018E740AF0E4A3F0227B016A
:101F43007A01795E746812098390000174021209A0
:101F530095900170E0147003021FEC147003021FCC
:101F6300FA1470030220081470030220162404607C
:101F73000302202D90015BE0FF700F9000027407B5
:101F8300120995900003747F804CEFC3940450169C
:101F9300EF14FF74017E00A807088005C333CE3316
:101FA300CED8F9FF80027F00900002EF12099590CE
:101FB300015BE0FFC394044017EF24FCFF74017E30
:101FC30000A807088005C333CE33CED8F9FF8002BB
:101FD3007F00900003EF12099590015BE004F0E0AD
:101FE300D3940A4053E4F0804F900002E412099521
:101FF300900003745C803E900002E4120995900007
:1020030003747C8030900002E412099590000374FD
:102013005880229000027407120995900003747F80
:10202300120995E490015BF0800E900002E412091E
:1020330095900003E4120995900001120901FF1223
:1020430008E82FFF9000021209012FFF90000312EE
:1020530009012F90000412099590000574160209D6
:102063009590012DEBF0A3EAF0A3E9F0E4A3F07857
:10207300317C017D017BFF7A3479B5FE7F0512083F
:10208300C290012DE0FBA3E0FAA3E0F9900019123E
:102093000901700302217B900019E4120995E924D8
:1020A3001AF9E43AFA78317C017D017E007F05124A
:1020B30008C27E007F057D0090012DE0FBA3E0FABE
:1020C300A3E0241AF9E43AFA120AE6E4FF74312F82
:1020D300F582E43401F583E0FE900130E02EF00F49
:1020E300EFB404E974312FF582E43401F583E0FFA2
:1020F300900130E06F600302217B900133E0FE909A
:102103000132E07C002400FFEC3E9001A7F0A3EF36
:10211300F090012DE0FBA3E0FAA3E0F99000521246
:102123000A1EFF9001A7E065F07003A3E06F60480B
:10213300900039120901B411237E007F187D00E954
:10214300243AF9E43AFA120AE690012DE0FBA3E0FF
:10215300FAA3E0F990003974121209959001A7E0EF
:10216300FEA3E0FF90012DE0FBA3E0FAA3E0F990CA
:102173000052EE8FF0120AA32290004A12090114B2
:10218300602A14602714606F2403600302224E90B8
:102193000050120901C3940A40569000437403127D
:1021A30009959000497403120995804490004912DF
:1021B300090164026009900048120901B4020F90FA
:1021C300004D74011209959000437402801F900022
:1021D30050120901C3940A401790004DE412099567
:1021E30090004974031209959000437403120995F2
:1021F30090004474038051900050120901C3940A63
:1022030040499000437403120995900049740312E6
:1022130009959000DDE0FEA3E0FF9000E1E06E7021
:1022230003A3E06F60047F0780169000D5E0FEA350
:10223300E0FFA3E06E7003A3E06F7F0660027F07F9
:10224300BF0608900044740212099522900133EBF3
:10225300F0A3EAF0A3E9F0E4FFA3F0FE900133E07A
:10226300FBA3E0FAA3E0F98E827583001209012F24
:10227300FF0EEEB403E6900133E0FBA3E0FAA3E024
:10228300F98E827583001209016F6003022317120E
:1022930008E87F00FE9000011209012FFFE43EFED3
:1022A300EF64A57003EE645A706A9000021209018C
:1022B300FFB401047F098057EFB402047F06804F07
:1022C300900002120901FFB403047F018041EFB4BF
:1022D30004047F048039900002120901FFB405044D
:1022E3007F05802BEFB406047F0380239000021246
:1022F3000901FFB407047F028015EFB408047F0AC5
:10230300800D9000021209017F00B409027F07903B
:102313000136EFF0900136E0FF22900056120901DA
:10232300640670030223CF9000391209016411601F
:10233300030223CF90004A1209011460231460376B
:1023430014604B2403706D900050120901C3940A6A
:102353009000165004740980027407120995801FB7
:1023630090001674071209959000177405120995C9
:10237300900015740280529000167406120995900D
:10238300001774051209959000157403803B9000A3
:1023930050120901C3940A9000165004740A800273
:1023A300740712099590001774041209959000158B
:1023B3007403801590001674071209959000177422
:1023C300051209959000157403120995229001A234
:1023D300E0640B707C90000E120A1E45F0701E9094
:1023E300000A120A1E45F070199001A0E070130450
:1023F300F090000AE475F024120AA38005E490012A
:10240300A0F090000E120A1EFF900012E5F08FF06C
:10241300120AA3900004120A1E45F0701E900002D7
:10242300120A1E45F070199001A1E0701304F09098
:102433000002E475F024120AA38005E49001A1F0E0
:10244300900004120A1EFF900006E5F08FF0020AC6
:10245300A3900012E4F5F0120AA3900006E4F5F04D
:10246300120AA390000A120A1E45F070109000028F
:10247300120A1E45F070069001A2740BF02290011F
:102483003F7401F0A37400F0A374EBF0900187E0B4
:10249300FE2488F582E43401F583EFF0900186E0B1
:1024A30024F5602404707374882EF582E43401F5F6
:1024B30083E0B4680C9001887468F0900186740B13
:1024C300F0E4900187F08052EEC39404404C9001F5
:1024D30086740AF0E4A3F090013FE0FBA3E0FAA3C3
:1024E300E0F9900001740112099590013FE0FBA30C
:1024F300E0FAA3E02402F9E43AA801FCAD037B016E
:102503007A0179887E007F051208C27E007F057DEF
:10251300007B017A017988120AE6900187E004F0D2
:10252300E0C394054002E4F022900125E0C41313B4
:10253300540330E07B900048740212099590000A1E
:10254300120A1EFFAEF0BE021EBFAB1B90000E743C
:102553000575F055120AA390000E120A1EFD900095
:1025630010E5F08DF08046BE051EBF551B90000E92
:10257300740275F0AB120AA390000E120A1EFF90AC
:102583000010E5F08FF0802590000A120A1EFFAEBE
:10259300F090000E120A1E6F7003E5F06E70339018
:1025A3000010120A1EFF90000EE5F08FF0020AA33E
:1025B300900048120901B4021190000A120A1EFF8A
:1025C30090000EE5F08FF0120AA3900048740312F6
:1025D30009952290004A120901146017146014141B
:1025E3006072240360030226799000487403120981
:1025F30095807B900045120901FF90004612090166
:102603006F6031900046EF12099590004512090161
:10261300B40208900050740A12099590004774019F
:1026230012099590000C120A1EFF90000EE5F08F20
:10263300F0020AA3900045120901B4021090004968
:10264300120901B4020790004874028026900048E2
:102653007403801F900048740312099590004C1274
:102663000901B4071190004B120901B40708900047
:102673004574031209952290012DEBF0A3EAF0A310
:10268300E9F0E4A3F0A3F090012DE0FBA3E0FAA3AB
:10269300E0F990001F1209017034900131E004F059
:1026A3007006900130E004F0900130E0FEA3E0FFFB
:1026B300E4FCFD7B607AEAF9F8C3120AD0500A9071
:1026C300013074EAF0A37460F043CF1080B9900135
:1026D3002DE0FBA3E0FAA3E0F9900038120901FF13
:1026E300700690017004F022EFD3945040079001DC
:1026F300707402F022900130E0FEA3E0FFE4FCFDE1
:102703007B607AEAF9F8C3120AD0700790017074FB
:1027130003F022E4900170F022787FE4F6D8FD758F
:102723008107022763020003E493A3F8E493A34021
:1027330003F68001F208DFF48029E493A3F8540739
:10274300240CC8C333C4540F4420C8834004F45634
:10275300800146F6DFE4800B01020408102040806C
:102763009015AAE47E019360BCA3FF543F30E509B2
:10277300541FFEE493A360010ECF54C025E060A86C
:1027830040B8E493A3FAE493A3F8E493A3C8C582FF
:10279300C8CAC583CAF0A3C8C582C8CAC583CADF6D
:1027A300E9DEE780BEE0FBA3E0FAA3E0F990004A8C
:1027B300E412099590003E74031209959000457444
:1027C3000312099590003F74031209959000437416
:1027D3000312099590004474031209959000417403
:1027E300031209959000467403120995900047E47B
:1027F30012099590004D740112099590004E7401D1
:1028030012099590004FE4120995900050740A1232
:10281300099590004B740712099590004C740712A8
:102823000995900018E4120995900014E4020995A3
:1028330090012AEBF0A3EAF0A3E9F090012AE0FB70
:10284300A3E0FAA3E0F9900056120901640660615F
:10285300122EEE90012AE0FBA3E0FAA3E0F9900028
:1028630039120901641170491218C290012AE0FB60
:10287300A3E0FAA3E0F9120B2890012AE0FBA3E0FE
:10288300FAA3E0F9120DBB90012AE0FBA3E0FAA33F
:10289300E0F91225D690012AE0FBA3E0FAA3E0F9C0
:1028A30012217C90012AE0FBA3E0FAA3E0F91204D1
:1028B300B22290012AEBF0A3EAF0A3E9F0900056CC
:1028C3001209016406706343CF1090016FE0146036
:1028D300251460432402705290016FE004F09001CC
:1028E3002AE0FBA3E0FAA3E0F99000367402120990
:1028F300957F020231B790012AE0FBA3E0FAA3E03F
:10290300F9900036120901B403201234071231F48E
:1029130090016FE004F02290012AE0FBA3E0FAA308
:10292300E0F912267AE490016FF022C0E0C0F0C013
:1029330083C082C0D075D000C000C001C002C003F4
:10294300C004C005C006C007C2CF90019CE004F0DC
:10295300E0FFD394014011EF30E00D90019BE013B1
:10296300F0308504E04480F090019CE0C394114072
:1029730018E4F043C60243A908C2CA75CBFC75CA62
:10298300BE90019BE0FF122481D007D006D005D072
:1029930004D003D002D001D000D0D0D082D083D0D5
:1029A300F0D0E03290012AEBF0A3EAF0A3E9F09033
:1029B300012AE0FBA3E0FAA3E0F990005612090113
:1029C3006406605012206490012AE0FBA3E0FAA39E
:1029D300E0F9900039120901B41239E92414F9E439
:1029E3003AFA12302590012AE0FBA3E0FAA3E0248F
:1029F3003EF9E43AFA122D9F90012AE0FBA3E0FA94
:102A0300A3E0F9122FD990012AE0FBA3E0FAA3E097
:102A1300F912252C22900004120901B4011A900026
:102A2300067401120950900006120901C3940A406A
:102A33000E900006740A8004900006E41209959033
:102A43000003120901B4011A900005740112095020
:102A5300900005120901C39401400E900005740112
:102A63008004900005E4120995900007740112098F
:102A730050900007120901C394784007900007E4BF
:102A830012099522E4FFFEE490012DF0A3F09001DA
:102A93002EE004F0700690012DE004F090012DE08B
:102AA300B403EBA3E0B4E8E643CF100FBF00010E7D
:102AB300EF64644E70D1E4FF1231B7E4FEFFE4909B
:102AC300012DF0A3F090012EE004F0700690012D8B
:102AD300E004F090012DE0B403EBA3E0B4E8E64397
:102AE300CF100FBF00010EEF64644E70D17F01025F
:102AF30031B79000391209016411705E90004A12D7
:102B03000901FF900158E06F6007EFF0E4A3F0A321
:102B1300F0EF1424FD500D24047029E4900159F0C2
:102B2300A3F0802090004C120901B4071790004BCA
:102B3300120901B4070E90015AE004F070069001E7
:102B430059E004F0C390015AE09420900159E094B5
:102B53001C400790004AE4120995229000081209CC
:102B630001605E900008E4120995900009E41209DF
:102B730095900012120A1EFFAEF090000A120A1E70
:102B8300FDACF0C39FEC9E5010ED5407FF122C894F
:102B930090000AE475F0018022900012120A1EFFD1
:102BA300D3ED9FEC95F0401690000A120A1E5407CD
:102BB300FF122C8990000A74FFF5F0020A561234B2
:102BC3008122900001120901605B900001E4120967
:102BD30095E4120983900006120A1EFFAEF09000DE
:102BE30002120A1EFDACF0C39FEC9E5010ED540779
:102BF300FF122CE8900002E475F001802290000699
:102C0300120A1EFFD3ED9FEC95F0401690000212BE
:102C13000A1E5407FF122CE890000274FFF5F0021D
:102C23000A5612348A22C0E0C0F0C083C082C0D0EA
:102C330075D000C000C001C002C003C004C005C0FD
:102C430006C007E59D30E116539DFD90019DE0FB15
:102C5300A3E0FAA3E0F990002B7401120995E59D16
:102C630030E008539DFEAF9F121E1CD007D006D044
:102C730005D004D003D002D001D000D0D0D082D070
:102C830083D0F0D0E032EFB408005058902C96F87F
:102C9300282873022CAE022CB4022CBA022CC302D5
:102CA3002CC9022CD2022CDB022CDFD2A5C2A480B9
:102CB3000AD2A5D2A48004C2A5D2A4C2A3C2A222CE
:102CC300C2A5D2A48004C2A5C2A4D2A3C2A222C216
:102CD300A5C2A4D2A3D2A222C2A58002D2A5C2A415
:102CE300C2A3D2A222EFB408005058902CF5F828C2
:102CF3002873022D0D022D13022D19022D22022DF0
:102D030028022D31022D3A022D3ED281C282800A41
:102D1300D281D2828004C281D282C283C28422C27F
:102D230081D2828004C281C282D283C28422C281C0
:102D3300C282D283D28422C2818002D281C282C261
:102D430083D28422900030E475F001120A56900079
:102D530034E475F001120A56900030120A1EC3942F
:102D630096E5F094004012900030E475F096120A54
:102D7300A390002F7401120995900034120A1EC308
:102D83009420E5F094034013900034740375F0200D
:102D9300120AA3900033740112099522900125E0D1
:102DA300C31330E004740280027403120983900198
:102DB30025E0FCEC1313543F90000130E00474024F
:102DC30080027403120995EC131313541F9000052A
:102DD30030E004740280027403120995900125E027
:102DE300C4540F90000630E004740280027403128E
:102DF30009952290012AEBF0A3EAF0A3E9F07E0003
:102E03007F147D0090012AE0FBA3E0FAA3E0F9120E
:102E13000AE690012AE0FBA3E0FAA3E0F990001090
:102E2300740275F0AB120AA390000C740575F0558B
:102E3300120AA390000A740575F0DC120AA390002D
:102E430002740575F0DC020AA3C0E0C0F0C083C0C1
:102E530082C0D075D000C000C001C002C003C0044E
:102E6300C005C006C007758CF8758A909000CA74B7
:102E730001F090019DE0FBA3E0FAA3E0F912002E1C
:102E8300D007D006D005D004D003D002D001D000A3
:102E9300D0D0D082D083D0F0D0E032900016120987
:102EA30001FDB4060BE4900171F09000E7E0802A85
:102EB300ED6409600A900016120901640A701F90FC
:102EC3000171E004F0E0C394044002E4F090017166
:102ED300E0C394029000E7E0500D4404F022E49034
:102EE3000171F09000E7E054FBF02290012DEBF02C
:102EF300A3EAF0A3E9F090012DE0FBA3E0FAA3E03D
:102F0300F990001F120901603090001FE412099527
:102F130090001812090124EA601104701C90012D1D
:102F2300E0FBA3E0FAA3E0F9020FD090012DE0FB50
:102F3300A3E0FAA3E0F9121CDC2290002C74031224
:102F4300099590002E7403120995900032740312B0
:102F53000995900036740312099590002DE4120927
:102F630095900030E4F5F0120AA390002FE41209C3
:102F730095900034E4F5F0120AA3900033E41209AB
:102F830095900037E402099590012AEBF0A3EAF04B
:102F9300A3E9F090012AE0FBA3E0FAA3E0F9900093
:102FA300561209016406602D1223D090012AE0FB1A
:102FB300A3E0FAA3E0F9122B5E90012AE0FBA3E061
:102FC300FAA3E0F9122BC590012AE0FBA3E0FAA3D0
:102FD300E0F912329E22900125E0FCEC30E01490DF
:102FE300000E120A1E45F0701390000E740475F063
:102FF30000800690000EE4F5F0120AA3ECC413540B
:103003000730E014900004120A1E45F0701390007C
:1030130004740475F0008006900004E4F5F0120ACD
:10302300A322900125E0FEA3E0FF90000130E0041D
:10303300740280027403120995EEC313EF13900018
:103043000330E0047404800274051209959001258D
:10305300E0FEA3E07802CEC313CE13D8F9900002AA
:1030630030E004740680027407120995229001333C
:10307300EBF0A3EAF0A3E9F0E4FFEFC39D50329035
:103083000133E0FBA3E0FAA3E0F98F82758300121A
:103093000901F59F90019DE0FBA3E0FAA3E0F990FD
:1030A300002B12090160ED90002BE41209950F80AB
:1030B300C92290017F7458F0A304F0A37404F0A311
:1030C300740AF0900002120901900183F09000034A
:1030D300120901900184F07B017A01797F7D061248
:1030E300322D900185EFF07B017A01797F7D077C9A
:1030F3000002349C90012AEBF0A3EAF0A3E9F090DC
:10310300012AE0FBA3E0FAA3E0F9900056120901BB
:103113006406601F122E9E90012AE0FBA3E0FAA32F
:10312300E0F91233DB90012AE0FBA3E0FAA3E0F914
:103133001233F12290012AEBF0A3EAF0A3E9F09015
:103143000048120901B402109001A3E004F0E0D397
:1031530094024012E4F0800090012AE0FBA3E0FA1D
:10316300A3E0F912334B90012AE0FBA3E0FAA3E0BA
:10317300F902338E90012AEBF0A3EAF0A3E9F09071
:10318300012AE0FBA3E0FAA3E0F99000561209013B
:103193006406601F12344290012AE0FBA3E0FAA305
:1031A300E0F912345190012AE0FBA3E0FAA3E0F91D
:1031B3001233A922EF14600E14601E240270311220
:1031C3001F417D0680257B017A01795E1211D87B30
:1031D300017A01795E7D0A8012121F417A017964B6
:1031E3001211D87B017A01795E7D107C0012349C28
:1031F30022D2A2122A87C2A2D2A3122A87C2A3D2A0
:10320300A4122A87C2A4D2A5122A87C2A5D28412E5
:103213002A87C284D283122A87C283D282122A8740
:10322300C282D281122A87C28122E4FFAE051DEE3B
:1032330060307E80EED39400401FEF30E70725E037
:103243006407FF8004EF25E0FF1208E85E6004EFE7
:103253006407FFEEC313FE80DB740129F9E43AFA35
:1032630080CA229001A4E0FBA3E0FAA3E0F9122FA5
:103273003D9001A4E0FBA3E0FAA3E0F91227B0908C
:1032830001A4E0FBA3E0FAA3E0F91234939001A4B4
:10329300E0FBA3E0FAA3E0F9022DF690004A12093D
:1032A30001FF64016004EFB402239000431209019B
:1032B300B4021A90000A120A1EFFAEF0D394ABEECA
:1032C3009402400990000CEE8FF0120AA3229001A1
:1032D300A4E0FBA3E0FAA3E0F990002E7402120924
:1032E3009590003974111209957E007F097D007B4A
:1032F300017A0079CA020AE6438E05438901758C77
:10330300F8758A90C28CD2A9D28C75CBFC75CABED3
:10331300C2CAD2ADD2CAD2BD43FEC143FF8243CF9C
:1033230010221208E864027015900001041209507B
:10333300900001120901D394015003C29522900019
:1033430001E4120995C295229000097401120950F3
:10335300900009120901C3940440109000097404F9
:10336300120995900008740112099522759A1F7528
:103373009B607591E075921075A1FC75A203E4F54D
:10338300C775C60243A90843B90822740112092E5E
:103393001208E8C39404400D7404120983900001D9
:1033A3007401120995229000431209016402600915
:1033B300900044120901B40203D2A622C2A622C27B
:1033C300A6C280C2A7C296C2A5C2A4C2A3C2A2C2F9
:1033D30081C282C283C28422900015120901900027
:1033E300E7B40205E04401F022E054FEF02290002D
:1033F300171209019000E7B40405E04402F022E04B
:1034030054FDF022D296122A87C296D2A6122A8798
:10341300C2A6D280122A87C28022900038120901E4
:10342300C39450400790004AE412099522438FC089
:10343300759D50759E8275950643A901D2AF229062
:10344300003E120901B40203D28022C280229000FE
:103453003F120901B40203D29622C2962253A9F75E
:1034630075C600D2CA75CBFC75CABE32123266125B
:1034730032D102003812336F1232FB023430C2A54C
:10348300C2A4C2A3C2A222C281C282C283C28422B4
:10349300900052E4F5F0020AA3023070000000002D
:1034A3000000000000000000000000000000000019
:0734B3000000000000000012
:00000001FF
